{
  "abi": [
    {
      "type": "constructor",
      "inputs": [],
      "stateMutability": "nonpayable"
    },
    {
      "type": "function",
      "name": "COMMISSION_SCALE",
      "inputs": [],
      "outputs": [
        {
          "name": "",
          "type": "uint256",
          "internalType": "uint256"
        }
      ],
      "stateMutability": "view"
    },
    {
      "type": "function",
      "name": "DEFAULT_ADMIN_ROLE",
      "inputs": [],
      "outputs": [
        {
          "name": "",
          "type": "bytes32",
          "internalType": "bytes32"
        }
      ],
      "stateMutability": "view"
    },
    {
      "type": "function",
      "name": "DEFAULT_COMMISSION_RATE",
      "inputs": [],
      "outputs": [
        {
          "name": "",
          "type": "uint256",
          "internalType": "uint256"
        }
      ],
      "stateMutability": "view"
    },
    {
      "type": "function",
      "name": "DEFAULT_WITHDRAW_WINDOW",
      "inputs": [],
      "outputs": [
        {
          "name": "",
          "type": "uint256",
          "internalType": "uint256"
        }
      ],
      "stateMutability": "view"
    },
    {
      "type": "function",
      "name": "INFLATION_ADJUSTMENT_INTERVAL",
      "inputs": [],
      "outputs": [
        {
          "name": "",
          "type": "uint256",
          "internalType": "uint256"
        }
      ],
      "stateMutability": "view"
    },
    {
      "type": "function",
      "name": "INFLATION_ADJUSTMENT_RATE",
      "inputs": [],
      "outputs": [
        {
          "name": "",
          "type": "uint256",
          "internalType": "uint256"
        }
      ],
      "stateMutability": "view"
    },
    {
      "type": "function",
      "name": "INITIAL_INFLATION_RATE",
      "inputs": [],
      "outputs": [
        {
          "name": "",
          "type": "uint256",
          "internalType": "uint256"
        }
      ],
      "stateMutability": "view"
    },
    {
      "type": "function",
      "name": "INITIAL_TOTAL_SUPPLY",
      "inputs": [],
      "outputs": [
        {
          "name": "",
          "type": "uint256",
          "internalType": "uint256"
        }
      ],
      "stateMutability": "view"
    },
    {
      "type": "function",
      "name": "MAX_COMMISSION_RATE",
      "inputs": [],
      "outputs": [
        {
          "name": "",
          "type": "uint256",
          "internalType": "uint256"
        }
      ],
      "stateMutability": "view"
    },
    {
      "type": "function",
      "name": "MAX_POOL_STAKE",
      "inputs": [],
      "outputs": [
        {
          "name": "",
          "type": "uint256",
          "internalType": "uint256"
        }
      ],
      "stateMutability": "view"
    },
    {
      "type": "function",
      "name": "MAX_QUEUE_LENGTH",
      "inputs": [],
      "outputs": [
        {
          "name": "",
          "type": "uint256",
          "internalType": "uint256"
        }
      ],
      "stateMutability": "view"
    },
    {
      "type": "function",
      "name": "MIN_DELEGATOR_STAKE",
      "inputs": [],
      "outputs": [
        {
          "name": "",
          "type": "uint256",
          "internalType": "uint256"
        }
      ],
      "stateMutability": "view"
    },
    {
      "type": "function",
      "name": "MIN_INFLATION_RATE",
      "inputs": [],
      "outputs": [
        {
          "name": "",
          "type": "uint256",
          "internalType": "uint256"
        }
      ],
      "stateMutability": "view"
    },
    {
      "type": "function",
      "name": "MIN_POOL_STAKE",
      "inputs": [],
      "outputs": [
        {
          "name": "",
          "type": "uint256",
          "internalType": "uint256"
        }
      ],
      "stateMutability": "view"
    },
    {
      "type": "function",
      "name": "PRECISION",
      "inputs": [],
      "outputs": [
        {
          "name": "",
          "type": "uint256",
          "internalType": "uint256"
        }
      ],
      "stateMutability": "view"
    },
    {
      "type": "function",
      "name": "UPGRADE_INTERFACE_VERSION",
      "inputs": [],
      "outputs": [
        {
          "name": "",
          "type": "string",
          "internalType": "string"
        }
      ],
      "stateMutability": "view"
    },
    {
      "type": "function",
      "name": "acceptOwnership",
      "inputs": [
        {
          "name": "_poolId",
          "type": "bytes32",
          "internalType": "bytes32"
        }
      ],
      "outputs": [],
      "stateMutability": "nonpayable"
    },
    {
      "type": "function",
      "name": "accumulatedRewardPerShares",
      "inputs": [
        {
          "name": "poolId",
          "type": "bytes32",
          "internalType": "bytes32"
        }
      ],
      "outputs": [
        {
          "name": "rewardPerShare",
          "type": "uint256",
          "internalType": "uint256"
        }
      ],
      "stateMutability": "view"
    },
    {
      "type": "function",
      "name": "activePoolIds",
      "inputs": [
        {
          "name": "",
          "type": "uint256",
          "internalType": "uint256"
        }
      ],
      "outputs": [
        {
          "name": "",
          "type": "bytes32",
          "internalType": "bytes32"
        }
      ],
      "stateMutability": "view"
    },
    {
      "type": "function",
      "name": "addDelegatorToWhitelist",
      "inputs": [
        {
          "name": "_poolId",
          "type": "bytes32",
          "internalType": "bytes32"
        },
        {
          "name": "_delegator",
          "type": "address",
          "internalType": "address"
        }
      ],
      "outputs": [],
      "stateMutability": "nonpayable"
    },
    {
      "type": "function",
      "name": "addStake",
      "inputs": [
        {
          "name": "_poolId",
          "type": "bytes32",
          "internalType": "bytes32"
        }
      ],
      "outputs": [],
      "stateMutability": "payable"
    },
    {
      "type": "function",
      "name": "advanceEpoch",
      "inputs": [],
      "outputs": [],
      "stateMutability": "nonpayable"
    },
    {
      "type": "function",
      "name": "advanceEpoch",
      "inputs": [
        {
          "name": "_poolIds",
          "type": "bytes32[]",
          "internalType": "bytes32[]"
        },
        {
          "name": "_priorityFees",
          "type": "uint256[]",
          "internalType": "uint256[]"
        }
      ],
      "outputs": [],
      "stateMutability": "nonpayable"
    },
    {
      "type": "function",
      "name": "cfg",
      "inputs": [],
      "outputs": [
        {
          "name": "",
          "type": "address",
          "internalType": "contract IChainConfig"
        }
      ],
      "stateMutability": "view"
    },
    {
      "type": "function",
      "name": "claimReward",
      "inputs": [
        {
          "name": "_poolId",
          "type": "bytes32",
          "internalType": "bytes32"
        }
      ],
      "outputs": [
        {
          "name": "",
          "type": "uint256",
          "internalType": "uint256"
        }
      ],
      "stateMutability": "nonpayable"
    },
    {
      "type": "function",
      "name": "claimStake",
      "inputs": [
        {
          "name": "_poolId",
          "type": "bytes32",
          "internalType": "bytes32"
        }
      ],
      "outputs": [],
      "stateMutability": "nonpayable"
    },
    {
      "type": "function",
      "name": "commissionRates",
      "inputs": [
        {
          "name": "poolId",
          "type": "bytes32",
          "internalType": "bytes32"
        }
      ],
      "outputs": [
        {
          "name": "commissionRate",
          "type": "uint256",
          "internalType": "uint256"
        }
      ],
      "stateMutability": "view"
    },
    {
      "type": "function",
      "name": "compoundRewards",
      "inputs": [
        {
          "name": "_poolId",
          "type": "bytes32",
          "internalType": "bytes32"
        }
      ],
      "outputs": [],
      "stateMutability": "nonpayable"
    },
    {
      "type": "function",
      "name": "currentEpoch",
      "inputs": [],
      "outputs": [
        {
          "name": "",
          "type": "uint256",
          "internalType": "uint256"
        }
      ],
      "stateMutability": "view"
    },
    {
      "type": "function",
      "name": "currentInflationRate",
      "inputs": [],
      "outputs": [
        {
          "name": "",
          "type": "uint256",
          "internalType": "uint256"
        }
      ],
      "stateMutability": "view"
    },
    {
      "type": "function",
      "name": "delegate",
      "inputs": [
        {
          "name": "_poolId",
          "type": "bytes32",
          "internalType": "bytes32"
        }
      ],
      "outputs": [],
      "stateMutability": "payable"
    },
    {
      "type": "function",
      "name": "delegationEnabledMapping",
      "inputs": [
        {
          "name": "poolId",
          "type": "bytes32",
          "internalType": "bytes32"
        }
      ],
      "outputs": [
        {
          "name": "delegationEnabled",
          "type": "bool",
          "internalType": "bool"
        }
      ],
      "stateMutability": "view"
    },
    {
      "type": "function",
      "name": "delegatorCounts",
      "inputs": [
        {
          "name": "poolId",
          "type": "bytes32",
          "internalType": "bytes32"
        }
      ],
      "outputs": [
        {
          "name": "delegatorCount",
          "type": "uint256",
          "internalType": "uint256"
        }
      ],
      "stateMutability": "view"
    },
    {
      "type": "function",
      "name": "delegators",
      "inputs": [
        {
          "name": "poolId",
          "type": "bytes32",
          "internalType": "bytes32"
        },
        {
          "name": "delegator",
          "type": "address",
          "internalType": "address"
        }
      ],
      "outputs": [
        {
          "name": "principalStake",
          "type": "uint256",
          "internalType": "uint256"
        },
        {
          "name": "stake",
          "type": "uint256",
          "internalType": "uint256"
        },
        {
          "name": "accumulatedRewardPerShare",
          "type": "uint256",
          "internalType": "uint256"
        },
        {
          "name": "rewards",
          "type": "uint256",
          "internalType": "uint256"
        },
        {
          "name": "pendingStake",
          "type": "uint256",
          "internalType": "uint256"
        },
        {
          "name": "pendingWithdrawStake",
          "type": "uint256",
          "internalType": "uint256"
        },
        {
          "name": "pendingWithdrawWindow",
          "type": "uint256",
          "internalType": "uint256"
        },
        {
          "name": "totalRewardsClaimed",
          "type": "uint256",
          "internalType": "uint256"
        },
        {
          "name": "isPendingUndelegate",
          "type": "bool",
          "internalType": "bool"
        }
      ],
      "stateMutability": "view"
    },
    {
      "type": "function",
      "name": "exitValidator",
      "inputs": [
        {
          "name": "_poolId",
          "type": "bytes32",
          "internalType": "bytes32"
        }
      ],
      "outputs": [],
      "stateMutability": "nonpayable"
    },
    {
      "type": "function",
      "name": "getActiveValidatorCount",
      "inputs": [],
      "outputs": [
        {
          "name": "",
          "type": "uint256",
          "internalType": "uint256"
        }
      ],
      "stateMutability": "view"
    },
    {
      "type": "function",
      "name": "getActiveValidators",
      "inputs": [],
      "outputs": [
        {
          "name": "",
          "type": "bytes32[]",
          "internalType": "bytes32[]"
        }
      ],
      "stateMutability": "view"
    },
    {
      "type": "function",
      "name": "getAllValidators",
      "inputs": [],
      "outputs": [
        {
          "name": "poolIds",
          "type": "bytes32[]",
          "internalType": "bytes32[]"
        }
      ],
      "stateMutability": "view"
    },
    {
      "type": "function",
      "name": "getBlockchainInfo",
      "inputs": [],
      "outputs": [
        {
          "name": "currentEpoch_",
          "type": "uint256",
          "internalType": "uint256"
        },
        {
          "name": "currentBlock_",
          "type": "uint256",
          "internalType": "uint256"
        },
        {
          "name": "totalStake_",
          "type": "uint256",
          "internalType": "uint256"
        }
      ],
      "stateMutability": "view"
    },
    {
      "type": "function",
      "name": "getCommissionRate",
      "inputs": [
        {
          "name": "_poolId",
          "type": "bytes32",
          "internalType": "bytes32"
        }
      ],
      "outputs": [
        {
          "name": "",
          "type": "uint256",
          "internalType": "uint256"
        }
      ],
      "stateMutability": "view"
    },
    {
      "type": "function",
      "name": "getDelegator",
      "inputs": [
        {
          "name": "_poolId",
          "type": "bytes32",
          "internalType": "bytes32"
        },
        {
          "name": "_delegator",
          "type": "address",
          "internalType": "address"
        }
      ],
      "outputs": [
        {
          "name": "",
          "type": "tuple",
          "internalType": "struct IStaking.Delegator",
          "components": [
            {
              "name": "principalStake",
              "type": "uint256",
              "internalType": "uint256"
            },
            {
              "name": "stake",
              "type": "uint256",
              "internalType": "uint256"
            },
            {
              "name": "accumulatedRewardPerShare",
              "type": "uint256",
              "internalType": "uint256"
            },
            {
              "name": "rewards",
              "type": "uint256",
              "internalType": "uint256"
            },
            {
              "name": "pendingStake",
              "type": "uint256",
              "internalType": "uint256"
            },
            {
              "name": "pendingWithdrawStake",
              "type": "uint256",
              "internalType": "uint256"
            },
            {
              "name": "pendingWithdrawWindow",
              "type": "uint256",
              "internalType": "uint256"
            },
            {
              "name": "totalRewardsClaimed",
              "type": "uint256",
              "internalType": "uint256"
            },
            {
              "name": "isPendingUndelegate",
              "type": "bool",
              "internalType": "bool"
            }
          ]
        }
      ],
      "stateMutability": "view"
    },
    {
      "type": "function",
      "name": "getDelegatorPendingWithdraw",
      "inputs": [
        {
          "name": "_poolId",
          "type": "bytes32",
          "internalType": "bytes32"
        },
        {
          "name": "_delegator",
          "type": "address",
          "internalType": "address"
        }
      ],
      "outputs": [
        {
          "name": "pendingAmount",
          "type": "uint256",
          "internalType": "uint256"
        },
        {
          "name": "remainingWindow",
          "type": "uint256",
          "internalType": "uint256"
        },
        {
          "name": "isPending",
          "type": "bool",
          "internalType": "bool"
        },
        {
          "name": "unlockEpoch",
          "type": "uint256",
          "internalType": "uint256"
        }
      ],
      "stateMutability": "view"
    },
    {
      "type": "function",
      "name": "getDelegatorReward",
      "inputs": [
        {
          "name": "_poolId",
          "type": "bytes32",
          "internalType": "bytes32"
        },
        {
          "name": "_delegator",
          "type": "address",
          "internalType": "address"
        }
      ],
      "outputs": [
        {
          "name": "",
          "type": "uint256",
          "internalType": "uint256"
        }
      ],
      "stateMutability": "view"
    },
    {
      "type": "function",
      "name": "getHistoricalRPS",
      "inputs": [
        {
          "name": "_epoch",
          "type": "uint256",
          "internalType": "uint256"
        },
        {
          "name": "_poolId",
          "type": "bytes32",
          "internalType": "bytes32"
        }
      ],
      "outputs": [
        {
          "name": "rps",
          "type": "uint256",
          "internalType": "uint256"
        },
        {
          "name": "refcount",
          "type": "uint256",
          "internalType": "uint256"
        }
      ],
      "stateMutability": "view"
    },
    {
      "type": "function",
      "name": "getHistoricalRPSBatch",
      "inputs": [
        {
          "name": "_epoch",
          "type": "uint256",
          "internalType": "uint256"
        },
        {
          "name": "_poolIds",
          "type": "bytes32[]",
          "internalType": "bytes32[]"
        }
      ],
      "outputs": [
        {
          "name": "rpsValues",
          "type": "uint256[]",
          "internalType": "uint256[]"
        },
        {
          "name": "refcounts",
          "type": "uint256[]",
          "internalType": "uint256[]"
        }
      ],
      "stateMutability": "view"
    },
    {
      "type": "function",
      "name": "getImplAddress",
      "inputs": [],
      "outputs": [
        {
          "name": "",
          "type": "address",
          "internalType": "address"
        }
      ],
      "stateMutability": "view"
    },
    {
      "type": "function",
      "name": "getPendingAddValidators",
      "inputs": [],
      "outputs": [
        {
          "name": "",
          "type": "bytes32[]",
          "internalType": "bytes32[]"
        }
      ],
      "stateMutability": "view"
    },
    {
      "type": "function",
      "name": "getPendingExitValidators",
      "inputs": [],
      "outputs": [
        {
          "name": "",
          "type": "bytes32[]",
          "internalType": "bytes32[]"
        }
      ],
      "stateMutability": "view"
    },
    {
      "type": "function",
      "name": "getPendingStakeInfo",
      "inputs": [
        {
          "name": "_poolId",
          "type": "bytes32",
          "internalType": "bytes32"
        },
        {
          "name": "_delegator",
          "type": "address",
          "internalType": "address"
        }
      ],
      "outputs": [
        {
          "name": "pendingAmount",
          "type": "uint256",
          "internalType": "uint256"
        },
        {
          "name": "activationEpoch",
          "type": "uint256",
          "internalType": "uint256"
        },
        {
          "name": "canActivateNow",
          "type": "bool",
          "internalType": "bool"
        }
      ],
      "stateMutability": "view"
    },
    {
      "type": "function",
      "name": "getPendingUndelegationCount",
      "inputs": [],
      "outputs": [
        {
          "name": "",
          "type": "uint256",
          "internalType": "uint256"
        }
      ],
      "stateMutability": "view"
    },
    {
      "type": "function",
      "name": "getPendingUpdateValidators",
      "inputs": [],
      "outputs": [
        {
          "name": "",
          "type": "bytes32[]",
          "internalType": "bytes32[]"
        }
      ],
      "stateMutability": "view"
    },
    {
      "type": "function",
      "name": "getRoleAdmin",
      "inputs": [
        {
          "name": "role",
          "type": "bytes32",
          "internalType": "bytes32"
        }
      ],
      "outputs": [
        {
          "name": "",
          "type": "bytes32",
          "internalType": "bytes32"
        }
      ],
      "stateMutability": "view"
    },
    {
      "type": "function",
      "name": "getTotalDelegatorCount",
      "inputs": [],
      "outputs": [
        {
          "name": "",
          "type": "uint256",
          "internalType": "uint256"
        }
      ],
      "stateMutability": "view"
    },
    {
      "type": "function",
      "name": "getUserPendingUndelegations",
      "inputs": [
        {
          "name": "_delegator",
          "type": "address",
          "internalType": "address"
        }
      ],
      "outputs": [
        {
          "name": "undelegations",
          "type": "tuple[]",
          "internalType": "struct IStaking.PendingUndelegation[]",
          "components": [
            {
              "name": "delegator",
              "type": "address",
              "internalType": "address"
            },
            {
              "name": "poolId",
              "type": "bytes32",
              "internalType": "bytes32"
            },
            {
              "name": "amount",
              "type": "uint256",
              "internalType": "uint256"
            },
            {
              "name": "unlockEpoch",
              "type": "uint256",
              "internalType": "uint256"
            },
            {
              "name": "pendingWithdrawWindow",
              "type": "uint256",
              "internalType": "uint256"
            },
            {
              "name": "processed",
              "type": "bool",
              "internalType": "bool"
            },
            {
              "name": "principalAmount",
              "type": "uint256",
              "internalType": "uint256"
            },
            {
              "name": "rewardAmount",
              "type": "uint256",
              "internalType": "uint256"
            }
          ]
        }
      ],
      "stateMutability": "view"
    },
    {
      "type": "function",
      "name": "getUserTotalInfo",
      "inputs": [
        {
          "name": "_delegator",
          "type": "address",
          "internalType": "address"
        }
      ],
      "outputs": [
        {
          "name": "totalStake_",
          "type": "uint256",
          "internalType": "uint256"
        },
        {
          "name": "totalRewards_",
          "type": "uint256",
          "internalType": "uint256"
        },
        {
          "name": "totalClaimed_",
          "type": "uint256",
          "internalType": "uint256"
        }
      ],
      "stateMutability": "view"
    },
    {
      "type": "function",
      "name": "getUserValidators",
      "inputs": [
        {
          "name": "_delegator",
          "type": "address",
          "internalType": "address"
        }
      ],
      "outputs": [
        {
          "name": "poolIds",
          "type": "bytes32[]",
          "internalType": "bytes32[]"
        },
        {
          "name": "stakes",
          "type": "uint256[]",
          "internalType": "uint256[]"
        },
        {
          "name": "rewards",
          "type": "uint256[]",
          "internalType": "uint256[]"
        }
      ],
      "stateMutability": "view"
    },
    {
      "type": "function",
      "name": "getValidator",
      "inputs": [
        {
          "name": "_poolId",
          "type": "bytes32",
          "internalType": "bytes32"
        }
      ],
      "outputs": [
        {
          "name": "validator",
          "type": "tuple",
          "internalType": "struct IStaking.Validator",
          "components": [
            {
              "name": "description",
              "type": "string",
              "internalType": "string"
            },
            {
              "name": "publicKey",
              "type": "string",
              "internalType": "string"
            },
            {
              "name": "publicKeyPop",
              "type": "string",
              "internalType": "string"
            },
            {
              "name": "blsPublicKey",
              "type": "string",
              "internalType": "string"
            },
            {
              "name": "blsPublicKeyPop",
              "type": "string",
              "internalType": "string"
            },
            {
              "name": "endpoint",
              "type": "string",
              "internalType": "string"
            },
            {
              "name": "status",
              "type": "uint8",
              "internalType": "uint8"
            },
            {
              "name": "poolId",
              "type": "bytes32",
              "internalType": "bytes32"
            },
            {
              "name": "totalStake",
              "type": "uint256",
              "internalType": "uint256"
            },
            {
              "name": "owner",
              "type": "address",
              "internalType": "address"
            },
            {
              "name": "stakeSnapshot",
              "type": "uint256",
              "internalType": "uint256"
            },
            {
              "name": "pendingWithdrawStake",
              "type": "uint256",
              "internalType": "uint256"
            },
            {
              "name": "pendingWithdrawWindow",
              "type": "uint8",
              "internalType": "uint8"
            },
            {
              "name": "pendingOwner",
              "type": "address",
              "internalType": "address"
            }
          ]
        }
      ],
      "stateMutability": "view"
    },
    {
      "type": "function",
      "name": "getValidatorApr",
      "inputs": [
        {
          "name": "_poolId",
          "type": "bytes32",
          "internalType": "bytes32"
        }
      ],
      "outputs": [
        {
          "name": "apr",
          "type": "uint256",
          "internalType": "uint256"
        }
      ],
      "stateMutability": "view"
    },
    {
      "type": "function",
      "name": "getValidatorCounts",
      "inputs": [],
      "outputs": [
        {
          "name": "activeCount",
          "type": "uint256",
          "internalType": "uint256"
        },
        {
          "name": "inactiveCount",
          "type": "uint256",
          "internalType": "uint256"
        },
        {
          "name": "pendingExitCount",
          "type": "uint256",
          "internalType": "uint256"
        }
      ],
      "stateMutability": "view"
    },
    {
      "type": "function",
      "name": "grantRole",
      "inputs": [
        {
          "name": "role",
          "type": "bytes32",
          "internalType": "bytes32"
        },
        {
          "name": "account",
          "type": "address",
          "internalType": "address"
        }
      ],
      "outputs": [],
      "stateMutability": "nonpayable"
    },
    {
      "type": "function",
      "name": "hasPendingActivation",
      "inputs": [
        {
          "name": "_poolId",
          "type": "bytes32",
          "internalType": "bytes32"
        },
        {
          "name": "_delegator",
          "type": "address",
          "internalType": "address"
        }
      ],
      "outputs": [
        {
          "name": "",
          "type": "bool",
          "internalType": "bool"
        }
      ],
      "stateMutability": "view"
    },
    {
      "type": "function",
      "name": "hasRole",
      "inputs": [
        {
          "name": "role",
          "type": "bytes32",
          "internalType": "bytes32"
        },
        {
          "name": "account",
          "type": "address",
          "internalType": "address"
        }
      ],
      "outputs": [
        {
          "name": "",
          "type": "bool",
          "internalType": "bool"
        }
      ],
      "stateMutability": "view"
    },
    {
      "type": "function",
      "name": "historicalRPS",
      "inputs": [
        {
          "name": "epoch",
          "type": "uint256",
          "internalType": "uint256"
        },
        {
          "name": "poolId",
          "type": "bytes32",
          "internalType": "bytes32"
        }
      ],
      "outputs": [
        {
          "name": "rps",
          "type": "uint256",
          "internalType": "uint256"
        },
        {
          "name": "refcount",
          "type": "uint256",
          "internalType": "uint256"
        }
      ],
      "stateMutability": "view"
    },
    {
      "type": "function",
      "name": "initialize",
      "inputs": [
        {
          "name": "adminAddress_",
          "type": "address",
          "internalType": "address"
        },
        {
          "name": "chainConfigAddress_",
          "type": "address",
          "internalType": "address"
        }
      ],
      "outputs": [],
      "stateMutability": "nonpayable"
    },
    {
      "type": "function",
      "name": "isValidatorActive",
      "inputs": [
        {
          "name": "_poolId",
          "type": "bytes32",
          "internalType": "bytes32"
        }
      ],
      "outputs": [
        {
          "name": "",
          "type": "bool",
          "internalType": "bool"
        }
      ],
      "stateMutability": "view"
    },
    {
      "type": "function",
      "name": "isValidatorPendingAdd",
      "inputs": [
        {
          "name": "_poolId",
          "type": "bytes32",
          "internalType": "bytes32"
        }
      ],
      "outputs": [
        {
          "name": "",
          "type": "bool",
          "internalType": "bool"
        }
      ],
      "stateMutability": "view"
    },
    {
      "type": "function",
      "name": "isValidatorPendingExit",
      "inputs": [
        {
          "name": "_poolId",
          "type": "bytes32",
          "internalType": "bytes32"
        }
      ],
      "outputs": [
        {
          "name": "",
          "type": "bool",
          "internalType": "bool"
        }
      ],
      "stateMutability": "view"
    },
    {
      "type": "function",
      "name": "isValidatorPendingUpdate",
      "inputs": [
        {
          "name": "_poolId",
          "type": "bytes32",
          "internalType": "bytes32"
        }
      ],
      "outputs": [
        {
          "name": "",
          "type": "bool",
          "internalType": "bool"
        }
      ],
      "stateMutability": "view"
    },
    {
      "type": "function",
      "name": "lastInflationAdjustmentTime",
      "inputs": [],
      "outputs": [
        {
          "name": "",
          "type": "uint256",
          "internalType": "uint256"
        }
      ],
      "stateMutability": "view"
    },
    {
      "type": "function",
      "name": "lastInflationTotalSupplySnapshot",
      "inputs": [],
      "outputs": [
        {
          "name": "",
          "type": "uint256",
          "internalType": "uint256"
        }
      ],
      "stateMutability": "view"
    },
    {
      "type": "function",
      "name": "migrateV1ToV2",
      "inputs": [],
      "outputs": [],
      "stateMutability": "nonpayable"
    },
    {
      "type": "function",
      "name": "nominateOwner",
      "inputs": [
        {
          "name": "_poolId",
          "type": "bytes32",
          "internalType": "bytes32"
        },
        {
          "name": "_newOwner",
          "type": "address",
          "internalType": "address"
        }
      ],
      "outputs": [],
      "stateMutability": "nonpayable"
    },
    {
      "type": "function",
      "name": "pause",
      "inputs": [],
      "outputs": [],
      "stateMutability": "nonpayable"
    },
    {
      "type": "function",
      "name": "paused",
      "inputs": [],
      "outputs": [
        {
          "name": "",
          "type": "bool",
          "internalType": "bool"
        }
      ],
      "stateMutability": "view"
    },
    {
      "type": "function",
      "name": "pendingActivationEpoch",
      "inputs": [
        {
          "name": "poolId",
          "type": "bytes32",
          "internalType": "bytes32"
        },
        {
          "name": "delegator",
          "type": "address",
          "internalType": "address"
        }
      ],
      "outputs": [
        {
          "name": "activationEpoch",
          "type": "uint256",
          "internalType": "uint256"
        }
      ],
      "stateMutability": "view"
    },
    {
      "type": "function",
      "name": "pendingAddPoolIds",
      "inputs": [
        {
          "name": "",
          "type": "uint256",
          "internalType": "uint256"
        }
      ],
      "outputs": [
        {
          "name": "",
          "type": "bytes32",
          "internalType": "bytes32"
        }
      ],
      "stateMutability": "view"
    },
    {
      "type": "function",
      "name": "pendingExitPoolIds",
      "inputs": [
        {
          "name": "",
          "type": "uint256",
          "internalType": "uint256"
        }
      ],
      "outputs": [
        {
          "name": "",
          "type": "bytes32",
          "internalType": "bytes32"
        }
      ],
      "stateMutability": "view"
    },
    {
      "type": "function",
      "name": "pendingUndelegations",
      "inputs": [
        {
          "name": "",
          "type": "uint256",
          "internalType": "uint256"
        }
      ],
      "outputs": [
        {
          "name": "delegator",
          "type": "address",
          "internalType": "address"
        },
        {
          "name": "poolId",
          "type": "bytes32",
          "internalType": "bytes32"
        },
        {
          "name": "amount",
          "type": "uint256",
          "internalType": "uint256"
        },
        {
          "name": "unlockEpoch",
          "type": "uint256",
          "internalType": "uint256"
        },
        {
          "name": "pendingWithdrawWindow",
          "type": "uint256",
          "internalType": "uint256"
        },
        {
          "name": "processed",
          "type": "bool",
          "internalType": "bool"
        },
        {
          "name": "principalAmount",
          "type": "uint256",
          "internalType": "uint256"
        },
        {
          "name": "rewardAmount",
          "type": "uint256",
          "internalType": "uint256"
        }
      ],
      "stateMutability": "view"
    },
    {
      "type": "function",
      "name": "pendingUpdatePoolIds",
      "inputs": [
        {
          "name": "",
          "type": "uint256",
          "internalType": "uint256"
        }
      ],
      "outputs": [
        {
          "name": "",
          "type": "bytes32",
          "internalType": "bytes32"
        }
      ],
      "stateMutability": "view"
    },
    {
      "type": "function",
      "name": "pendingWithdrawStakes",
      "inputs": [
        {
          "name": "delegator",
          "type": "address",
          "internalType": "address"
        }
      ],
      "outputs": [
        {
          "name": "pendingStake",
          "type": "uint256",
          "internalType": "uint256"
        }
      ],
      "stateMutability": "view"
    },
    {
      "type": "function",
      "name": "proxiableUUID",
      "inputs": [],
      "outputs": [
        {
          "name": "",
          "type": "bytes32",
          "internalType": "bytes32"
        }
      ],
      "stateMutability": "view"
    },
    {
      "type": "function",
      "name": "registerValidator",
      "inputs": [
        {
          "name": "_description",
          "type": "string",
          "internalType": "string"
        },
        {
          "name": "_publicKey",
          "type": "string",
          "internalType": "string"
        },
        {
          "name": "_publicKeyPop",
          "type": "string",
          "internalType": "string"
        },
        {
          "name": "_blsPublicKey",
          "type": "string",
          "internalType": "string"
        },
        {
          "name": "_blsPublicKeyPop",
          "type": "string",
          "internalType": "string"
        },
        {
          "name": "_endpoint",
          "type": "string",
          "internalType": "string"
        }
      ],
      "outputs": [
        {
          "name": "",
          "type": "bytes32",
          "internalType": "bytes32"
        }
      ],
      "stateMutability": "payable"
    },
    {
      "type": "function",
      "name": "removeDelegatorFromWhitelist",
      "inputs": [
        {
          "name": "_poolId",
          "type": "bytes32",
          "internalType": "bytes32"
        },
        {
          "name": "_delegator",
          "type": "address",
          "internalType": "address"
        }
      ],
      "outputs": [],
      "stateMutability": "nonpayable"
    },
    {
      "type": "function",
      "name": "renounceRole",
      "inputs": [
        {
          "name": "role",
          "type": "bytes32",
          "internalType": "bytes32"
        },
        {
          "name": "callerConfirmation",
          "type": "address",
          "internalType": "address"
        }
      ],
      "outputs": [],
      "stateMutability": "nonpayable"
    },
    {
      "type": "function",
      "name": "revokeRole",
      "inputs": [
        {
          "name": "role",
          "type": "bytes32",
          "internalType": "bytes32"
        },
        {
          "name": "account",
          "type": "address",
          "internalType": "address"
        }
      ],
      "outputs": [],
      "stateMutability": "nonpayable"
    },
    {
      "type": "function",
      "name": "setCommissionRate",
      "inputs": [
        {
          "name": "_poolId",
          "type": "bytes32",
          "internalType": "bytes32"
        },
        {
          "name": "_newRate",
          "type": "uint256",
          "internalType": "uint256"
        }
      ],
      "outputs": [],
      "stateMutability": "nonpayable"
    },
    {
      "type": "function",
      "name": "setDelegationEnabled",
      "inputs": [
        {
          "name": "_poolId",
          "type": "bytes32",
          "internalType": "bytes32"
        },
        {
          "name": "_enabled",
          "type": "bool",
          "internalType": "bool"
        }
      ],
      "outputs": [],
      "stateMutability": "nonpayable"
    },
    {
      "type": "function",
      "name": "setRoleAdmin",
      "inputs": [
        {
          "name": "role",
          "type": "bytes32",
          "internalType": "bytes32"
        },
        {
          "name": "adminRole",
          "type": "bytes32",
          "internalType": "bytes32"
        }
      ],
      "outputs": [],
      "stateMutability": "nonpayable"
    },
    {
      "type": "function",
      "name": "settleReward",
      "inputs": [
        {
          "name": "_poolId",
          "type": "bytes32",
          "internalType": "bytes32"
        }
      ],
      "outputs": [],
      "stateMutability": "nonpayable"
    },
    {
      "type": "function",
      "name": "slashValidator",
      "inputs": [
        {
          "name": "_poolId",
          "type": "bytes32",
          "internalType": "bytes32"
        }
      ],
      "outputs": [],
      "stateMutability": "nonpayable"
    },
    {
      "type": "function",
      "name": "supportsInterface",
      "inputs": [
        {
          "name": "interfaceId",
          "type": "bytes4",
          "internalType": "bytes4"
        }
      ],
      "outputs": [
        {
          "name": "",
          "type": "bool",
          "internalType": "bool"
        }
      ],
      "stateMutability": "view"
    },
    {
      "type": "function",
      "name": "totalStake",
      "inputs": [],
      "outputs": [
        {
          "name": "",
          "type": "uint256",
          "internalType": "uint256"
        }
      ],
      "stateMutability": "view"
    },
    {
      "type": "function",
      "name": "totalSupply",
      "inputs": [],
      "outputs": [
        {
          "name": "",
          "type": "uint256",
          "internalType": "uint256"
        }
      ],
      "stateMutability": "view"
    },
    {
      "type": "function",
      "name": "undelegate",
      "inputs": [
        {
          "name": "_poolId",
          "type": "bytes32",
          "internalType": "bytes32"
        }
      ],
      "outputs": [
        {
          "name": "amount",
          "type": "uint256",
          "internalType": "uint256"
        },
        {
          "name": "unlockEpoch",
          "type": "uint256",
          "internalType": "uint256"
        }
      ],
      "stateMutability": "nonpayable"
    },
    {
      "type": "function",
      "name": "undelegationReverseIndex",
      "inputs": [
        {
          "name": "globalIndex",
          "type": "uint256",
          "internalType": "uint256"
        }
      ],
      "outputs": [
        {
          "name": "positionInUserArray",
          "type": "uint256",
          "internalType": "uint256"
        }
      ],
      "stateMutability": "view"
    },
    {
      "type": "function",
      "name": "unionArrays",
      "inputs": [
        {
          "name": "_poolId1",
          "type": "bytes32[]",
          "internalType": "bytes32[]"
        },
        {
          "name": "_poolId2",
          "type": "bytes32[]",
          "internalType": "bytes32[]"
        }
      ],
      "outputs": [
        {
          "name": "",
          "type": "bytes32[]",
          "internalType": "bytes32[]"
        }
      ],
      "stateMutability": "pure"
    },
    {
      "type": "function",
      "name": "unpause",
      "inputs": [],
      "outputs": [],
      "stateMutability": "nonpayable"
    },
    {
      "type": "function",
      "name": "updateChainConfigAddress",
      "inputs": [
        {
          "name": "chainConfigAddress_",
          "type": "address",
          "internalType": "address"
        }
      ],
      "outputs": [],
      "stateMutability": "nonpayable"
    },
    {
      "type": "function",
      "name": "updateValidator",
      "inputs": [
        {
          "name": "_poolId",
          "type": "bytes32",
          "internalType": "bytes32"
        },
        {
          "name": "_description",
          "type": "string",
          "internalType": "string"
        },
        {
          "name": "_endpoint",
          "type": "string",
          "internalType": "string"
        }
      ],
      "outputs": [],
      "stateMutability": "nonpayable"
    },
    {
      "type": "function",
      "name": "upgradeToAndCall",
      "inputs": [
        {
          "name": "newImplementation",
          "type": "address",
          "internalType": "address"
        },
        {
          "name": "data",
          "type": "bytes",
          "internalType": "bytes"
        }
      ],
      "outputs": [],
      "stateMutability": "payable"
    },
    {
      "type": "function",
      "name": "userUndelegationHead",
      "inputs": [
        {
          "name": "delegator",
          "type": "address",
          "internalType": "address"
        }
      ],
      "outputs": [
        {
          "name": "headPosition",
          "type": "uint256",
          "internalType": "uint256"
        }
      ],
      "stateMutability": "view"
    },
    {
      "type": "function",
      "name": "userUndelegationIndices",
      "inputs": [
        {
          "name": "delegator",
          "type": "address",
          "internalType": "address"
        },
        {
          "name": "",
          "type": "uint256",
          "internalType": "uint256"
        }
      ],
      "outputs": [
        {
          "name": "undelegationIndices",
          "type": "uint256",
          "internalType": "uint256"
        }
      ],
      "stateMutability": "view"
    },
    {
      "type": "function",
      "name": "v1ToV2Migrated",
      "inputs": [],
      "outputs": [
        {
          "name": "",
          "type": "bool",
          "internalType": "bool"
        }
      ],
      "stateMutability": "view"
    },
    {
      "type": "function",
      "name": "validatorWhitelists",
      "inputs": [
        {
          "name": "poolId",
          "type": "bytes32",
          "internalType": "bytes32"
        },
        {
          "name": "delegator",
          "type": "address",
          "internalType": "address"
        }
      ],
      "outputs": [
        {
          "name": "isWhitelisted",
          "type": "bool",
          "internalType": "bool"
        }
      ],
      "stateMutability": "view"
    },
    {
      "type": "function",
      "name": "validators",
      "inputs": [
        {
          "name": "poolId",
          "type": "bytes32",
          "internalType": "bytes32"
        }
      ],
      "outputs": [
        {
          "name": "description",
          "type": "string",
          "internalType": "string"
        },
        {
          "name": "publicKey",
          "type": "string",
          "internalType": "string"
        },
        {
          "name": "publicKeyPop",
          "type": "string",
          "internalType": "string"
        },
        {
          "name": "blsPublicKey",
          "type": "string",
          "internalType": "string"
        },
        {
          "name": "blsPublicKeyPop",
          "type": "string",
          "internalType": "string"
        },
        {
          "name": "endpoint",
          "type": "string",
          "internalType": "string"
        },
        {
          "name": "status",
          "type": "uint8",
          "internalType": "uint8"
        },
        {
          "name": "poolId",
          "type": "bytes32",
          "internalType": "bytes32"
        },
        {
          "name": "totalStake",
          "type": "uint256",
          "internalType": "uint256"
        },
        {
          "name": "owner",
          "type": "address",
          "internalType": "address"
        },
        {
          "name": "stakeSnapshot",
          "type": "uint256",
          "internalType": "uint256"
        },
        {
          "name": "pendingWithdrawStake",
          "type": "uint256",
          "internalType": "uint256"
        },
        {
          "name": "pendingWithdrawWindow",
          "type": "uint8",
          "internalType": "uint8"
        },
        {
          "name": "pendingOwner",
          "type": "address",
          "internalType": "address"
        }
      ],
      "stateMutability": "view"
    },
    {
      "type": "function",
      "name": "withdrawStake",
      "inputs": [
        {
          "name": "_poolId",
          "type": "bytes32",
          "internalType": "bytes32"
        },
        {
          "name": "_withdrawStake",
          "type": "uint256",
          "internalType": "uint256"
        }
      ],
      "outputs": [],
      "stateMutability": "nonpayable"
    },
    {
      "type": "event",
      "name": "ChainConfigUpdate",
      "inputs": [
        {
          "name": "oldChainConfigAddress",
          "type": "address",
          "indexed": true,
          "internalType": "address"
        },
        {
          "name": "newChainConfigAddress",
          "type": "address",
          "indexed": true,
          "internalType": "address"
        }
      ],
      "anonymous": false
    },
    {
      "type": "event",
      "name": "CoinMinted",
      "inputs": [
        {
          "name": "beneficiary",
          "type": "address",
          "indexed": true,
          "internalType": "address"
        },
        {
          "name": "reason",
          "type": "uint8",
          "indexed": true,
          "internalType": "uint8"
        },
        {
          "name": "amount",
          "type": "uint256",
          "indexed": false,
          "internalType": "uint256"
        }
      ],
      "anonymous": false
    },
    {
      "type": "event",
      "name": "CommissionRateChanged",
      "inputs": [
        {
          "name": "poolId",
          "type": "bytes32",
          "indexed": true,
          "internalType": "bytes32"
        },
        {
          "name": "oldRate",
          "type": "uint256",
          "indexed": false,
          "internalType": "uint256"
        },
        {
          "name": "newRate",
          "type": "uint256",
          "indexed": false,
          "internalType": "uint256"
        }
      ],
      "anonymous": false
    },
    {
      "type": "event",
      "name": "DelegatorWithdrawClaimed",
      "inputs": [
        {
          "name": "delegator",
          "type": "address",
          "indexed": true,
          "internalType": "address"
        },
        {
          "name": "poolId",
          "type": "bytes32",
          "indexed": true,
          "internalType": "bytes32"
        },
        {
          "name": "amount",
          "type": "uint256",
          "indexed": false,
          "internalType": "uint256"
        },
        {
          "name": "epochNumber",
          "type": "uint256",
          "indexed": true,
          "internalType": "uint256"
        }
      ],
      "anonymous": false
    },
    {
      "type": "event",
      "name": "DomainUpdate",
      "inputs": [
        {
          "name": "poolId",
          "type": "bytes32",
          "indexed": true,
          "internalType": "bytes32"
        },
        {
          "name": "description",
          "type": "string",
          "indexed": false,
          "internalType": "string"
        },
        {
          "name": "publicKey",
          "type": "string",
          "indexed": false,
          "internalType": "string"
        },
        {
          "name": "blsPublicKey",
          "type": "string",
          "indexed": false,
          "internalType": "string"
        },
        {
          "name": "endpoint",
          "type": "string",
          "indexed": false,
          "internalType": "string"
        },
        {
          "name": "effectiveBlockNum",
          "type": "uint64",
          "indexed": false,
          "internalType": "uint64"
        },
        {
          "name": "status",
          "type": "uint8",
          "indexed": false,
          "internalType": "uint8"
        }
      ],
      "anonymous": false
    },
    {
      "type": "event",
      "name": "EpochChange",
      "inputs": [
        {
          "name": "epochNumber",
          "type": "uint256",
          "indexed": true,
          "internalType": "uint256"
        },
        {
          "name": "blockNumber",
          "type": "uint256",
          "indexed": true,
          "internalType": "uint256"
        },
        {
          "name": "timestamp",
          "type": "uint256",
          "indexed": false,
          "internalType": "uint256"
        },
        {
          "name": "totalStake",
          "type": "uint256",
          "indexed": false,
          "internalType": "uint256"
        },
        {
          "name": "activeValidators",
          "type": "bytes32[]",
          "indexed": false,
          "internalType": "bytes32[]"
        }
      ],
      "anonymous": false
    },
    {
      "type": "event",
      "name": "ErrorOccurred",
      "inputs": [
        {
          "name": "epochNumber",
          "type": "uint256",
          "indexed": true,
          "internalType": "uint256"
        },
        {
          "name": "blockNumber",
          "type": "uint256",
          "indexed": true,
          "internalType": "uint256"
        },
        {
          "name": "errorCode",
          "type": "uint256",
          "indexed": false,
          "internalType": "uint256"
        },
        {
          "name": "recipient",
          "type": "address",
          "indexed": false,
          "internalType": "address"
        },
        {
          "name": "amount",
          "type": "uint256",
          "indexed": false,
          "internalType": "uint256"
        },
        {
          "name": "balance",
          "type": "uint256",
          "indexed": false,
          "internalType": "uint256"
        }
      ],
      "anonymous": false
    },
    {
      "type": "event",
      "name": "InflationRateAdjusted",
      "inputs": [
        {
          "name": "oldRate",
          "type": "uint256",
          "indexed": false,
          "internalType": "uint256"
        },
        {
          "name": "newRate",
          "type": "uint256",
          "indexed": false,
          "internalType": "uint256"
        },
        {
          "name": "timestamp",
          "type": "uint256",
          "indexed": false,
          "internalType": "uint256"
        }
      ],
      "anonymous": false
    },
    {
      "type": "event",
      "name": "Initialized",
      "inputs": [
        {
          "name": "version",
          "type": "uint64",
          "indexed": false,
          "internalType": "uint64"
        }
      ],
      "anonymous": false
    },
    {
      "type": "event",
      "name": "OwnerNominated",
      "inputs": [
        {
          "name": "poolId",
          "type": "bytes32",
          "indexed": true,
          "internalType": "bytes32"
        },
        {
          "name": "currentOwner",
          "type": "address",
          "indexed": true,
          "internalType": "address"
        },
        {
          "name": "pendingOwner",
          "type": "address",
          "indexed": true,
          "internalType": "address"
        }
      ],
      "anonymous": false
    },
    {
      "type": "event",
      "name": "OwnershipTransferred",
      "inputs": [
        {
          "name": "poolId",
          "type": "bytes32",
          "indexed": true,
          "internalType": "bytes32"
        },
        {
          "name": "newOwner",
          "type": "address",
          "indexed": true,
          "internalType": "address"
        },
        {
          "name": "previousOwner",
          "type": "address",
          "indexed": true,
          "internalType": "address"
        }
      ],
      "anonymous": false
    },
    {
      "type": "event",
      "name": "Paused",
      "inputs": [
        {
          "name": "account",
          "type": "address",
          "indexed": false,
          "internalType": "address"
        }
      ],
      "anonymous": false
    },
    {
      "type": "event",
      "name": "RewardClaimed",
      "inputs": [
        {
          "name": "delegator",
          "type": "address",
          "indexed": true,
          "internalType": "address"
        },
        {
          "name": "poolId",
          "type": "bytes32",
          "indexed": true,
          "internalType": "bytes32"
        },
        {
          "name": "amount",
          "type": "uint256",
          "indexed": false,
          "internalType": "uint256"
        }
      ],
      "anonymous": false
    },
    {
      "type": "event",
      "name": "RewardsCompounded",
      "inputs": [
        {
          "name": "delegator",
          "type": "address",
          "indexed": true,
          "internalType": "address"
        },
        {
          "name": "poolId",
          "type": "bytes32",
          "indexed": true,
          "internalType": "bytes32"
        },
        {
          "name": "amount",
          "type": "uint256",
          "indexed": false,
          "internalType": "uint256"
        }
      ],
      "anonymous": false
    },
    {
      "type": "event",
      "name": "RoleAdminChanged",
      "inputs": [
        {
          "name": "role",
          "type": "bytes32",
          "indexed": true,
          "internalType": "bytes32"
        },
        {
          "name": "previousAdminRole",
          "type": "bytes32",
          "indexed": true,
          "internalType": "bytes32"
        },
        {
          "name": "newAdminRole",
          "type": "bytes32",
          "indexed": true,
          "internalType": "bytes32"
        }
      ],
      "anonymous": false
    },
    {
      "type": "event",
      "name": "RoleGranted",
      "inputs": [
        {
          "name": "role",
          "type": "bytes32",
          "indexed": true,
          "internalType": "bytes32"
        },
        {
          "name": "account",
          "type": "address",
          "indexed": true,
          "internalType": "address"
        },
        {
          "name": "sender",
          "type": "address",
          "indexed": true,
          "internalType": "address"
        }
      ],
      "anonymous": false
    },
    {
      "type": "event",
      "name": "RoleRevoked",
      "inputs": [
        {
          "name": "role",
          "type": "bytes32",
          "indexed": true,
          "internalType": "bytes32"
        },
        {
          "name": "account",
          "type": "address",
          "indexed": true,
          "internalType": "address"
        },
        {
          "name": "sender",
          "type": "address",
          "indexed": true,
          "internalType": "address"
        }
      ],
      "anonymous": false
    },
    {
      "type": "event",
      "name": "StakeAdded",
      "inputs": [
        {
          "name": "delegator",
          "type": "address",
          "indexed": true,
          "internalType": "address"
        },
        {
          "name": "poolId",
          "type": "bytes32",
          "indexed": true,
          "internalType": "bytes32"
        },
        {
          "name": "amount",
          "type": "uint256",
          "indexed": false,
          "internalType": "uint256"
        }
      ],
      "anonymous": false
    },
    {
      "type": "event",
      "name": "StakeCancelled",
      "inputs": [
        {
          "name": "delegator",
          "type": "address",
          "indexed": true,
          "internalType": "address"
        },
        {
          "name": "poolId",
          "type": "bytes32",
          "indexed": true,
          "internalType": "bytes32"
        },
        {
          "name": "amount",
          "type": "uint256",
          "indexed": false,
          "internalType": "uint256"
        },
        {
          "name": "epochNumber",
          "type": "uint256",
          "indexed": true,
          "internalType": "uint256"
        }
      ],
      "anonymous": false
    },
    {
      "type": "event",
      "name": "StakeClaimed",
      "inputs": [
        {
          "name": "user",
          "type": "address",
          "indexed": true,
          "internalType": "address"
        },
        {
          "name": "amount",
          "type": "uint256",
          "indexed": false,
          "internalType": "uint256"
        }
      ],
      "anonymous": false
    },
    {
      "type": "event",
      "name": "StakeDelegated",
      "inputs": [
        {
          "name": "delegator",
          "type": "address",
          "indexed": true,
          "internalType": "address"
        },
        {
          "name": "poolId",
          "type": "bytes32",
          "indexed": true,
          "internalType": "bytes32"
        },
        {
          "name": "amount",
          "type": "uint256",
          "indexed": false,
          "internalType": "uint256"
        },
        {
          "name": "effectiveEpoch",
          "type": "uint256",
          "indexed": false,
          "internalType": "uint256"
        }
      ],
      "anonymous": false
    },
    {
      "type": "event",
      "name": "StakeUndelegated",
      "inputs": [
        {
          "name": "delegator",
          "type": "address",
          "indexed": true,
          "internalType": "address"
        },
        {
          "name": "poolId",
          "type": "bytes32",
          "indexed": true,
          "internalType": "bytes32"
        },
        {
          "name": "amount",
          "type": "uint256",
          "indexed": false,
          "internalType": "uint256"
        },
        {
          "name": "unlockEpoch",
          "type": "uint256",
          "indexed": false,
          "internalType": "uint256"
        }
      ],
      "anonymous": false
    },
    {
      "type": "event",
      "name": "TotalSupplyIncreased",
      "inputs": [
        {
          "name": "epochNumber",
          "type": "uint256",
          "indexed": true,
          "internalType": "uint256"
        },
        {
          "name": "amount",
          "type": "uint256",
          "indexed": false,
          "internalType": "uint256"
        },
        {
          "name": "newTotalSupply",
          "type": "uint256",
          "indexed": false,
          "internalType": "uint256"
        }
      ],
      "anonymous": false
    },
    {
      "type": "event",
      "name": "Unpaused",
      "inputs": [
        {
          "name": "account",
          "type": "address",
          "indexed": false,
          "internalType": "address"
        }
      ],
      "anonymous": false
    },
    {
      "type": "event",
      "name": "Upgraded",
      "inputs": [
        {
          "name": "implementation",
          "type": "address",
          "indexed": true,
          "internalType": "address"
        }
      ],
      "anonymous": false
    },
    {
      "type": "event",
      "name": "ValidatorExitRequested",
      "inputs": [
        {
          "name": "poolId",
          "type": "bytes32",
          "indexed": true,
          "internalType": "bytes32"
        }
      ],
      "anonymous": false
    },
    {
      "type": "event",
      "name": "ValidatorRegistered",
      "inputs": [
        {
          "name": "validator",
          "type": "address",
          "indexed": true,
          "internalType": "address"
        },
        {
          "name": "poolId",
          "type": "bytes32",
          "indexed": true,
          "internalType": "bytes32"
        },
        {
          "name": "amount",
          "type": "uint256",
          "indexed": false,
          "internalType": "uint256"
        }
      ],
      "anonymous": false
    },
    {
      "type": "event",
      "name": "ValidatorReward",
      "inputs": [
        {
          "name": "poolId",
          "type": "bytes32",
          "indexed": true,
          "internalType": "bytes32"
        },
        {
          "name": "owner",
          "type": "address",
          "indexed": true,
          "internalType": "address"
        },
        {
          "name": "epochNumber",
          "type": "uint256",
          "indexed": true,
          "internalType": "uint256"
        },
        {
          "name": "blockNumber",
          "type": "uint256",
          "indexed": false,
          "internalType": "uint256"
        },
        {
          "name": "baseReward",
          "type": "uint256",
          "indexed": false,
          "internalType": "uint256"
        },
        {
          "name": "feeReward",
          "type": "uint256",
          "indexed": false,
          "internalType": "uint256"
        },
        {
          "name": "totalReward",
          "type": "uint256",
          "indexed": false,
          "internalType": "uint256"
        }
      ],
      "anonymous": false
    },
    {
      "type": "event",
      "name": "ValidatorUpdated",
      "inputs": [
        {
          "name": "poolId",
          "type": "bytes32",
          "indexed": true,
          "internalType": "bytes32"
        }
      ],
      "anonymous": false
    },
    {
      "type": "error",
      "name": "AccessControlBadConfirmation",
      "inputs": []
    },
    {
      "type": "error",
      "name": "AccessControlUnauthorizedAccount",
      "inputs": [
        {
          "name": "account",
          "type": "address",
          "internalType": "address"
        },
        {
          "name": "neededRole",
          "type": "bytes32",
          "internalType": "bytes32"
        }
      ]
    },
    {
      "type": "error",
      "name": "AddressEmptyCode",
      "inputs": [
        {
          "name": "target",
          "type": "address",
          "internalType": "address"
        }
      ]
    },
    {
      "type": "error",
      "name": "ERC1967InvalidImplementation",
      "inputs": [
        {
          "name": "implementation",
          "type": "address",
          "internalType": "address"
        }
      ]
    },
    {
      "type": "error",
      "name": "ERC1967NonPayable",
      "inputs": []
    },
    {
      "type": "error",
      "name": "EnforcedPause",
      "inputs": []
    },
    {
      "type": "error",
      "name": "EpochNotCompleted",
      "inputs": [
        {
          "name": "lastEpochStart",
          "type": "uint256",
          "internalType": "uint256"
        },
        {
          "name": "epochDuration",
          "type": "uint256",
          "internalType": "uint256"
        },
        {
          "name": "currentTime",
          "type": "uint256",
          "internalType": "uint256"
        }
      ]
    },
    {
      "type": "error",
      "name": "ExpectedPause",
      "inputs": []
    },
    {
      "type": "error",
      "name": "FailedCall",
      "inputs": []
    },
    {
      "type": "error",
      "name": "InvalidInitialization",
      "inputs": []
    },
    {
      "type": "error",
      "name": "NotInitializing",
      "inputs": []
    },
    {
      "type": "error",
      "name": "ReentrancyGuardReentrantCall",
      "inputs": []
    },
    {
      "type": "error",
      "name": "SafeCastOverflowedUintDowncast",
      "inputs": [
        {
          "name": "bits",
          "type": "uint8",
          "internalType": "uint8"
        },
        {
          "name": "value",
          "type": "uint256",
          "internalType": "uint256"
        }
      ]
    },
    {
      "type": "error",
      "name": "StringsInvalidChar",
      "inputs": []
    },
    {
      "type": "error",
      "name": "UUPSUnauthorizedCallContext",
      "inputs": []
    },
    {
      "type": "error",
      "name": "UUPSUnsupportedProxiableUUID",
      "inputs": [
        {
          "name": "slot",
          "type": "bytes32",
          "internalType": "bytes32"
        }
      ]
    }
  ],
  "bytecode": {
    "object": "0x60a0604052346100305761001161003f565b610019610035565b62012ce362000108823960805181505062012ce390f35b61003b565b60405190565b5f80fd5b610047610049565b565b610051610053565b565b61005b61005d565b565b610065610067565b565b61006f610071565b565b61007961007b565b565b610083610085565b565b61008d61008f565b565b610097610099565b565b6100a16100a3565b565b6100ab6100ad565b565b6100b56100f9565b565b60018060a01b031690565b90565b6100d96100d46100de926100b7565b6100c2565b6100b7565b90565b6100ea906100c5565b90565b6100f6906100e1565b90565b610102306100ed565b60805256fe6080604052600436101562000015575b6200434a565b620000215f3562000794565b806301ffc9a7146200078e57806302778a831462000788578063031e7f5d14620007825780630457dad2146200077c5780630e8601fc14620007765780630f95257314620007705780630fbccaae146200076a578063104b1a2914620007645780631576f03b146200075e57806318160ddd146200075857806319dc571614620007525780631a30c776146200074c5780631b4f6c4614620007465780631e4e009114620007405780631f9c324e146200073a578063207239c0146200073457806321b3917e146200072e5780632324e5e11462000728578063248a9ca3146200072257806325667b3b146200071c5780632cc0b49c14620007165780632f2ff15d146200071057806336568abe146200070a578063375d87ee146200070457806337deea7014620006fe5780633a6d6bae14620006f85780633cd57a0614620006f25780633cf80e6c14620006ec5780633ebb52ec14620006e65780633f4ba83a14620006e05780634007c5ad14620006da578063419b87bf14620006d457806343191b6c14620006ce578063483bb60114620006c8578063485cc95514620006c25780634e3266e314620006bc5780634f1ef28614620006b657806352d1902d14620006b0578063568735b014620006aa57806358333db714620006a45780635bdd5d0b146200069e5780635c975abb14620006985780635e8f90c91462000692578063600fc734146200068c57806362e9bc1c146200068657806362ed5f4e146200068057806363a33a97146200067a57806366b54522146200067457806366da754b146200066e578063674602e914620006685780636b2f9def14620006625780636d6f0d84146200065c5780636e73ba5b146200065657806370ad279014620006505780637311ad81146200064a5780637351273414620006445780637404f1e1146200063e5780637667180814620006385780637ba0499214620006325780638456cb59146200062c5780638482a439146200062657806386edecdc1462000620578063893dfe68146200061a5780638b0e9f3f14620006145780638f493ae0146200060e57806391d14854146200060857806395d6e00f14620006025780639b0dc6ce14620005fc5780639b4aae6614620005f65780639bdafcb314620005f05780639de7025814620005ea578063a15050cc14620005e4578063a217fddf14620005de578063a563c3d514620005d8578063a5bd827914620005d2578063aaf5eb6814620005cc578063ad3cb1cc14620005c6578063ae631b7c14620005c0578063aef30a1814620005ba578063b1f66e1314620005b4578063b8db983e14620005ae578063bb81cbf314620005a8578063c04fcad814620005a2578063c0ef4e13146200059c578063c2fb291a1462000596578063c3254c231462000590578063c7c39bcb146200058a578063cc8964df1462000584578063ceb29963146200057e578063d142205f1462000578578063d3c265811462000572578063d53a0f9c146200056c578063d547741f1462000566578063d5f20ff61462000560578063d6b5f87f146200055a578063d93b1a4f1462000554578063db59539c146200054e578063e265bca11462000548578063e61da2031462000542578063e749a90a146200053c578063f03f00311462000536578063f3513a371462000530578063f40bd6f4146200052a578063f54140231462000524578063fab7de7f146200051e5763fc2e6398036200000f5762004306565b62004281565b62004231565b620041ee565b62004177565b62004138565b620040f9565b620040a9565b6200406c565b6200402c565b62003fee565b62003ea1565b62003e1e565b62003c42565b62003c03565b62003bb2565b62003a65565b620039e3565b6200394d565b6200390e565b6200389a565b6200385b565b6200381c565b6200377c565b620036f1565b62003695565b62003637565b62003591565b62003535565b620034b5565b620033d6565b62003374565b620031e3565b62003193565b6200310f565b620030d0565b6200307e565b62002c5e565b62002c1e565b62002be0565b62002ba0565b62002b5e565b62002b1f565b62002acf565b62002a5e565b62002a1f565b620029c5565b62002988565b62002949565b620028fe565b620027b4565b62002775565b6200271d565b62002684565b62002603565b620025c5565b62002486565b620023fa565b620023bb565b6200237b565b620022ff565b620022c0565b62002249565b6200220a565b620021cb565b6200218d565b62002144565b62001f3b565b62001eb2565b62001e80565b62001cf2565b62001c71565b62001bff565b62001b8c565b62001a89565b620019f5565b620019b8565b6200197b565b6200193e565b620018f4565b620016e6565b620015cb565b6200158c565b6200150b565b620014cd565b6200148d565b62001418565b62001349565b6200130a565b620012cd565b6200128e565b6200120d565b6200119c565b6200112c565b620010cb565b62000fdc565b62000f9d565b62000f1c565b62000d78565b62000c40565b62000bbf565b62000b38565b62000ab7565b620009be565b620008f4565b6200082d565b60e01c90565b60405190565b5f80fd5b5f80fd5b5f80fd5b63ffffffff60e01b1690565b620007c381620007ac565b03620007cb57565b5f80fd5b90503590620007de82620007b8565b565b90602082820312620007fc57620007f9915f01620007cf565b90565b620007a4565b151590565b620008129062000802565b9052565b91906200082b905f6020850194019062000807565b565b346200086657620008626200084e62000848366004620007e0565b62004352565b620008586200079a565b9182918262000816565b0390f35b620007a0565b5f9103126200087757565b620007a4565b90565b90565b90565b6200089f62000899620008a5926200087d565b62000883565b62000880565b90565b620008be6a295be96e6406697200000062000886565b90565b620008cb620008a8565b90565b620008d99062000880565b9052565b9190620008f2905f60208501940190620008ce565b565b346200092d57620009073660046200086c565b6200092962000915620008c1565b6200091f6200079a565b91829182620008dd565b0390f35b620007a0565b90565b620009418162000933565b036200094957565b5f80fd5b905035906200095c8262000936565b565b620009698162000880565b036200097157565b5f80fd5b9050359062000984826200095e565b565b9190604083820312620009b35780620009a6620009b0925f86016200094d565b9360200162000975565b90565b620007a4565b5f0190565b34620009f657620009dc620009d536600462000986565b90620048dc565b620009e66200079a565b80620009f281620009b9565b0390f35b620007a0565b1c90565b60018060a01b031690565b62000a1e90600862000a249302620009fc565b62000a00565b90565b9062000a34915462000a0b565b90565b62000a4560075f9062000a27565b90565b60018060a01b031690565b62000a6c62000a6662000a729262000a48565b62000883565b62000a48565b90565b62000a809062000a53565b90565b62000a8e9062000a75565b90565b62000a9c9062000a83565b9052565b919062000ab5905f6020850194019062000a91565b565b3462000af05762000aca3660046200086c565b62000aec62000ad862000a37565b62000ae26200079a565b9182918262000aa0565b0390f35b620007a0565b90565b62000b1262000b0c62000b189262000af6565b62000883565b62000880565b90565b62000b286123a562000af9565b90565b62000b3562000b1b565b90565b3462000b715762000b4b3660046200086c565b62000b6d62000b5962000b2b565b62000b636200079a565b91829182620008dd565b0390f35b620007a0565b90565b62000b9362000b8d62000b999262000b77565b62000883565b62000880565b90565b62000baf670de0b6b3a764000062000b7a565b90565b62000bbc62000b9c565b90565b3462000bf85762000bd23660046200086c565b62000bf462000be062000bb2565b62000bea6200079a565b91829182620008dd565b0390f35b620007a0565b90565b62000c1a62000c1462000c209262000bfe565b62000883565b62000880565b90565b62000c3061095762000c01565b90565b62000c3d62000c23565b90565b3462000c795762000c533660046200086c565b62000c7562000c6162000c33565b62000c6b6200079a565b91829182620008dd565b0390f35b620007a0565b9060208282031262000c9b5762000c98915f0162000975565b90565b620007a4565b634e487b7160e01b5f52603260045260245ffd5b5490565b5f5260205f2090565b62000ccd8162000cb5565b82101562000cea5762000ce260019162000cb9565b910201905f90565b62000ca1565b90565b62000d0690600862000d0c9302620009fc565b62000cf0565b90565b9062000d1c915462000cf3565b90565b600262000d2c8162000cb5565b82101562000d4e5762000d4b9162000d449162000cc2565b9062000d0f565b90565b5f80fd5b62000d5d9062000933565b9052565b919062000d76905f6020850194019062000d52565b565b3462000db15762000dad62000d9962000d9336600462000c7f565b62000d1f565b62000da36200079a565b9182918262000d61565b0390f35b620007a0565b5f80fd5b5f80fd5b5f80fd5b909182601f8301121562000e025781359167ffffffffffffffff831162000dfc57602001926020830284011162000df657565b62000dbf565b62000dbb565b62000db7565b91909160408184031262000e505762000e24835f830162000975565b92602082013567ffffffffffffffff811162000e4a5762000e46920162000dc3565b9091565b620007a8565b620007a4565b5190565b60209181520190565b60200190565b62000e749062000880565b9052565b9062000e878160209362000e69565b0190565b60200190565b9062000eb462000ead62000ea58462000e56565b809362000e5a565b9262000e63565b905f5b81811062000ec55750505090565b90919262000ee262000edb600192865162000e78565b9462000e8b565b910191909162000eb7565b909162000f0a62000f199360408401908482035f86015262000e91565b91602081840391015262000e91565b90565b3462000f575762000f3a62000f3336600462000e08565b9162004a2c565b9062000f5362000f496200079a565b9283928362000eed565b0390f35b620007a0565b90565b62000f7390600862000f799302620009fc565b62000f5d565b90565b9062000f89915462000f60565b90565b62000f9a60095f9062000f7c565b90565b3462000fd65762000fb03660046200086c565b62000fd262000fbe62000f8c565b62000fc86200079a565b91829182620008dd565b0390f35b620007a0565b34620010145762000ffa62000ff336600462000986565b9062005b7f565b620010046200079a565b806200101081620009b9565b0390f35b620007a0565b5190565b60209181520190565b60200190565b620010389062000933565b9052565b906200104b816020936200102d565b0190565b60200190565b90620010786200107162001069846200101a565b80936200101e565b9262001027565b905f5b818110620010895750505090565b909192620010a66200109f60019286516200103c565b946200104f565b91019190916200107b565b620010c89160208201915f81840391015262001055565b90565b346200110457620010de3660046200086c565b62001100620010ec62005b92565b620010f66200079a565b91829182620010b1565b0390f35b620007a0565b90602082820312620011265762001123915f016200094d565b90565b620007a4565b34620011635762001149620011433660046200110a565b62005f2f565b620011536200079a565b806200115f81620009b9565b0390f35b620007a0565b91906040838203126200119657806200118962001193925f86016200094d565b936020016200094d565b90565b620007a4565b34620011d457620011ba620011b336600462001169565b9062005f6c565b620011c46200079a565b80620011d081620009b9565b0390f35b620007a0565b6001620011e78162000cb5565b82101562001209576200120691620011ff9162000cc2565b9062000d0f565b90565b5f80fd5b346200124657620012426200122e6200122836600462000c7f565b620011da565b620012386200079a565b9182918262000d61565b0390f35b620007a0565b90565b62001268620012626200126e926200124c565b62000883565b62000880565b90565b6200127e6107d06200124f565b90565b6200128b62001271565b90565b34620012c757620012a13660046200086c565b620012c3620012af62001281565b620012b96200079a565b91829182620008dd565b0390f35b620007a0565b346200130457620012e03660046200086c565b620012ea6200664f565b620012f46200079a565b806200130081620009b9565b0390f35b620007a0565b3462001343576200133f6200132b620013253660046200110a565b62006690565b620013356200079a565b9182918262000816565b0390f35b620007a0565b3462001382576200137e6200136a620013643660046200110a565b620066c0565b620013746200079a565b9182918262000d61565b0390f35b620007a0565b620013939062000a48565b90565b620013a18162001388565b03620013a957565b5f80fd5b90503590620013bc8262001396565b565b90602082820312620013da57620013d7915f01620013ad565b90565b620007a4565b6040906200140e6200141694969593966200140360608401985f850190620008ce565b6020830190620008ce565b0190620008ce565b565b346200145457620014506200143962001433366004620013be565b6200681c565b620014469391936200079a565b93849384620013e0565b0390f35b620007a0565b91906040838203126200148757806200147a62001484925f86016200094d565b93602001620013ad565b90565b620007a4565b34620014c757620014c3620014af620014a83660046200145a565b906200699b565b620014b96200079a565b91829182620008dd565b0390f35b620007a0565b346200150557620014eb620014e43660046200145a565b9062006ad8565b620014f56200079a565b806200150181620009b9565b0390f35b620007a0565b34620015435762001529620015223660046200145a565b9062006ae6565b620015336200079a565b806200153f81620009b9565b0390f35b620007a0565b620015549062000a75565b90565b90620015639062001549565b5f5260205260405f2090565b6200158990620015836008915f9262001557565b62000f7c565b90565b34620015c557620015c1620015ad620015a7366004620013be565b6200156f565b620015b76200079a565b91829182620008dd565b0390f35b620007a0565b346200160457620015de3660046200086c565b62001600620015ec62006b39565b620015f66200079a565b91829182620008dd565b0390f35b620007a0565b620016159062000802565b9052565b9061010080620016cc93620016355f8201515f86019062000e69565b620016496020820151602086019062000e69565b6200165d6040820151604086019062000e69565b620016716060820151606086019062000e69565b620016856080820151608086019062000e69565b6200169960a082015160a086019062000e69565b620016ad60c082015160c086019062000e69565b620016c160e082015160e086019062000e69565b01519101906200160a565b565b9190620016e4905f610120850194019062001619565b565b3462001720576200171c62001708620017013660046200145a565b9062006c00565b620017126200079a565b91829182620016ce565b0390f35b620007a0565b620017319062000933565b90565b90620017409062001726565b5f5260205260405f2090565b90620017589062001549565b5f5260205260405f2090565b5f1c90565b620017786200177e9162001764565b62000f5d565b90565b6200178d905462001769565b90565b60ff1690565b620017a5620017ab9162001764565b62001790565b90565b620017ba905462001796565b90565b90620017cf620017d592600e62001734565b6200174c565b620017e25f820162001781565b91620017f16001830162001781565b91620018006002820162001781565b916200180f6003830162001781565b916200181e6004820162001781565b916200182d6005830162001781565b916200183c6006820162001781565b91620018596008620018516007850162001781565b9301620017ae565b90565b9694929099989795939161012088019a5f89016200187a91620008ce565b602088016200188991620008ce565b604087016200189891620008ce565b60608601620018a791620008ce565b60808501620018b691620008ce565b60a08401620018c591620008ce565b60c08301620018d491620008ce565b60e08201620018e391620008ce565b61010001620018f29162000807565b565b34620019385762001934620019166200190f3660046200145a565b90620017bd565b956200192a9997999591959492946200079a565b998a998a6200185c565b0390f35b620007a0565b346200197557620019513660046200086c565b6200195b62006cea565b620019656200079a565b806200197181620009b9565b0390f35b620007a0565b34620019b25762001998620019923660046200110a565b620073f9565b620019a26200079a565b80620019ae81620009b9565b0390f35b620007a0565b34620019ef57620019cb3660046200086c565b620019d562007432565b620019df6200079a565b80620019eb81620009b9565b0390f35b620007a0565b3462001a2c5762001a1262001a0c3660046200110a565b62007b79565b62001a1c6200079a565b8062001a2881620009b9565b0390f35b620007a0565b62001a4b62001a4562001a519262000880565b62000883565b62000880565b90565b9062001a609062001a32565b5f5260205260405f2090565b62001a869062001a806021915f9262001a54565b62000f7c565b90565b3462001ac25762001abe62001aaa62001aa436600462000c7f565b62001a6c565b62001ab46200079a565b91829182620008dd565b0390f35b620007a0565b919060408382031262001af5578062001ae862001af2925f8601620013ad565b9360200162000975565b90565b620007a4565b9062001b079062001549565b5f5260205260405f2090565b5490565b5f5260205f2090565b62001b2b8162001b13565b82101562001b485762001b4060019162001b17565b910201905f90565b62000ca1565b62001b5b90601f62001afb565b62001b668162001b13565b82101562001b885762001b859162001b7e9162001b20565b9062000f7c565b90565b5f80fd5b3462001bc65762001bc262001bae62001ba736600462001ac8565b9062001b4e565b62001bb86200079a565b91829182620008dd565b0390f35b620007a0565b600362001bd98162000cb5565b82101562001bfb5762001bf89162001bf19162000cc2565b9062000d0f565b90565b5f80fd5b3462001c385762001c3462001c2062001c1a36600462000c7f565b62001bcc565b62001c2a6200079a565b9182918262000d61565b0390f35b620007a0565b919060408382031262001c6b578062001c5e62001c68925f8601620013ad565b93602001620013ad565b90565b620007a4565b3462001ca95762001c8f62001c8836600462001c3e565b9062008155565b62001c996200079a565b8062001ca581620009b9565b0390f35b620007a0565b9162001ce09062001cd162001cef959360608601908682035f88015262001055565b90848203602086015262000e91565b91604081840391015262000e91565b90565b3462001d2e5762001d2a62001d1362001d0d366004620013be565b62008163565b62001d209391936200079a565b9384938462001caf565b0390f35b620007a0565b5f80fd5b601f801991011690565b634e487b7160e01b5f52604160045260245ffd5b9062001d629062001d38565b810190811067ffffffffffffffff82111762001d7d57604052565b62001d42565b9062001d9a62001d926200079a565b928362001d56565b565b67ffffffffffffffff811162001dbd5762001db960209162001d38565b0190565b62001d42565b90825f939282370152565b9092919262001de762001de18262001d9c565b62001d83565b9381855260208501908284011162001e065762001e049262001dc3565b565b62001d34565b9080601f8301121562001e2d5781602062001e2a9335910162001dce565b90565b62000db7565b91909160408184031262001e7a5762001e4f835f8301620013ad565b92602082013567ffffffffffffffff811162001e745762001e71920162001e0c565b90565b620007a8565b620007a4565b62001e9862001e9136600462001e33565b906200846f565b62001ea26200079a565b8062001eae81620009b9565b0390f35b3462001eeb5762001ec53660046200086c565b62001ee762001ed3620084f6565b62001edd6200079a565b9182918262000d61565b0390f35b620007a0565b90565b62001f0d62001f0762001f139262001ef1565b62000883565b62000880565b90565b62001f2b69d3c21bcecceda100000062001ef4565b90565b62001f3862001f16565b90565b3462001f745762001f4e3660046200086c565b62001f7062001f5c62001f2e565b62001f666200079a565b91829182620008dd565b0390f35b620007a0565b5490565b5f5260205f2090565b62001f928162001f7a565b82101562001faf5762001fa760089162001f7e565b910201905f90565b62000ca1565b60018060a01b031690565b62001fcf62001fd59162001764565b62001fb5565b90565b62001fe4905462001fc0565b90565b62001ff662001ffc9162001764565b62000cf0565b90565b6200200b905462001fe7565b90565b6014906200201c8262001f7a565b811015620020a9576200202f9162001f87565b50906200203e5f830162001fd8565b916200204d6001820162001fff565b916200205c6002830162001781565b916200206b6003820162001781565b916200207a6004830162001781565b916200208960058201620017ae565b91620020a660076200209e6006850162001781565b930162001781565b90565b5f80fd5b620020b89062001388565b9052565b959391989796949290986101008701995f8801620020da91620020ad565b60208701620020e99162000d52565b60408601620020f891620008ce565b606085016200210791620008ce565b608084016200211691620008ce565b60a08301620021259162000807565b60c082016200213491620008ce565b60e0016200214291620008ce565b565b34620021875762002183620021656200215f36600462000c7f565b6200200e565b94620021799896989491949392936200079a565b98899889620020bc565b0390f35b620007a0565b34620021c557620021ab620021a43660046200145a565b90620085c9565b620021b56200079a565b80620021c181620009b9565b0390f35b620007a0565b346200220457620021de3660046200086c565b62002200620021ec620085d7565b620021f66200079a565b9182918262000816565b0390f35b620007a0565b3462002243576200221d3660046200086c565b6200223f6200222b620085fb565b620022356200079a565b91829182620008dd565b0390f35b620007a0565b3462002285576200225c3660046200086c565b620022816200226a620086a6565b620022779391936200079a565b93849384620013e0565b0390f35b620007a0565b90620022979062001726565b5f5260205260405f2090565b620022bd90620022b76010915f926200228b565b62000f7c565b90565b34620022f957620022f5620022e1620022db3660046200110a565b620022a3565b620022eb6200079a565b91829182620008dd565b0390f35b620007a0565b3462002336576200231c620023163660046200110a565b62008a2c565b620023266200079a565b806200233281620009b9565b0390f35b620007a0565b90620023489062001726565b5f5260205260405f2090565b6200237262002378926200236c6025935f946200233c565b62001557565b62000f7c565b90565b34620023b557620023b16200239d620023963660046200145a565b9062002354565b620023a76200079a565b91829182620008dd565b0390f35b620007a0565b34620023f457620023f0620023dc620023d63660046200110a565b62008a6e565b620023e66200079a565b9182918262000816565b0390f35b620007a0565b620024116200240b3660046200110a565b62009093565b6200241b6200079a565b806200242781620009b9565b0390f35b620024368162000802565b036200243e57565b5f80fd5b9050359062002451826200242b565b565b9190604083820312620024805780620024736200247d925f86016200094d565b9360200162002442565b90565b620007a4565b34620024be57620024a46200249d36600462002453565b9062009151565b620024ae6200079a565b80620024ba81620009b9565b0390f35b620007a0565b67ffffffffffffffff8111620024e557620024e160209162001d38565b0190565b62001d42565b9092919262002504620024fe82620024c4565b62001d83565b938185526020850190828401116200252357620025219262001dc3565b565b62001d34565b9080601f830112156200254a578160206200254793359101620024eb565b90565b62000db7565b91606083830312620025bf576200256a825f85016200094d565b92602081013567ffffffffffffffff8111620025b957836200258e91830162002529565b92604082013567ffffffffffffffff8111620025b357620025b0920162002529565b90565b620007a8565b620007a8565b620007a4565b34620025fd57620025e3620025dc36600462002550565b9162009644565b620025ed6200079a565b80620025f981620009b9565b0390f35b620007a0565b346200263c57620026163660046200086c565b620026386200262462009685565b6200262e6200079a565b91829182620010b1565b0390f35b620007a0565b90565b6200265e62002658620026649262002642565b62000883565b62000880565b90565b620026746103e862002645565b90565b6200268162002667565b90565b34620026bd57620026973660046200086c565b620026b9620026a562002677565b620026af6200079a565b91829182620008dd565b0390f35b620007a0565b9190604083820312620026f05780620026e3620026ed925f860162000975565b936020016200094d565b90565b620007a4565b9160206200271b9294936200271360408201965f830190620008ce565b0190620008ce565b565b3462002758576200273b62002734366004620026c3565b906200969c565b90620027546200274a6200079a565b92839283620026f6565b0390f35b620007a0565b919062002773905f60208501940190620020ad565b565b34620027ae57620027883660046200086c565b620027aa62002796620096f7565b620027a06200079a565b918291826200275e565b0390f35b620007a0565b34620027eb57620027d1620027cb3660046200110a565b6200973e565b620027db6200079a565b80620027e781620009b9565b0390f35b620007a0565b9160c083830312620028f8575f83013567ffffffffffffffff8111620028f257826200281f91850162002529565b92602081013567ffffffffffffffff8111620028ec57836200284391830162002529565b92604082013567ffffffffffffffff8111620028e657816200286791840162002529565b92606083013567ffffffffffffffff8111620028e057826200288b91850162002529565b92608081013567ffffffffffffffff8111620028da5783620028af91830162002529565b9260a082013567ffffffffffffffff8111620028d457620028d1920162002529565b90565b620007a8565b620007a8565b620007a8565b620007a8565b620007a8565b620007a8565b620007a4565b620029346200292062002913366004620027f1565b949390939291926200a3ba565b6200292a6200079a565b9182918262000d61565b0390f35b6200294660055f9062000f7c565b90565b3462002982576200295c3660046200086c565b6200297e6200296a62002938565b620029746200079a565b91829182620008dd565b0390f35b620007a0565b34620029bf57620029a56200299f366004620013be565b6200a66b565b620029af6200079a565b80620029bb81620009b9565b0390f35b620007a0565b34620029fc57620029d83660046200086c565b620029e26200a6a4565b620029ec6200079a565b80620029f881620009b9565b0390f35b620007a0565b62002a1c9062002a166013915f926200228b565b62000f7c565b90565b3462002a585762002a5462002a4062002a3a3660046200110a565b62002a02565b62002a4a6200079a565b91829182620008dd565b0390f35b620007a0565b3462002a965762002a7c62002a753660046200145a565b906200a973565b62002a866200079a565b8062002a9281620009b9565b0390f35b620007a0565b600462002aa98162000cb5565b82101562002acb5762002ac89162002ac19162000cc2565b9062000d0f565b90565b5f80fd5b3462002b085762002b0462002af062002aea36600462000c7f565b62002a9c565b62002afa6200079a565b9182918262000d61565b0390f35b620007a0565b62002b1c60065f9062000f7c565b90565b3462002b585762002b323660046200086c565b62002b5462002b4062002b0e565b62002b4a6200079a565b91829182620008dd565b0390f35b620007a0565b3462002b9a5762002b713660046200086c565b62002b9662002b7f6200a981565b62002b8c9391936200079a565b93849384620013e0565b0390f35b620007a0565b3462002bda5762002bd662002bc262002bbb3660046200145a565b906200a9e9565b62002bcc6200079a565b9182918262000816565b0390f35b620007a0565b3462002c185762002bfe62002bf73660046200145a565b906200aae2565b62002c086200079a565b8062002c1481620009b9565b0390f35b620007a0565b3462002c585762002c3b62002c353660046200110a565b6200b2cb565b9062002c5462002c4a6200079a565b92839283620026f6565b0390f35b620007a0565b3462002c975762002c9362002c7f62002c793660046200110a565b6200b324565b62002c896200079a565b9182918262000816565b0390f35b620007a0565b9062002ca99062001726565b5f5260205260405f2090565b634e487b7160e01b5f52602260045260245ffd5b906001600283049216801562002cec575b602083101462002ce657565b62002cb5565b91607f169162002cda565b60209181520190565b5f5260205f2090565b905f929180549062002d2762002d1f8362002cc9565b809462002cf7565b916001811690815f1462002d85575060011462002d44575b505050565b62002d53919293945062002d00565b915f925b81841062002d6c57505001905f808062002d3f565b6001816020929593955484860152019101929062002d57565b92949550505060ff19168252151560200201905f808062002d3f565b9062002dad9162002d09565b90565b9062002dd662002dce9262002dc46200079a565b9384809262002da1565b038362001d56565b565b60ff1690565b62002ded62002df39162001764565b62002dd8565b90565b62002e02905462002dde565b90565b60081c90565b62002e1a62002e209162002e05565b62001fb5565b90565b62002e2f905462002e0b565b90565b62002e3e905f62002c9d565b9062002e4c5f830162002db0565b9162002e5b6001820162002db0565b9162002e6a6002830162002db0565b9162002e796003820162002db0565b9162002e886004830162002db0565b9162002e976005820162002db0565b9162002ea66006830162002df6565b9162002eb56007820162001fff565b9162002ec46008830162001781565b9162002ed36009820162001fd8565b9162002ee2600a830162001781565b9162002ef1600b820162001781565b9162002f0d600c62002f0581850162002df6565b930162002e23565b90565b5190565b60209181520190565b90825f9392825e0152565b62002f4d62002f5760209362002f5d9362002f438162002f10565b9384809362002f14565b9586910162002f1d565b62001d38565b0190565b60ff1690565b62002f729062002f61565b9052565b9b99979594939291909e9d9c9a98969e6101c08d018d808203905f015262002f9e9162002f28565b8c808203906020015262002fb29162002f28565b8b810360408d015262002fc59162002f28565b8a810360608c015262002fd89162002f28565b89810360808b015262002feb9162002f28565b88810360a08a015262002ffe9162002f28565b9960c088016200300e9162002f67565b60e087016200301d9162000d52565b61010086016200302d91620008ce565b61012085016200303d91620020ad565b61014084016200304d91620008ce565b61016083016200305d91620008ce565b61018082016200306d9162002f67565b6101a0016200307c91620020ad565b565b34620030ca57620030c66200309f620030993660046200110a565b62002e32565b9a620030bc9e9c9e9a919a9992999893989794979695966200079a565b9e8f9e8f62002f76565b0390f35b620007a0565b346200310957620030e33660046200086c565b62003105620030f16200b36e565b620030fb6200079a565b91829182620010b1565b0390f35b620007a0565b34620031485762003144620031306200312a3660046200110a565b6200b385565b6200313a6200079a565b91829182620008dd565b0390f35b620007a0565b90565b5f1b90565b6200316f6200316962003175926200314e565b62003151565b62000933565b90565b620031835f62003156565b90565b6200319062003178565b90565b34620031cc57620031a63660046200086c565b620031c8620031b462003186565b620031be6200079a565b9182918262000d61565b0390f35b620007a0565b620031e0600a5f9062000f7c565b90565b346200321c57620031f63660046200086c565b6200321862003204620031d2565b6200320e6200079a565b91829182620008dd565b0390f35b620007a0565b5190565b60209181520190565b60200190565b620032409062001388565b9052565b9060e080620032e2936200325f5f8201515f86019062003235565b62003273602082015160208601906200102d565b620032876040820151604086019062000e69565b6200329b6060820151606086019062000e69565b620032af6080820151608086019062000e69565b620032c360a082015160a08601906200160a565b620032d760c082015160c086019062000e69565b015191019062000e69565b565b90620032f4816101009362003244565b0190565b60200190565b90620033216200331a620033128462003222565b809362003226565b926200322f565b905f5b818110620033325750505090565b9091926200334f620033486001928651620032e4565b94620032f8565b910191909162003324565b620033719160208201915f818403910152620032fe565b90565b34620033ad57620033a9620033956200338f366004620013be565b6200b5ff565b6200339f6200079a565b918291826200335a565b0390f35b620007a0565b620033c6670de0b6b3a764000062000b7a565b90565b620033d3620033b3565b90565b346200340f57620033e93660046200086c565b6200340b620033f7620033c9565b620034016200079a565b91829182620008dd565b0390f35b620007a0565b906200342b6200342583620024c4565b62001d83565b918252565b5f7f352e302e30000000000000000000000000000000000000000000000000000000910152565b62003463600562003415565b90620034726020830162003430565b565b6200347e62003457565b90565b6200348b62003474565b90565b6200349862003481565b90565b620034b29160208201915f81840391015262002f28565b90565b34620034ee57620034c83660046200086c565b620034ea620034d66200348e565b620034e06200079a565b918291826200349b565b0390f35b620007a0565b90565b620035106200350a6200351692620034f4565b62000883565b62000880565b90565b620035256054620034f7565b90565b6200353262003519565b90565b346200356e57620035483660046200086c565b6200356a6200355662003528565b620035606200079a565b91829182620008dd565b0390f35b620007a0565b6200358e90620035886011915f926200228b565b62000f7c565b90565b34620035ca57620035c6620035b2620035ac3660046200110a565b62003574565b620035bc6200079a565b91829182620008dd565b0390f35b620007a0565b90620035dc9062001a32565b5f5260205260405f2090565b90620035f49062001726565b5f5260205260405f2090565b906200361262003618926022620035d0565b620035e8565b906200363460016200362c5f850162001781565b930162001781565b90565b346200367257620036556200364e366004620026c3565b9062003600565b906200366e620036646200079a565b92839283620026f6565b0390f35b620007a0565b620036856103e862002645565b90565b6200369262003678565b90565b34620036ce57620036a83660046200086c565b620036ca620036b662003688565b620036c06200079a565b91829182620008dd565b0390f35b620007a0565b620036ee90620036e86020915f9262001557565b62000f7c565b90565b346200372a5762003726620037126200370c366004620013be565b620036d4565b6200371c6200079a565b91829182620008dd565b0390f35b620007a0565b90565b6200374c62003746620037529262003730565b62000883565b62000880565b90565b6200376c6b033b2e3c9fd0803ce800000062003733565b90565b6200377962003755565b90565b34620037b5576200378f3660046200086c565b620037b16200379d6200376f565b620037a76200079a565b91829182620008dd565b0390f35b620007a0565b90620037c79062001726565b5f5260205260405f2090565b620037e6906008620037ec9302620009fc565b62001790565b90565b90620037fc9154620037d3565b90565b6200381990620038136012915f92620037bb565b620037ef565b90565b346200385557620038516200383d620038373660046200110a565b620037ff565b620038476200079a565b9182918262000816565b0390f35b620007a0565b3462003894576200386e3660046200086c565b620038906200387c6200b7c5565b620038866200079a565b91829182620008dd565b0390f35b620007a0565b620038b1620038ab3660046200110a565b6200be57565b620038bb6200079a565b80620038c781620009b9565b0390f35b90565b620038e7620038e1620038ed92620038cb565b62000883565b62000880565b90565b620038fe62013880620038ce565b90565b6200390b620038f0565b90565b346200394757620039213660046200086c565b620039436200392f62003901565b620039396200079a565b91829182620008dd565b0390f35b620007a0565b346200398657620039603660046200086c565b620039826200396e6200be96565b620039786200079a565b91829182620010b1565b0390f35b620007a0565b90620039989062001726565b5f5260205260405f2090565b90620039b09062001549565b5f5260205260405f2090565b620039da620039e092620039d4600f935f946200398c565b620039a4565b620037ef565b90565b3462003a1d5762003a1962003a05620039fe3660046200145a565b90620039bc565b62003a0f6200079a565b9182918262000816565b0390f35b620007a0565b90565b62003a3f62003a3962003a459262003a23565b62000883565b62000880565b90565b62003a5561271062003a26565b90565b62003a6262003a48565b90565b3462003a9e5762003a783660046200086c565b62003a9a62003a8662003a58565b62003a906200079a565b91829182620008dd565b0390f35b620007a0565b67ffffffffffffffff811162003abd5760208091020190565b62001d42565b9092919262003adc62003ad68262003aa4565b62001d83565b938185526020808601920283019281841162003b1e57915b83831062003b025750505050565b6020809162003b1284866200094d565b81520192019162003af4565b62000dbf565b9080601f8301121562003b455781602062003b429335910162003ac3565b90565b62000db7565b91909160408184031262003bac575f81013567ffffffffffffffff811162003ba6578362003b7b91830162003b24565b92602082013567ffffffffffffffff811162003ba05762003b9d920162003b24565b90565b620007a8565b620007a8565b620007a4565b3462003bec5762003be862003bd462003bcd36600462003b4b565b906200bead565b62003bde6200079a565b91829182620010b1565b0390f35b620007a0565b62003c00600c5f9062000f7c565b90565b3462003c3c5762003c163660046200086c565b62003c3862003c2462003bf2565b62003c2e6200079a565b91829182620008dd565b0390f35b620007a0565b3462003c7a5762003c6062003c593660046200145a565b906200c0d0565b62003c6a6200079a565b8062003c7681620009b9565b0390f35b620007a0565b62003ca562003caf60209362003cb59362003c9b8162002f10565b9384809362002cf7565b9586910162002f1d565b62001d38565b0190565b62003cc49062002f61565b9052565b9062003e01906101a08062003d5f62003d4c62003d3962003d2662003d1362003d006101c089015f8c01518a82035f8c015262003c80565b60208b015189820360208b015262003c80565b60408a015188820360408a015262003c80565b6060890151878203606089015262003c80565b6080880151868203608088015262003c80565b60a087015185820360a087015262003c80565b9462003d7460c082015160c086019062003cb9565b62003d8860e082015160e08601906200102d565b62003d9e61010082015161010086019062000e69565b62003db461012082015161012086019062003235565b62003dca61014082015161014086019062000e69565b62003de061016082015161016086019062000e69565b62003df661018082015161018086019062003cb9565b015191019062003235565b90565b62003e1b9160208201915f81840391015262003cc8565b90565b3462003e575762003e5362003e3f62003e393660046200110a565b6200c1c9565b62003e496200079a565b9182918262003e04565b0390f35b620007a0565b90565b62003e7962003e7362003e7f9262003e5d565b62000883565b62000880565b90565b62003e916301e1338062003e60565b90565b62003e9e62003e82565b90565b3462003eda5762003eb43660046200086c565b62003ed662003ec262003e94565b62003ecc6200079a565b91829182620008dd565b0390f35b620007a0565b67ffffffffffffffff811162003ef95760208091020190565b62001d42565b9092919262003f1862003f128262003ee0565b62001d83565b938185526020808601920283019281841162003f5a57915b83831062003f3e5750505050565b6020809162003f4e848662000975565b81520192019162003f30565b62000dbf565b9080601f8301121562003f815781602062003f7e9335910162003eff565b90565b62000db7565b91909160408184031262003fe8575f81013567ffffffffffffffff811162003fe2578362003fb791830162003b24565b92602082013567ffffffffffffffff811162003fdc5762003fd9920162003f60565b90565b620007a8565b620007a8565b620007a4565b3462004026576200400c6200400536600462003f87565b906200c235565b620040166200079a565b806200402281620009b9565b0390f35b620007a0565b346200406657620040626200404e620040473660046200145a565b906200c243565b620040586200079a565b9182918262000816565b0390f35b620007a0565b34620040a35762004089620040833660046200110a565b6200c2f7565b620040936200079a565b806200409f81620009b9565b0390f35b620007a0565b34620040e257620040de620040ca620040c43660046200110a565b6200c339565b620040d46200079a565b9182918262000816565b0390f35b620007a0565b620040f6600b5f9062000f7c565b90565b3462004132576200410c3660046200086c565b6200412e6200411a620040e8565b620041246200079a565b91829182620008dd565b0390f35b620007a0565b3462004171576200416d62004159620041533660046200110a565b6200c376565b620041636200079a565b91829182620008dd565b0390f35b620007a0565b34620041b0576200418a3660046200086c565b620041ac620041986200c4ac565b620041a26200079a565b91829182620010b1565b0390f35b620007a0565b604090620041e4620041ec9496959396620041d960608401985f850190620008ce565b6020830190620008ce565b019062000807565b565b346200422b576200422762004210620042093660046200145a565b906200c8fa565b6200421d9391936200079a565b93849384620041b6565b0390f35b620007a0565b346200426a5762004266620042526200424c3660046200110a565b6200cbf5565b6200425c6200079a565b91829182620008dd565b0390f35b620007a0565b6200427e601d5f90620037ef565b90565b34620042ba57620042943660046200086c565b620042b6620042a262004270565b620042ac6200079a565b9182918262000816565b0390f35b620007a0565b620042fc6200430494620042f1606094989795620042e6608086019a5f870190620008ce565b6020850190620008ce565b604083019062000807565b0190620008ce565b565b3462004344576200434062004328620043213660046200145a565b906200cc0d565b90620043369492946200079a565b94859485620042c0565b0390f35b620007a0565b5f80fd5b5f90565b6200435c6200434e565b50806200437b62004374637965db0b60e01b620007ac565b91620007ac565b1490811562004389575b5090565b6200439591506200ccab565b5f62004385565b90620043b291620043ac6200ccd7565b620047b3565b565b52565b90620043c39062002f61565b9052565b90620043d39062000933565b9052565b90620043e39062000880565b9052565b90620043f39062001388565b9052565b620044046101c062001d83565b90565b906200459d62004592600c6200441c620043f7565b94620044376200442e5f830162002db0565b5f8801620043b4565b62004453620044496001830162002db0565b60208801620043b4565b6200446f620044656002830162002db0565b60408801620043b4565b6200448b620044816003830162002db0565b60608801620043b4565b620044a76200449d6004830162002db0565b60808801620043b4565b620044c3620044b96005830162002db0565b60a08801620043b4565b620044df620044d56006830162002df6565b60c08801620043b7565b620044fb620044f16007830162001fff565b60e08801620043c7565b620045186200450d6008830162001781565b6101008801620043d7565b620045356200452a6009830162001fd8565b6101208801620043e7565b6200455262004547600a830162001781565b6101408801620043d7565b6200456f62004564600b830162001781565b6101608801620043d7565b6200458b6200458083830162002df6565b6101808801620043b7565b0162002e23565b6101a08401620043e7565b565b620045aa9062004407565b90565b620045b9905162000933565b90565b5f7f56616c696461746f7220646f6573206e6f742065786973740000000000000000910152565b620045f2601860209262002f14565b620045fd81620045bc565b0190565b620046189060208101905f818303910152620045e3565b90565b156200462357565b6200462d6200079a565b62461bcd60e51b815280620046456004820162004601565b0390fd5b62004655905162001388565b90565b5f7f4e6f742076616c696461746f72206f776e657200000000000000000000000000910152565b6200468e601360209262002f14565b620046998162004658565b0190565b620046b49060208101905f8183039101526200467f565b90565b15620046bf57565b620046c96200079a565b62461bcd60e51b815280620046e1600482016200469d565b0390fd5b5f7f526174652065786365656473206d6178696d756d20616c6c6f77656400000000910152565b6200471b601c60209262002f14565b6200472681620046e5565b0190565b620047419060208101905f8183039101526200470c565b90565b156200474c57565b620047566200079a565b62461bcd60e51b8152806200476e600482016200472a565b0390fd5b90620047805f199162003151565b9181191691161790565b90565b90620047a7620047a1620047af9262001a32565b6200478a565b825462004772565b9055565b620048326200480c610120620047d5620047cf5f869062002c9d565b6200459f565b62004805620047e760e08301620045ad565b620047fd620047f65f62003156565b9162000933565b14156200461b565b0162004649565b6200482b620048246200481e6200cd06565b62001388565b9162001388565b14620046b7565b6200485e82620048566200484f6200484962001271565b62000880565b9162000880565b111562004744565b6200487662004870601183906200228b565b62001781565b9062004890836200488a601184906200228b565b6200478d565b9091620048be7fdd84c29d06c2a9d59a3e5abd13d9f363a8dee53e17c2342beea1b582237796e69262001726565b92620048d7620048cd6200079a565b92839283620026f6565b0390a2565b90620048e8916200439c565b565b606090565b5090565b9062004909620049038362003ee0565b62001d83565b918252565b369037565b906200493e6200492383620048f3565b9260208062004933869362003ee0565b92019103906200490e565b565b62004959620049536200495f926200314e565b62000883565b62000880565b90565b600162004970910162000880565b90565b919081101562004984576020020190565b62000ca1565b35620049968162000936565b90565b620049a5604062001d83565b90565b90620049e9620049df6001620049bd62004999565b94620049d8620049cf5f830162001781565b5f8801620043d7565b0162001781565b60208401620043d7565b565b620049f690620049a8565b90565b62004a05905162000880565b90565b9062004a148262000e56565b81101562004a26576020809102010190565b62000ca1565b929062004a38620048ea565b5062004a43620048ea565b5062004a51818490620048ef565b9262004a5d8462004913565b9462004a698562004913565b9362004a755f62004940565b5b8062004a8d62004a868962000880565b9162000880565b101562004b2b5762004b259062004b1f62004b0a602062004ade62004ad862004ab960228a90620035d0565b62004ad162004acb8d8d8a9162004973565b6200498a565b90620035e8565b620049eb565b62004b038d62004afd62004af45f8501620049f9565b88909262004a08565b620043d7565b01620049f9565b62004b19899184909262004a08565b620043d7565b62004962565b62004a76565b50939450505050565b9062004b4a9162004b446200ccd7565b62004b4c565b565b9062004b629162004b5c6200cd49565b62005485565b62004b6c6200cdcc565b565b60207f7200000000000000000000000000000000000000000000000000000000000000917f43616c6c6572206973206e6f74207468652076616c696461746f72206f776e655f8201520152565b62004bca602160409262002f14565b62004bd58162004b6e565b0190565b62004bf09060208101905f81830391015262004bbb565b90565b1562004bfb57565b62004c056200079a565b62461bcd60e51b81528062004c1d6004820162004bd9565b0390fd5b60207f72207468616e207a65726f000000000000000000000000000000000000000000917f5769746864726177616c20616d6f756e74206d757374206265206772656174655f8201520152565b62004c7d602b60409262002f14565b62004c888162004c21565b0190565b62004ca39060208101905f81830391015262004c6e565b90565b1562004cae57565b62004cb86200079a565b62461bcd60e51b81528062004cd06004820162004c8c565b0390fd5b90565b5f7f416c72656164792070656e64696e6720756e64656c6567617465000000000000910152565b62004d0d601a60209262002f14565b62004d188162004cd7565b0190565b62004d339060208101905f81830391015262004cfe565b90565b1562004d3e57565b62004d486200079a565b62461bcd60e51b81528062004d606004820162004d1c565b0390fd5b5f7f56616c696461746f722069732070656e64696e67206578697400000000000000910152565b62004d9a601960209262002f14565b62004da58162004d64565b0190565b62004dc09060208101905f81830391015262004d8b565b90565b1562004dcb57565b62004dd56200079a565b62461bcd60e51b81528062004ded6004820162004da9565b0390fd5b90565b5f7f70656e64696e6745786974506f6f6c2065786365656473206c696d6974000000910152565b62004e2a601d60209262002f14565b62004e358162004df4565b0190565b62004e509060208101905f81830391015262004e1b565b90565b1562004e5b57565b62004e656200079a565b62461bcd60e51b81528062004e7d6004820162004e39565b0390fd5b5f7f496e73756666696369656e74206f776e6572207374616b650000000000000000910152565b62004eb7601860209262002f14565b62004ec28162004e81565b0190565b62004edd9060208101905f81830391015262004ea8565b90565b1562004ee857565b62004ef26200079a565b62461bcd60e51b81528062004f0a6004820162004ec6565b0390fd5b5f7f496e73756666696369656e7420746f74616c207374616b650000000000000000910152565b62004f44601860209262002f14565b62004f4f8162004f0e565b0190565b62004f6a9060208101905f81830391015262004f35565b90565b1562004f7557565b62004f7f6200079a565b62461bcd60e51b81528062004f976004820162004f53565b0390fd5b634e487b7160e01b5f52601160045260245ffd5b62004fc162004fc89193929362000880565b9262000880565b9162004fd683820262000880565b92818404149015171562004fe657565b62004f9b565b634e487b7160e01b5f52601260045260245ffd5b6200500f620050169162000880565b9162000880565b90811562005022570490565b62004fec565b6200503a620050419193929362000880565b9262000880565b82039182116200504d57565b62004f9b565b620050656200506c9193929362000880565b9262000880565b82018092116200507857565b62004f9b565b906200508c60ff9162003151565b9181191691161790565b620050a19062000802565b90565b90565b90620050c1620050bb620050c99262005096565b620050a4565b82546200507e565b9055565b620050d89062000880565b5f8114620050e7576001900390565b62004f9b565b62005106620051006200510c9262002f61565b62000883565b62000880565b90565b90565b6200511f61010062001d83565b90565b906200512e9062000802565b9052565b5f5260205f2090565b5490565b6200514a816200513b565b82101562005167576200515f60089162005132565b910201905f90565b62000ca1565b634e487b7160e01b5f525f60045260245ffd5b906200519360018060a01b039162003151565b9181191691161790565b90565b90620051ba620051b4620051c29262001549565b6200519d565b825462005180565b9055565b620051d19062001764565b90565b90620051ee620051e8620051f69262001726565b620051c6565b825462004772565b9055565b62005206905162000802565b90565b90620052e960e06007620052f094620052325f82016200522b5f880162004649565b90620051a0565b6200524f600182016200524860208801620045ad565b90620051d4565b6200526c600282016200526560408801620049f9565b906200478d565b62005289600382016200528260608801620049f9565b906200478d565b620052a6600482016200529f60808801620049f9565b906200478d565b620052c360058201620052bc60a08801620051fa565b90620050a7565b620052e060068201620052d960c08801620049f9565b906200478d565b019201620049f9565b906200478d565b565b91906200530657620053049162005209565b565b6200516d565b1b90565b90815491680100000000000000008310156200534557826200533c91600162005343950181556200513f565b90620052f2565b565b62001d42565b90565b5f5260205f2090565b5490565b620053668162005357565b82101562005383576200537b6001916200534e565b910201905f90565b62000ca1565b91906008620053a8910291620053a15f19846200530c565b926200530c565b9181191691161790565b9190620053cd620053c7620053d69362001a32565b6200478a565b90835462005389565b9055565b90815491680100000000000000008310156200540f5782620054069160016200540d950181556200535b565b90620053b2565b565b62001d42565b90565b620054316200542b620054379262005415565b62000883565b62000880565b90565b620054536200544d620054599262002f61565b62000883565b62002f61565b90565b90565b90620054796200547362005481926200543a565b6200545c565b82546200507e565b9055565b620054c1620054a360076200549c5f859062002c9d565b0162001fff565b620054b9620054b25f62003156565b9162000933565b14156200461b565b62005505620054df6009620054d85f859062002c9d565b0162001fd8565b620054fe620054f7620054f16200cd06565b62001388565b9162001388565b1462004bf3565b620055278262005520620055195f62004940565b9162000880565b1162004ca6565b620055546200554e6200553d600e849062001734565b620055476200cd06565b906200174c565b62004cd4565b9062005578620055726200556b60088501620017ae565b1562000802565b62004d36565b62005598620055926200558b836200b324565b1562000802565b62004dc3565b620055c2620055bc620055b6620055b0601b62004df1565b6200cdf2565b6200ce17565b62004e53565b620055cd816200973e565b62005663620055df6001840162001781565b6200560281620055fa620055f38862000880565b9162000880565b101562004ee0565b6200563e620056206008620056195f879062002c9d565b0162001781565b620056366200562f8862000880565b9162000880565b101562004f6d565b6200565d8562005656670de0b6b3a764000062000b7a565b9062004faf565b62005000565b916200569b62005681620056795f840162001781565b859062004faf565b62005694670de0b6b3a764000062000b7a565b9062005000565b938093620056a95f62004940565b90620056b86003850162001781565b620056ce620056c75f62004940565b9162000880565b1162005b19575b5062005709620056e786839062005053565b95620057026001860191620056fc8362001781565b62005028565b906200478d565b6200572e86620057275f860191620057218362001781565b62005028565b906200478d565b62005754856200574d6005860191620057478362001781565b62005053565b906200478d565b62005764600160088501620050a7565b620057726001840162001781565b62005788620057815f62004940565b9162000880565b1462005ae5575b620057996200cf73565b9283620057a690620050ed565b9060060190620057b6916200478d565b620057c2600562001781565b83620057ce90620050ed565b620057d99162005053565b956014620057e79062001f7a565b916014620057f5906200510f565b91620058006200cd06565b918791898b89915f9394956200581562005112565b975f8901906200582591620043e7565b60208801906200583591620043c7565b60408701906200584591620043d7565b60608601906200585591620043d7565b6200586090620050ed565b60808501906200587091620043d7565b60a0840190620058809162005122565b60c08301906200589091620043d7565b60e0820190620058a091620043d7565b620058ab9162005310565b601f620058b76200cd06565b620058c29162001afb565b620058cd906200534b565b81620058d991620053da565b601f620058e56200cd06565b620058f09162001afb565b620058fb9062001b13565b6001620059089062005418565b620059139162005028565b90602190620059229162001a54565b906200592e916200478d565b5f836200593b9162002c9d565b600801906200594a8262001781565b90620059569162005028565b62005961916200478d565b5f6200596d9062004940565b5f836200597a9162002c9d565b600b019062005989916200478d565b5f82620059969162002c9d565b600c0190620059a5916200545f565b620059af6200d05b565b81620059bb9062008a6e565b908162005aab575b5062005a8c575b620059e2620059da601b62004df1565b82906200d0d7565b508062005a107fe5643713a53bda27807f88ea69c5d9f7d0b71945b2245c6425bd544e399e872c9162001726565b9062005a1b6200079a565b8062005a2781620009b9565b0390a262005a346200cd06565b90919262005a6e62005a677fab097068a1df6edf9d7cb646f319adb16558a498e61f47aca785ae107b49a9989362001549565b9362001726565b9362005a8762005a7d6200079a565b92839283620026f6565b0390a3565b62005aa462005a9c601762004df1565b82906200d0b1565b50620059ca565b905062005add62005ad662005acf600862005ac85f879062002c9d565b0162001781565b9262000880565b9162000880565b105f620059c3565b62005b1362005af7601386906200228b565b62005b0c62005b068262001781565b620050cd565b906200478d565b6200578f565b62005b52915062005b389062005b326003860162001781565b62004faf565b62005b4b670de0b6b3a764000062000b7a565b9062005000565b62005b788162005b71600386019162005b6b8362001781565b62005028565b906200478d565b5f620056d5565b9062005b8b9162004b34565b565b606090565b62005b9c62005b8d565b5062005bb362005bad601962004df1565b6200d0fd565b90565b62005bcb9062005bc56200ccd7565b62005d88565b565b60207f7200000000000000000000000000000000000000000000000000000000000000917f43616c6c6572206973206e6f7420746865206e6f6d696e61746564206f776e655f8201520152565b62005c29602160409262002f14565b62005c348162005bcd565b0190565b62005c4f9060208101905f81830391015262005c1a565b90565b1562005c5a57565b62005c646200079a565b62461bcd60e51b81528062005c7c6004820162005c38565b0390fd5b62005c9962005c9362005c9f926200314e565b62000883565b62000a48565b90565b62005cad9062005c80565b90565b60081b90565b9062005ccb610100600160a81b039162005cb0565b9181191691161790565b9062005cef62005ce962005cf79262001549565b6200519d565b825462005cb6565b9055565b5f7f70656e64696e67557064617465506f6f6c2065786365656473206c696d697400910152565b62005d31601f60209262002f14565b62005d3c8162005cfb565b0190565b62005d579060208101905f81830391015262005d22565b90565b1562005d6257565b62005d6c6200079a565b62461bcd60e51b81528062005d846004820162005d40565b0390fd5b62005dc462005da6600762005d9f5f859062002c9d565b0162001fff565b62005dbc62005db55f62003156565b9162000933565b14156200461b565b62005e0862005de2600c62005ddb5f859062002c9d565b0162002e23565b62005e0162005dfa62005df46200cd06565b62001388565b9162001388565b1462005c52565b62005e22600962005e1b5f849062002c9d565b0162001fd8565b9062005e4762005e316200cd06565b600962005e405f859062002c9d565b01620051a0565b62005e6c62005e565f62005ca2565b600c62005e655f859062002c9d565b0162005cd5565b62005e778162006690565b62005ee6575b9062005e886200cd06565b62005eca62005ec362005ebc7f0b659dccc8eb950324170e8d9598af5ee04ee070883eb28651a96788721fbf839562001726565b9262001549565b9262001549565b9262005ed56200079a565b8062005ee181620009b9565b0390a4565b62005f1062005f0a62005f0462005efe601962004df1565b6200cdf2565b6200ce17565b62005d5a565b62005f2862005f20601962004df1565b82906200d0d7565b5062005e7d565b62005f3a9062005bb6565b565b9062005f5c9162005f5662005f5062003178565b6200d12d565b62005f5e565b565b9062005f6a916200d145565b565b9062005f789162005f3c565b565b62005f8e62005f8862003178565b6200d12d565b62005f9862006189565b565b5f7f4d6967726174696f6e20616c726561647920636f6d706c657465640000000000910152565b62005fd0601b60209262002f14565b62005fdb8162005f9a565b0190565b62005ff69060208101905f81830391015262005fc1565b90565b156200600157565b6200600b6200079a565b62461bcd60e51b815280620060236004820162005fdf565b0390fd5b9062006033826200101a565b81101562006045576020809102010190565b62000ca1565b620060569062000880565b5f198114620060655760010190565b62004f9b565b600190818003010490565b9190620060916200608b6200609a9362001726565b620051c6565b90835462005389565b9055565b5f90565b620060b891620060b16200609e565b9162006076565b565b5f5b828110620060c957505050565b80620060da5f6001938501620060a2565b01620060bc565b9190808210620060f1575b505050565b6200612392620061106200610962006119936200606b565b936200606b565b91829162000cb9565b01910390620060ba565b5f8080620060ec565b906801000000000000000081116200615a57816200614e620061589362000cb5565b90828155620060e1565b565b62001d42565b5f6200616c916200612c565b565b905f036200618357620061819062006160565b565b6200516d565b620061aa620061a46200619d601d620017ae565b1562000802565b62005ff9565b620061b55f62004940565b5b80620061d8620061d1620061cb600162000cb5565b62000880565b9162000880565b101562006252576200622d90620061fd620061f66001839062000cc2565b9062000d0f565b620062206200621962006211601562004df1565b83906200d1d9565b1562000802565b62006233575b5062004962565b620061b6565b6200624a9062006244601562004df1565b6200d0d7565b505f62006226565b506200625e5f62004940565b5b80620062816200627a62006274600262000cb5565b62000880565b9162000880565b1015620062fb57620062d690620062a66200629f6002839062000cc2565b9062000d0f565b620062c9620062c2620062ba601762004df1565b83906200d1d9565b1562000802565b620062dc575b5062004962565b6200625f565b620062f390620062ed601762004df1565b6200d0d7565b505f620062cf565b50620063075f62004940565b5b806200632a620063236200631d600362000cb5565b62000880565b9162000880565b1015620063a4576200637f906200634f620063486003839062000cc2565b9062000d0f565b620063726200636b62006363601962004df1565b83906200d1d9565b1562000802565b62006385575b5062004962565b62006308565b6200639c9062006396601962004df1565b6200d0d7565b505f62006378565b50620063b05f62004940565b5b80620063d3620063cc620063c6600462000cb5565b62000880565b9162000880565b10156200644d576200642890620063f8620063f16004839062000cc2565b9062000d0f565b6200641b620064146200640c601b62004df1565b83906200d1d9565b1562000802565b6200642e575b5062004962565b620063b1565b62006445906200643f601b62004df1565b6200d0d7565b505f62006421565b50620064586200c4ac565b90620064645f62004940565b5b80620064866200647f62006479866200101a565b62000880565b9162000880565b101562006608576200651f90620064a9620064a385839062006027565b620045ad565b620064e5620064df620064cb6009620064c45f869062002c9d565b0162001fd8565b620064d9600e859062001734565b6200174c565b62004cd4565b620064f36001820162001781565b62006509620065025f62004940565b9162000880565b1480620065d0575b62006525575b505062004962565b62006465565b620065c891620065a4620065ac926200655a6200655160086200654a5f879062002c9d565b0162001781565b5f83016200478d565b62006582620065786008620065715f879062002c9d565b0162001781565b600183016200478d565b60026200659c62006596601086906200228b565b62001781565b91016200478d565b60136200228b565b620065c1620065bb8262001781565b6200604b565b906200478d565b5f8062006517565b50620065eb6008620065e45f859062002c9d565b0162001781565b62006601620065fa5f62004940565b9162000880565b1162006511565b509050620066185f60016200616e565b620066255f60026200616e565b620066325f60036200616e565b6200663f5f60046200616e565b6200664d6001601d620050a7565b565b6200665962005f7a565b565b9062006671916200666b6200ccd7565b62006674565b90565b906200668d915062006687601562004df1565b6200d1d9565b90565b620066a5906200669f6200434e565b6200665b565b90565b90620066b49062001726565b5f5260205260405f2090565b6001620066e8620066ef92620066d56200609e565b505f620066e16200d1ff565b01620066a8565b0162001fff565b90565b5f90565b6200670361012062001d83565b90565b906200680c6200680160086200671b620066f6565b94620067366200672d5f830162001781565b5f8801620043d7565b62006752620067486001830162001781565b60208801620043d7565b6200676e620067646002830162001781565b60408801620043d7565b6200678a620067806003830162001781565b60608801620043d7565b620067a66200679c6004830162001781565b60808801620043d7565b620067c2620067b86005830162001781565b60a08801620043d7565b620067de620067d46006830162001781565b60c08801620043d7565b620067fa620067f06007830162001781565b60e08801620043d7565b01620017ae565b610100840162005122565b565b620068199062006706565b90565b9062006827620066f2565b62006831620066f2565b906200683c620066f2565b90620068536200684d601562004df1565b6200d0fd565b946200685f5f62004940565b5b80620068816200687a620068748a6200101a565b62000880565b9162000880565b101562006993576200689f6200689988839062006027565b620045ad565b620068c3620068bd620068b5600e849062001734565b85906200174c565b6200680e565b90620068d260208301620049f9565b620068e8620068e15f62004940565b9162000880565b11801562006967575b6200690a575b5050620069049062004962565b62006860565b93946200695760e06200694f8499620069486200693f62006904989b6200693860206200695e9a01620049f9565b9062005053565b9989906200699b565b9062005053565b9801620049f9565b9062005053565b93905f620068f7565b506200697660608301620049f9565b6200698c620069855f62004940565b9162000880565b11620068f1565b505093509091565b90620069db620069d2620069cc620069e193620069b7620066f2565b50620069c6600e879062001734565b6200174c565b6200680e565b9260106200228b565b62001781565b90620069f060408201620049f9565b620069fe60608301620049f9565b928062006a1662006a0f8462000880565b9162000880565b118062006a7a575b62006a2a575b50505090565b62006a71939262006a52602062006a4a62006a6a9562006a599562005028565b9201620049f9565b9062004faf565b62006a63620033b3565b9062005000565b9062005053565b5f808062006a24565b5062006a8960208401620049f9565b62006a9f62006a985f62004940565b9162000880565b1162006a1e565b9062006ac79162006ac162006abb82620066c0565b6200d12d565b62006ac9565b565b9062006ad5916200d223565b50565b9062006ae49162006aa6565b565b908062006b0762006b0062006afa6200cd06565b62001388565b9162001388565b0362006b1b5762006b18916200d2f5565b50565b5f63334bd91960e11b81528062006b3560048201620009b9565b0390fd5b62006b43620066f2565b5062006b5a62006b54601562004df1565b6200cdf2565b90565b5f90565b5f90565b62006b6f620066f6565b90602080808080808080808a62006b8562006b5d565b81520162006b9262006b5d565b81520162006b9f62006b5d565b81520162006bac62006b5d565b81520162006bb962006b5d565b81520162006bc662006b5d565b81520162006bd362006b5d565b81520162006be062006b5d565b81520162006bed62006b61565b81525050565b62006bfd62006b65565b90565b62006c2d9162006c2162006c279262006c1862006bf3565b50600e62001734565b6200174c565b6200680e565b90565b62006c3a6200ccd7565b62006c4462006c46565b565b62006c5a62006c5462003178565b6200d12d565b62006c6462006cb3565b565b9062006c7c62006c768362003aa4565b62001d83565b918252565b369037565b9062006cb162006c968362006c66565b9260208062006ca6869362003aa4565b920191039062006c81565b565b62006ce862006ccc62006cc65f62004940565b62006c86565b62006ce162006cdb5f62004940565b62004913565b906200d482565b565b62006cf462006c30565b565b62006d0b9062006d056200ccd7565b62006d0d565b565b62006d229062006d1c6200cd49565b62006e48565b62006d2c6200cdcc565b565b5f7f56616c696461746f722073746174757320696e76616c69640000000000000000910152565b62006d64601860209262002f14565b62006d6f8162006d2e565b0190565b62006d8a9060208101905f81830391015262006d55565b90565b1562006d9557565b62006d9f6200079a565b62461bcd60e51b81528062006db76004820162006d73565b0390fd5b5f7f4e6f207374616b6520746f207769746864726177000000000000000000000000910152565b62006df1601460209262002f14565b62006dfc8162006dbb565b0190565b62006e179060208101905f81830391015262006de2565b90565b1562006e2257565b62006e2c6200079a565b62461bcd60e51b81528062006e446004820162006e00565b0390fd5b62006e8462006e66600762006e5f5f859062002c9d565b0162001fff565b62006e7c62006e755f62003156565b9162000933565b14156200461b565b62006e8f8162006690565b8015620073e1575b62006ea29062006d8d565b62006ec262006ebc62006eb5836200b324565b1562000802565b62004dc3565b62006f0662006ee0600962006ed95f859062002c9d565b0162001fd8565b62006eff62006ef862006ef26200cd06565b62001388565b9162001388565b1462004bf3565b62006f3062006f2a62006f2462006f1e601b62004df1565b6200cdf2565b6200ce17565b62004e53565b62006f3b8162008a6e565b620073c2575b62006f6e62006f6862006f57600e849062001734565b62006f616200cd06565b906200174c565b62004cd4565b62006f9d62006f806001830162001781565b62006f9662006f8f5f62004940565b9162000880565b1162006e1a565b62006fc062006fba62006fb360088401620017ae565b1562000802565b62004d36565b62006fcb826200973e565b62006fd96001820162001781565b9162006ff48362006fed6003850162001781565b9062005053565b91620070025f820162001781565b93836200701a620070138762000880565b9162000880565b115f14620073b1576200702f84869062005028565b5b84836005019062007041916200478d565b5f6200704d9062004940565b83600101906200705d916200478d565b5f620070699062004940565b836003019062007079916200478d565b5f620070859062004940565b835f019062007094916200478d565b60018360080190620070a691620050a7565b601384620070b4916200228b565b620070bf8162001781565b620070ca90620050cd565b620070d5916200478d565b620070df6200cf73565b9283620070ec90620050ed565b9060060190620070fc916200478d565b62007108600562001781565b836200711490620050ed565b6200711f9162005053565b9560146200712d9062001f7a565b9160146200713b906200510f565b91620071466200cd06565b918791898b89915f9394956200715b62005112565b975f8901906200716b91620043e7565b60208801906200717b91620043c7565b60408701906200718b91620043d7565b60608601906200719b91620043d7565b620071a690620050ed565b6080850190620071b691620043d7565b60a0840190620071c69162005122565b60c0830190620071d691620043d7565b60e0820190620071e691620043d7565b620071f19162005310565b601f620071fd6200cd06565b620072089162001afb565b62007213906200534b565b816200721f91620053da565b601f6200722b6200cd06565b620072369162001afb565b620072419062001b13565b60016200724e9062005418565b620072599162005028565b90602190620072689162001a54565b9062007274916200478d565b5f83620072819162002c9d565b60080190620072908262001781565b906200729c9162005028565b620072a7916200478d565b5f620072b39062004940565b5f83620072c09162002c9d565b600b0190620072cf916200478d565b5f82620072dc9162002c9d565b600c0190620072eb916200545f565b601b620072f89062004df1565b8162007304916200d0d7565b50807fe5643713a53bda27807f88ea69c5d9f7d0b71945b2245c6425bd544e399e872c90620073339062001726565b906200733e6200079a565b806200734a81620009b9565b0390a2620073576200cd06565b90917fab097068a1df6edf9d7cb646f319adb16558a498e61f47aca785ae107b49a99891620073869062001549565b92620073929062001726565b936200739d6200079a565b918291620073ac9183620026f6565b0390a3565b620073bc5f62004940565b62007030565b620073da620073d2601762004df1565b82906200d0b1565b5062006f41565b5062006ea2620073f18262008a6e565b905062006e97565b620074049062006cf6565b565b6200741a6200741462003178565b6200d12d565b6200742462007426565b565b620074306200d759565b565b6200743c62007406565b565b62007453906200744d6200cd49565b620075d9565b6200745d6200cdcc565b565b60209181520190565b62007474905462001769565b90565b60010190565b90620074a062007499620074918462001b13565b80936200745f565b9262001b17565b905f5b818110620074b15750505090565b909192620074d7620074d0600192620074ca8762007468565b62000e78565b9462007477565b9101919091620074a3565b90620074ee916200747d565b90565b90620075176200750f92620075056200079a565b93848092620074e2565b038362001d56565b565b6200752490620074f1565b90565b90565b620075436200753d620075499262005415565b62000883565b62002f61565b90565b5f7f4e6f20776974686472617761626c65207374616b650000000000000000000000910152565b62007582601560209262002f14565b6200758d816200754c565b0190565b620075a89060208101905f81830391015262007573565b90565b15620075b357565b620075bd6200079a565b62461bcd60e51b815280620075d56004820162007591565b0390fd5b620075e45f62004940565b620075fc620075f6601f339062001afb565b62007519565b91620076156200760f6020339062001557565b62001781565b9182905b816200763a620076336200762d8862000e56565b62000880565b9162000880565b101562007b6f576200766f62007668620076606200765a88869062004a08565b620049f9565b601462001f87565b5062007527565b916200767e60058401620017ae565b801562007b42575b62007b355762007697600562001781565b620076ba620076b3620076ad6003870162001781565b62000880565b9162000880565b106200797357620076e4620076de620076d6600e879062001734565b33906200174c565b62004cd4565b620076f260088201620017ae565b8062007939575b62007715575b506200770e9192505b62004962565b9062007619565b6200770e92620077f9916200772d6006870162001781565b620077436200773c5f62004940565b9162000880565b1162007919575b6200777d6200775c6002880162001781565b620077766005840191620077708362001781565b62005028565b906200478d565b6200778b6005820162001781565b620077a16200779a5f62004940565b9162000880565b14620078e9575b50620077b76007860162001781565b620077cd620077c65f62004940565b9162000880565b116200787e575b620077e4600160058701620050a7565b620077f26002860162001781565b9062005053565b92336200780a600287930162001781565b9162007817600562001781565b91620078736200785e62007857620078507f7bda513d59165b1982f5d7ced7788fefcbb9904e99de7f51bc7e5df7017148a39462001549565b9462001726565b9462001a32565b94620078696200079a565b91829182620008dd565b0390a48291620076ff565b3360016200788f6007880162001781565b91620078e0620078cb620078c47f93f882567b72a6dd1bd65998211f195dedf4d3727c8673f7c49289b3f9d7deb49362001549565b936200752a565b93620078d66200079a565b91829182620008dd565b0390a3620077d4565b6200791290620078fd5f60088301620050a7565b60066200790a5f62004940565b91016200478d565b5f620077a8565b62007933336200792c6006890162001781565b906200d89d565b6200774a565b50620079486005820162001781565b6200796b620079646200795e6002880162001781565b62000880565b9162000880565b1015620076f9565b50919290505b805b816200799c620079956200798f8862000e56565b62000880565b9162000880565b101562007b2557620079df620079d86005620079d0620079c8620079c28a889062004a08565b620049f9565b601462001f87565b5001620017ae565b1562000802565b62007a0f575062007a0862007a0182620079fa600162005418565b9062005053565b9162004962565b906200797b565b905062007a2e919293505b62007a286020339062001557565b6200478d565b62007a508162007a4962007a425f62004940565b9162000880565b11620075ab565b3362007a9662007a817f2aeea59856f5616c244717fd488ead1d1b5fd33608d9583a4607b4c4ba3631e49262001549565b9262007a8c6200079a565b91829182620008dd565b0390a262007ab3600762007aac5f849062002c9d565b0162001fff565b62007ac962007ac25f62003156565b9162000933565b14158062007aed575b62007adb575b50565b62007ae6906200da4c565b5f62007ad8565b5062007b08600962007b015f849062002c9d565b0162001fd8565b62007b1e62007b173362001388565b9162001388565b1462007ad2565b905062007a2e9192935062007a1a565b6200770e91925062007708565b5062007b516001840162001fff565b62007b6762007b608662000933565b9162000933565b141562007686565b9192905062007979565b62007b84906200743e565b565b60401c90565b62007b9b62007ba19162007b86565b62001790565b90565b62007bb0905462007b8c565b90565b67ffffffffffffffff1690565b62007bcf62007bd59162001764565b62007bb3565b90565b62007be4905462007bc0565b90565b67ffffffffffffffff1690565b62007c0d62007c0762007c13926200314e565b62000883565b62007be7565b90565b62007c2f62007c2962007c359262005415565b62000883565b62007be7565b90565b62007c439062000a75565b90565b9062007c5b67ffffffffffffffff9162003151565b9181191691161790565b62007c7e62007c7862007c849262007be7565b62000883565b62007be7565b90565b90565b9062007ca462007c9e62007cac9262007c65565b62007c87565b825462007c46565b9055565b60401b90565b9062007ccc68ff00000000000000009162007cb0565b9181191691161790565b9062007cf062007cea62007cf89262005096565b620050a4565b825462007cb6565b9055565b62007d079062007c16565b9052565b919062007d20905f6020850194019062007cfc565b565b9062007d2d6200dbb6565b9162007d4662007d3f5f850162007ba4565b1562000802565b9162007d545f850162007bd8565b8062007d6b62007d645f62007bf4565b9162007be7565b148062007eae575b9062007d8b62007d84600162007c16565b9162007be7565b148062007e7e575b62007da090911562000802565b908162007e6a575b5062007e4c5762007dd99162007dcc62007dc3600162007c16565b5f870162007c8a565b8362007e37575b62008049565b62007de2575b50565b62007df1905f80910162007cd6565b600162007e2d7fc7f505b2f371ae2175ee4913f4499e1f2633a7b5936321eed1cdaeb6115181d29162007e236200079a565b9182918262007d0b565b0390a15f62007ddf565b62007e4660015f870162007cd6565b62007dd3565b5f63f92ee8a960e01b81528062007e6660048201620009b9565b0390fd5b62007e7791501562000802565b5f62007da8565b5062007da062007e8e3062007c38565b3b62007ea562007e9e5f62004940565b9162000880565b14905062007d93565b508362007d73565b5f7f41646d696e20616464726573732063616e6e6f74206265207a65726f00000000910152565b62007eec601c60209262002f14565b62007ef78162007eb6565b0190565b62007f129060208101905f81830391015262007edd565b90565b1562007f1d57565b62007f276200079a565b62461bcd60e51b81528062007f3f6004820162007efb565b0390fd5b60207f726f000000000000000000000000000000000000000000000000000000000000917f436861696e436f6e66696720616464726573732063616e6e6f74206265207a655f8201520152565b62007f9f602260409262002f14565b62007faa8162007f43565b0190565b62007fc59060208101905f81830391015262007f90565b90565b1562007fd057565b62007fda6200079a565b62461bcd60e51b81528062007ff26004820162007fae565b0390fd5b620080019062000a53565b90565b6200800f9062007ff6565b90565b6200801d9062007ff6565b90565b90565b906200803d62008037620080459262008012565b62008020565b825462005180565b9055565b620080e6620080de620080f69362008083846200807b620080746200806e5f62005ca2565b62001388565b9162001388565b141562007f15565b620080b081620080a8620080a16200809b5f62005ca2565b62001388565b9162001388565b141562007fc8565b620080ba6200dbcf565b620080c46200dbe7565b620080ce6200dbff565b620080d86200dc2d565b62008004565b600762008023565b620080f062003178565b6200d223565b506200810d6200810562003755565b60096200478d565b620081236200811b62000b1b565b600a6200478d565b6200813042600b6200478d565b620081466200813e62003755565b600c6200478d565b6200815342601e6200478d565b565b90620081619162007d22565b565b906200816e62005b8d565b5062008179620048ea565b5062008184620048ea565b506200819b62008195601562004df1565b6200d0fd565b91620081a75f62004940565b90620081b35f62004940565b5b80620081d5620081ce620081c8886200101a565b62000880565b9162000880565b1015620082a157620082156200820f62008207620081ff620081f989869062006027565b620045ad565b600e62001734565b84906200174c565b6200680e565b6200822360208201620049f9565b62008239620082325f62004940565b9162000880565b1190811562008274575b506200825b575b620082559062004962565b620081b4565b916200826b62008255916200604b565b9290506200824a565b620082839150606001620049f9565b62008299620082925f62004940565b9162000880565b115f62008243565b5090620082ae8162006c86565b91620082c5620082be8362004913565b9262004913565b620082d05f62004940565b92620082dc5f62004940565b5b80620082fe620082f7620082f18b6200101a565b62000880565b9162000880565b101562008434576200831c6200831689839062006027565b620045ad565b620083406200833a62008332600e849062001734565b87906200174c565b6200680e565b876200834f60208301620049f9565b620083656200835e5f62004940565b9162000880565b11801562008408575b62008388575b505050620083829062004962565b620082dd565b620083e383620083db620083c6602062008382989c96620083bf620083f897620083b9620083fe9b8b909262006027565b620043c7565b01620049f9565b620083d5899187909262004a08565b620043d7565b88906200699b565b620083f2879184909262004a08565b620043d7565b6200604b565b94905f8762008374565b506200841760608301620049f9565b6200842d620084265f62004940565b9162000880565b116200836e565b5094925092945050565b9062008454916200844e6200dc39565b62008456565b565b906200846d9162008467816200dcd5565b6200dd49565b565b906200847b916200843e565b565b62008492906200848c6200de69565b620084e8565b90565b90565b620084b1620084ab620084b79262008495565b62003151565b62000933565b90565b620084e57f360894a13ba1a3210667c828492db98dca3e2076cc3735a920a3ca505d382bbc62008498565b90565b50620084f3620084ba565b90565b6200850a620085046200609e565b6200847d565b90565b9062008523916200851d6200ccd7565b62008525565b565b620085c1620085c792620085ad62008587610120620085506200854a5f889062002c9d565b6200459f565b620085806200856260e08301620045ad565b62008578620085715f62003156565b9162000933565b14156200461b565b0162004649565b620085a66200859f620085996200cd06565b62001388565b9162001388565b14620046b7565b620085bb5f93600f6200398c565b620039a4565b620050a7565b565b90620085d5916200850d565b565b620085e16200434e565b50620085f85f620085f16200deef565b01620017ae565b90565b62008605620066f2565b50620086115f62004940565b6200862762008621601562004df1565b6200cdf2565b91620086335f62004940565b915b826200864c620086458662000880565b9162000880565b10156200869f576200869162008698916200868a620086846200867c62008674601562004df1565b88906200df13565b60136200228b565b62001781565b9062005053565b9262004962565b9162008635565b9150915090565b620086b0620066f2565b50620086bb620066f2565b50620086c6620066f2565b50620086d3600562001781565b4391620086e1600662001781565b91929190565b620086fc90620086f66200ccd7565b620086fe565b565b62008713906200870d6200cd49565b620087af565b6200871d6200cdcc565b565b90565b5f7f4e6f207265776172647320746f20636f6d706f756e6400000000000000000000910152565b62008758601660209262002f14565b620087638162008722565b0190565b6200877e9060208101905f81830391015262008749565b90565b156200878957565b620087936200079a565b62461bcd60e51b815280620087ab6004820162008767565b0390fd5b620087c6620087c05f839062002c9d565b6200871f565b620087f6620087d86007830162001fff565b620087ee620087e75f62003156565b9162000933565b14156200461b565b620088236200881d6200880c600e859062001734565b620088166200cd06565b906200174c565b62004cd4565b6200882e836200973e565b6200885d620088406003830162001781565b620088566200884f5f62004940565b9162000880565b1162008781565b620089476200886f6003830162001781565b92620088896200887f5f62004940565b600385016200478d565b620088d56200889b6004850162001781565b620088b1620088aa5f62004940565b9162000880565b1493620088ce600487920191620088c88362001781565b62005053565b906200478d565b62008925620088fc620088e9600562001781565b620088f5600162005418565b9062005053565b6200891f6200890e602589906200233c565b620089186200cd06565b9062001557565b6200478d565b620089406008859201916200893a8362001781565b62005053565b906200478d565b620089af575b620089576200cd06565b919091620089aa620089956200898e7f95b463bdc019d7f8c84c46296f05b455f0068e91bbd1cb7c45c0f14055edcffe9362001549565b9362001726565b93620089a06200079a565b91829182620008dd565b0390a3565b62008a0d6001620089f0620089e86022620089e1620089cf600562001781565b620089da8662005418565b9062005053565b90620035d0565b8590620035e8565b0162008a0662008a008262001781565b6200604b565b906200478d565b62008a2562008a1d602362004df1565b83906200d0d7565b506200894d565b62008a3790620086e7565b565b9062008a4f9162008a496200ccd7565b62008a52565b90565b9062008a6b915062008a65601762004df1565b6200d1d9565b90565b62008a839062008a7d6200434e565b62008a39565b90565b62008a9b9062008a956200ccd7565b62008a9d565b565b62008ab29062008aac6200cd49565b62008cd8565b62008abc6200cdcc565b565b5f7f506f6f6c207374616b6520616c7265616479206174206d6178696d756d000000910152565b62008af4601d60209262002f14565b62008aff8162008abe565b0190565b62008b1a9060208101905f81830391015262008ae5565b90565b1562008b2557565b62008b2f6200079a565b62461bcd60e51b81528062008b476004820162008b03565b0390fd5b5f7f496e73756666696369656e74207374616b650000000000000000000000000000910152565b62008b81601260209262002f14565b62008b8c8162008b4b565b0190565b62008ba79060208101905f81830391015262008b72565b90565b1562008bb257565b62008bbc6200079a565b62461bcd60e51b81528062008bd46004820162008b90565b0390fd5b905090565b62008bea5f809262008bd8565b0190565b62008bf99062008bdd565b90565b9062008c1262008c0c8362001d9c565b62001d83565b918252565b606090565b3d5f1462008c3a5762008c2f3d62008bfc565b903d5f602084013e5b565b62008c4462008c17565b9062008c38565b5f7f526566756e64206661696c656400000000000000000000000000000000000000910152565b62008c81600d60209262002f14565b62008c8c8162008c4b565b0190565b62008ca79060208101905f81830391015262008c72565b90565b1562008cb257565b62008cbc6200079a565b62461bcd60e51b81528062008cd46004820162008c90565b0390fd5b62008d1462008cf6600762008cef5f859062002c9d565b0162001fff565b62008d0c62008d055f62003156565b9162000933565b14156200461b565b62008d5862008d32600962008d2b5f859062002c9d565b0162001fd8565b62008d5162008d4a62008d446200cd06565b62001388565b9162001388565b1462004bf3565b62008d638162006690565b80156200907b575b62008d769062006d8d565b62008d806200df8a565b62008d9a600862008d935f859062002c9d565b0162001781565b62008dbc8162008db562008dae8562000880565b9162000880565b1062008b1d565b62008dd362008dca6200e031565b92829062005028565b34923462008dec62008de58462000880565b9162000880565b116200905d575b9162008e2b62008e339262008e499462008e1962008e12889262000880565b9162000880565b10159081156200903c575b5062008baa565b839062005053565b600862008e425f869062002c9d565b016200478d565b62008f4162008e7a62008e7462008e63600e869062001734565b62008e6d6200cd06565b906200174c565b62004cd4565b62008e908462008e896200cd06565b906200e087565b62008e9e6001820162001781565b62008eb462008ead5f62004940565b9162000880565b145f14620090115762008eca835f83016200478d565b62008ef062008ee662008ee0601087906200228b565b62001781565b600283016200478d565b62008f1e62008f02601386906200228b565b62008f1762008f118262001781565b6200604b565b906200478d565b5b62008f3a60018492019162008f348362001781565b62005053565b906200478d565b3462008f5862008f518362000880565b9162000880565b1162008fc1575b62008f696200cd06565b91909162008fbc62008fa762008fa07fb1ac87662606c399da5a4ef075519b147bec9cc6938dfcb50cf32dbfe593e0629362001549565b9362001726565b9362008fb26200079a565b91829182620008dd565b0390a3565b6200900b5f8062008fd434859062005028565b62008fde6200cd06565b9062008fe96200079a565b908162008ff68162008bee565b03925af16200900462008c1c565b5062008caa565b62008f5f565b62009036836200902f5f840191620090298362001781565b62005053565b906200478d565b62008f1f565b9050620090556200904e879262000880565b9162000880565b145f62008e24565b925062008e499162008e2b8262008e33939592945092505062008df3565b5062008d766200908b8262008a6e565b905062008d6b565b6200909e9062008a86565b565b90620090b691620090b06200ccd7565b620090b8565b565b620091496200914f92620091406200911a610120620090e3620090dd5f889062002c9d565b6200459f565b62009113620090f560e08301620045ad565b6200910b620091045f62003156565b9162000933565b14156200461b565b0162004649565b62009139620091326200912c6200cd06565b62001388565b9162001388565b14620046b7565b916012620037bb565b620050a7565b565b906200915d91620090a0565b565b90620091769291620091706200ccd7565b6200948c565b565b60207f2073746174650000000000000000000000000000000000000000000000000000917f56616c696461746f72206973206e6f7420696e20616e20757064617461626c655f8201520152565b620091d4602660409262002f14565b620091df8162009178565b0190565b620091fa9060208101905f818303910152620091c5565b90565b156200920557565b6200920f6200079a565b62461bcd60e51b8152806200922760048201620091e3565b0390fd5b5f7f56616c696461746f722069732070656e64696e67207570646174650000000000910152565b62009261601b60209262002f14565b6200926c816200922b565b0190565b620092879060208101905f81830391015262009252565b90565b156200929257565b6200929c6200079a565b62461bcd60e51b815280620092b46004820162009270565b0390fd5b601f602091010490565b620092d891620092d1620066f2565b91620053b2565b565b5f5b828110620092e957505050565b80620092fa5f6001938501620092c2565b01620092dc565b9190601f811162009312575b505050565b81811162009321575b6200930d565b6200933b620093346200935d9462002d00565b91620092b8565b9160206200934982620092b8565b911062009366575b809101910390620092da565b5f80806200931b565b505f62009351565b9062009380905f1990600802620009fc565b191690565b8162009391916200936e565b906002021790565b90620093a58162002f10565b9067ffffffffffffffff82116200947857620093ce82620093c7855462002cc9565b8562009301565b602090601f83116001146200940757918091620093f5935f92620093fa575b505062009385565b90555b565b90915001515f80620093ed565b601f19831691620094188562002d00565b925f5b8181106200945f5750916002939185600196941062009442575b50505002019055620093f8565b62009454910151601f8416906200936e565b90555f808062009435565b919360206001819287870151815501950192016200941b565b62001d42565b906200948a9162009399565b565b9162009593620095a992620094d2620094b46007620094ad5f899062002c9d565b0162001fff565b620094ca620094c35f62003156565b9162000933565b14156200461b565b62009516620094f06009620094e95f899062002c9d565b0162001fd8565b6200950f62009508620095026200cd06565b62001388565b9162001388565b1462004bf3565b620095218562006690565b80156200962c575b6200953490620091fd565b6200955e62009558620095526200954c601962004df1565b6200cdf2565b6200ce17565b62005d5a565b6200957e6200957862009571876200c339565b1562000802565b6200928a565b5f6200958c81879062002c9d565b016200947e565b6005620095a25f859062002c9d565b016200947e565b620095bf620095b88262008a6e565b1562000802565b6200960d575b620095f17f9bf059fba234f770564441193ad4bae1afa1b210231632b8bbe745863bda91019162001726565b90620095fc6200079a565b806200960881620009b9565b0390a2565b620096256200961d601962004df1565b82906200d0d7565b50620095c5565b50620095346200963c8662008a6e565b905062009529565b906200965192916200915f565b565b6200966890620096626200ccd7565b6200966b565b90565b50620096826200967c601b62004df1565b6200d0fd565b90565b620096996200969362005b8d565b62009653565b90565b620096d491620096c8620096ce92620096b4620066f2565b50620096bf620066f2565b506022620035d0565b620035e8565b620049eb565b90620096f06020620096e85f8501620049f9565b9301620049f9565b90565b5f90565b62009701620096f3565b506200970c6200e19e565b90565b62009724906200971e6200ccd7565b62009726565b565b6200973c90620097356200cd06565b906200e1cc565b565b62009749906200970f565b565b9062009766969594939291620097606200ccd7565b62009769565b90565b90620097849695949392916200977e6200cd49565b62009e36565b906200978f6200cdcc565b565b5f7f5374616b6520746f6f206c617267650000000000000000000000000000000000910152565b620097c7600f60209262002f14565b620097d28162009791565b0190565b620097ed9060208101905f818303910152620097b8565b90565b15620097f857565b620098026200079a565b62461bcd60e51b8152806200981a60048201620097d6565b0390fd5b5f7f70656e64696e67416464506f6f6c2065786365656473206c696d697400000000910152565b62009854601c60209262002f14565b6200985f816200981e565b0190565b6200987a9060208101905f81830391015262009845565b90565b156200988557565b6200988f6200079a565b62461bcd60e51b815280620098a76004820162009863565b0390fd5b5190565b620098da620098d092602092620098c681620098ab565b9485809362008bd8565b9384910162002f1d565b0190565b620098e991620098af565b90565b620098f66200079a565b3d5f823e3d90fd5b60207f726573733a2063616e6e6f742072652d72656769737465720000000000000000917f506f6f6c4964207265676973746572656420627920616e6f74686572206164645f8201520152565b6200995a603860409262002f14565b6200996581620098fe565b0190565b620099809060208101905f8183039101526200994b565b90565b156200998b57565b620099956200079a565b62461bcd60e51b815280620099ad6004820162009969565b0390fd5b620099ca620099c4620099d0926200314e565b62000883565b62002f61565b90565b60407f7465720000000000000000000000000000000000000000000000000000000000917f56616c696461746f72206861732070656e64696e67207769746864726177206f5f8201527f7220616374697665207374617475733a2063616e6e6f742072652d726567697360208201520152565b62009a55604360609262002f14565b62009a6081620099d3565b0190565b62009a7b9060208101905f81830391015262009a46565b90565b1562009a8657565b62009a906200079a565b62461bcd60e51b81528062009aa86004820162009a64565b0390fd5b5f7f56616c696461746f722069732070656e64696e67207265676973746572000000910152565b62009ae2601d60209262002f14565b62009aed8162009aac565b0190565b62009b089060208101905f81830391015262009ad3565b90565b1562009b1357565b62009b1d6200079a565b62461bcd60e51b81528062009b356004820162009af1565b0390fd5b5f7f56616c696461746f7220616c7265616479207265676973746572656400000000910152565b62009b6f601c60209262002f14565b62009b7a8162009b39565b0190565b62009b959060208101905f81830391015262009b60565b90565b1562009ba057565b62009baa6200079a565b62461bcd60e51b81528062009bc26004820162009b7e565b0390fd5b60207f6c20666972737400000000000000000000000000000000000000000000000000917f4d75737420636f6d706c6574652070726576696f7573207769746864726177615f8201520152565b62009c22602760409262002f14565b62009c2d8162009bc6565b0190565b62009c489060208101905f81830391015262009c13565b90565b1562009c5357565b62009c5d6200079a565b62461bcd60e51b81528062009c756004820162009c31565b0390fd5b5190565b62009c89905162002f61565b90565b9062009e1f6101a0600c62009e269462009cb65f820162009caf5f880162009c79565b906200947e565b62009cd36001820162009ccc6020880162009c79565b906200947e565b62009cf06002820162009ce96040880162009c79565b906200947e565b62009d0d6003820162009d066060880162009c79565b906200947e565b62009d2a6004820162009d236080880162009c79565b906200947e565b62009d476005820162009d4060a0880162009c79565b906200947e565b62009d646006820162009d5d60c0880162009c7d565b906200545f565b62009d816007820162009d7a60e08801620045ad565b90620051d4565b62009d9f6008820162009d986101008801620049f9565b906200478d565b62009dbd6009820162009db6610120880162004649565b90620051a0565b62009ddb600a820162009dd46101408801620049f9565b906200478d565b62009df9600b820162009df26101608801620049f9565b906200478d565b62009e1682820162009e0f610180880162009c7d565b906200545f565b01920162004649565b9062005cd5565b565b9062009e349162009c8c565b565b95939195949290945062009e9a62009e4d6200d05b565b62009e7b62009e5b6200df8a565b9162009e7362009e6c349262000880565b9162000880565b101562008baa565b62009e9262009e8b349262000880565b9162000880565b1115620097f0565b62009ec462009ebe62009eb862009eb2601762004df1565b6200cdf2565b6200ce17565b6200987d565b60205f62009f1762009ef462009f0362009ede8b6200e3c7565b62009ee86200079a565b928391878301620098de565b86820181038252038262001d56565b62009f0d6200079a565b91829182620098de565b039060025afa156200a3b45762009f2f5f5162003151565b9562009f4a600762009f435f8a9062002c9d565b0162001fff565b62009f6062009f595f62003156565b9162000933565b036200a2e9575b62009f8762009f8162009f7a8962008a6e565b1562000802565b62009b0b565b62009fa762009fa162009f9a896200b324565b1562000802565b62004dc3565b62009fe262009fc5600662009fbe5f8b9062002c9d565b0162002df6565b62009fdb62009fd45f620099b1565b9162002f61565b1462009b98565b6200a0306200a02a6200a02360086200a01c6200a0166200a0058d600e62001734565b6200a00f6200cd06565b906200174c565b62004cd4565b01620017ae565b1562000802565b62009c4b565b6200a0476200a0415f899062002c9d565b6200459f565b955f870152602086015260408501526060840152608083015260a08201526200a07e6200a0745f620099b1565b60c08301620043b7565b6200a08d8260e08301620043c7565b6200a0b4346200a0ad6101008401916200a0a783620049f9565b62005053565b90620043d7565b6200a0cd6200a0c26200cd06565b6101208301620043e7565b6200a0e76200a0dc5f62004940565b6101408301620043d7565b6200a0ff816200a0f95f859062002c9d565b62009e28565b6200a1216200a10d62003678565b6200a11b601185906200228b565b6200478d565b6200a13b60016200a13560128590620037bb565b620050a7565b6200a2336200a16c6200a1666200a155600e869062001734565b6200a15f6200cd06565b906200174c565b62004cd4565b6200a182846200a17b6200cd06565b906200e087565b6200a1906001820162001781565b6200a1a66200a19f5f62004940565b9162000880565b145f146200a2be576200a1bc345f83016200478d565b6200a1e26200a1d86200a1d2601087906200228b565b62001781565b600283016200478d565b6200a2106200a1f4601386906200228b565b6200a2096200a2038262001781565b6200604b565b906200478d565b5b6200a22c6001349201916200a2268362001781565b62005053565b906200478d565b6200a24b6200a243601762004df1565b83906200d0d7565b506200a2566200cd06565b906200a267610100849201620049f9565b916200a2b86200a2a36200a29c7f2989ceac929c29f80c7e4ff09785b89afe32e9a5667faa7e7f8d15e000762d829362001549565b9362001726565b936200a2ae6200079a565b91829182620008dd565b0390a390565b6200a2e3346200a2dc5f8401916200a2d68362001781565b62005053565b906200478d565b6200a211565b6200a32d6200a30760096200a3005f8b9062002c9d565b0162001fd8565b6200a3266200a31f6200a3196200cd06565b62001388565b9162001388565b1462009983565b6200a34760066200a3405f8a9062002c9d565b0162002df6565b6200a35d6200a3565f620099b1565b9162002f61565b14806200a376575b6200a3709062009a7e565b62009f67565b506200a3706200a395600b6200a38e5f8b9062002c9d565b0162001781565b6200a3ab6200a3a45f62004940565b9162000880565b1490506200a365565b620098ec565b906200a3d495949392916200a3ce6200609e565b6200974b565b90565b6200a3f6906200a3f06200a3ea62003178565b6200d12d565b6200a585565b565b60207f64726573732063616e277420626520746865207a65726f206164647265737300917f546865206e657720636861696e20636f6e66696720636f6e74726163742061645f8201520152565b6200a454603f60409262002f14565b6200a45f816200a3f8565b0190565b6200a47a9060208101905f8183039101526200a445565b90565b156200a48557565b6200a48f6200079a565b62461bcd60e51b8152806200a4a7600482016200a463565b0390fd5b6200a4ba6200a4c09162001764565b62000a00565b90565b6200a4cf90546200a4ab565b90565b60207f73616d65206173207468652063757272656e7420616464726573730000000000917f4e657720636861696e20636f6e666967206164647265737320697320746865205f8201520152565b6200a52e603b60409262002f14565b6200a539816200a4d2565b0190565b6200a5549060208101905f8183039101526200a51f565b90565b156200a55f57565b6200a5696200079a565b62461bcd60e51b8152806200a581600482016200a53d565b0390fd5b6200a5b2816200a5aa6200a5a36200a59d5f62005ca2565b62001388565b9162001388565b14156200a47d565b6200a5ea816200a5e26200a5db6200a5d56200a5cf60076200a4c3565b62000a83565b62001388565b9162001388565b14156200a557565b6200a6006200a5fa60076200a4c3565b62000a83565b6200a6176200a60f8362008004565b600762008023565b906200a64f6200a6487fa8286340f4af6cd63be31b2217d60ff7cfc76da3e0d6f1b5ad2f67cd6e3967309362001549565b9162001549565b916200a65a6200079a565b806200a66681620009b9565b0390a3565b6200a676906200a3d7565b565b6200a68c6200a68662003178565b6200d12d565b6200a6966200a698565b565b6200a6a26200e6b8565b565b6200a6ae6200a678565b565b906200a6c6916200a6c06200ccd7565b6200a807565b565b5f7f4e6577206f776e657220616464726573732063616e6e6f74206265207a65726f910152565b6200a6fd6020809262002f14565b6200a708816200a6c8565b0190565b6200a7239060208101905f8183039101526200a6ef565b90565b156200a72e57565b6200a7386200079a565b62461bcd60e51b8152806200a750600482016200a70c565b0390fd5b60207f7200000000000000000000000000000000000000000000000000000000000000917f4e6577206f776e65722063616e6e6f742062652063757272656e74206f776e655f8201520152565b6200a7b0602160409262002f14565b6200a7bb816200a754565b0190565b6200a7d69060208101905f8183039101526200a7a1565b90565b156200a7e157565b6200a7eb6200079a565b62461bcd60e51b8152806200a803600482016200a7bf565b0390fd5b6200a8436200a82560076200a81e5f859062002c9d565b0162001fff565b6200a83b6200a8345f62003156565b9162000933565b14156200461b565b6200a8876200a86160096200a85a5f859062002c9d565b0162001fd8565b6200a8806200a8796200a8736200cd06565b62001388565b9162001388565b1462004bf3565b6200a8b4826200a8ac6200a8a56200a89f5f62005ca2565b62001388565b9162001388565b14156200a726565b6200a8f0826200a8e86200a8e16200a8db60096200a8d45f889062002c9d565b0162001fd8565b62001388565b9162001388565b14156200a7d9565b6200a90b82600c6200a9045f859062002c9d565b0162005cd5565b906200a9166200cd06565b6200a9576200a9506200a9497ee5d139b0501e0a8d2ba94e7a5832867336bf67a8ffb6ec49c2459c1adcaafe9562001726565b9262001549565b9262001549565b926200a9626200079a565b806200a96e81620009b9565b0390a4565b906200a97f916200a6b0565b565b6200a98b620066f2565b506200a996620066f2565b506200a9a1620066f2565b506200a9b86200a9b2601562004df1565b6200cdf2565b906200a9cf6200a9c9601762004df1565b6200cdf2565b906200a9e66200a9e0601b62004df1565b6200cdf2565b90565b6200aa22915f6200aa156200aa1c936200aa026200434e565b50826200aa0e6200d1ff565b01620066a8565b01620039a4565b620017ae565b90565b906200aa3b916200aa356200ccd7565b6200aa3d565b565b6200aada6200aae0926200aac56200aa9f6101206200aa686200aa625f889062002c9d565b6200459f565b6200aa986200aa7a60e08301620045ad565b6200aa906200aa895f62003156565b9162000933565b14156200461b565b0162004649565b6200aabe6200aab76200aab16200cd06565b62001388565b9162001388565b14620046b7565b6200aad4600193600f6200398c565b620039a4565b620050a7565b565b906200aaee916200aa25565b565b906200ab0792916200ab016200ccd7565b6200ab0b565b9091565b906200ab2292916200ab1c6200cd49565b6200ac70565b90916200ab2e6200cdcc565b565b60207f696e737465616400000000000000000000000000000000000000000000000000917f557365206578697456616c696461746f722f77697468647261775374616b65205f8201520152565b6200ab8c602760409262002f14565b6200ab97816200ab30565b0190565b6200abb29060208101905f8183039101526200ab7d565b90565b156200abbd57565b6200abc76200079a565b62461bcd60e51b8152806200abdf600482016200ab9b565b0390fd5b5f7f4e6f207374616b6520746f20756e64656c656761746500000000000000000000910152565b6200ac19601660209262002f14565b6200ac24816200abe3565b0190565b6200ac3f9060208101905f8183039101526200ac0a565b90565b156200ac4a57565b6200ac546200079a565b62461bcd60e51b8152806200ac6c600482016200ac28565b0390fd5b92919250506200ac8c6200ac865f849062002c9d565b6200871f565b6200acbc6200ac9e6007830162001fff565b6200acb46200acad5f62003156565b9162000933565b14156200461b565b6200ace96200ace36200acd2600e869062001734565b6200acdc6200cd06565b906200174c565b62004cd4565b926200acf86009830162001fd8565b6200ad176200ad106200ad0a6200cd06565b62001388565b9162001388565b146200b2a5575b6200ad4b6200ad456200ad34602584906200233c565b6200ad3e6200cd06565b9062001557565b62001781565b6200ad596004860162001781565b6200ad6f6200ad685f62004940565b9162000880565b1190816200b27a575b506200b265576200ad89816200973e565b6200adb86200ad9b6001860162001781565b6200adb16200adaa5f62004940565b9162000880565b116200ac42565b6200addb6200add56200adce60088701620017ae565b1562000802565b62004d36565b6200ae026200aded6001860162001781565b6200adfb6003870162001781565b9062005053565b936200ae105f820162001781565b92856200ae286200ae218662000880565b9162000880565b115f146200b250576200af226200ae4187869062005028565b5b916200af1b60086200ae576001870162001781565b6200ae668b600589016200478d565b6200aed96200ae746200ef38565b976200ae8489600683016200478d565b6200ae936001858301620050a7565b6200aeac6200aea25f62004940565b600183016200478d565b6200aec56200aebb5f62004940565b600383016200478d565b5f6200aed18162004940565b91016200478d565b6200af076200aeeb60138a906200228b565b6200af006200aefa8262001781565b620050cd565b906200478d565b9201916200af158362001781565b62005028565b906200478d565b6200af2d8362008a6e565b806200b20f575b6200b1f0575b6200af458362006690565b806200b1af575b6200b11f575b6200af5e600562001781565b826200af6a9162005053565b959360146200af799062001f7a565b9260146200af87906200510f565b926200af926200cd06565b92869288908b90915f9394956200afa862005112565b975f8901906200afb891620043e7565b60208801906200afc891620043c7565b60408701906200afd891620043d7565b60608601906200afe891620043d7565b60808501906200aff891620043d7565b60a08401906200b0089162005122565b60c08301906200b01891620043d7565b60e08201906200b02891620043d7565b6200b0339162005310565b601f6200b03f6200cd06565b6200b04a9162001afb565b6200b055906200534b565b816200b06191620053da565b601f6200b06d6200cd06565b6200b0789162001afb565b6200b0839062001b13565b60016200b0909062005418565b6200b09b9162005028565b906021906200b0aa9162001a54565b906200b0b6916200478d565b6200b0c06200cd06565b90829185927fab097068a1df6edf9d7cb646f319adb16558a498e61f47aca785ae107b49a998916200b0f29062001549565b926200b0fe9062001726565b936200b1096200079a565b9182916200b1189183620026f6565b0390a39190565b6200b1496200b1436200b13d6200b137601b62004df1565b6200cdf2565b6200ce17565b62004e53565b6200b1616200b159601b62004df1565b84906200d0d7565b50826200b18f7fe5643713a53bda27807f88ea69c5d9f7d0b71945b2245c6425bd544e399e872c9162001726565b906200b19a6200079a565b806200b1a681620009b9565b0390a26200af52565b506200b1ca60086200b1c35f869062002c9d565b0162001781565b6200b1e96200b1e26200b1dc6200d05b565b62000880565b9162000880565b106200af4c565b6200b2086200b200601762004df1565b84906200d0b1565b506200af3a565b506200b22a60086200b2235f869062002c9d565b0162001781565b6200b2496200b2426200b23c6200d05b565b62000880565b9162000880565b106200af34565b6200af226200b25f5f62004940565b6200ae42565b90506200b2749192506200e985565b91909190565b90506200b29d6200b2966200b290600562001781565b62000880565b9162000880565b115f6200ad78565b6200b2c56200b2bf6200b2b8836200b324565b1562000802565b6200abb5565b6200ad1e565b6200b2eb906200b2da620066f2565b6200b2e4620066f2565b906200aaf0565b9091565b906200b305916200b2ff6200ccd7565b6200b308565b90565b906200b32191506200b31b601b62004df1565b6200d1d9565b90565b6200b339906200b3336200434e565b6200b2ef565b90565b6200b351906200b34b6200ccd7565b6200b354565b90565b506200b36b6200b365601562004df1565b6200d0fd565b90565b6200b3826200b37c62005b8d565b6200b33c565b90565b6200b3a16200b3a7916200b398620066f2565b5060116200228b565b62001781565b90565b606090565b67ffffffffffffffff81116200b3c85760208091020190565b62001d42565b906200b3e46200b3de836200b3af565b62001d83565b918252565b6200b3f661010062001d83565b90565b5f90565b5f90565b6200b40b6200b3e9565b90602080808080808080896200b4206200b3f9565b8152016200b42d6200b3fd565b8152016200b43a62006b5d565b8152016200b44762006b5d565b8152016200b45462006b5d565b8152016200b46162006b61565b8152016200b46e62006b5d565b8152016200b47b62006b5d565b81525050565b6200b48b6200b401565b90565b5f5b8281106200b49d57505050565b6020906200b4aa6200b481565b81840152016200b490565b906200b4e06200b4c5836200b3ce565b926020806200b4d586936200b3af565b92019103906200b48e565b565b906200b4ee8262003222565b8110156200b500576020809102010190565b62000ca1565b906200b5ef6200b5e560076200b51b6200b3e9565b946200b5366200b52d5f830162001fd8565b5f8801620043e7565b6200b5526200b5486001830162001fff565b60208801620043c7565b6200b56e6200b5646002830162001781565b60408801620043d7565b6200b58a6200b5806003830162001781565b60608801620043d7565b6200b5a66200b59c6004830162001781565b60808801620043d7565b6200b5c26200b5b860058301620017ae565b60a0880162005122565b6200b5de6200b5d46006830162001781565b60c08801620043d7565b0162001781565b60e08401620043d7565b565b6200b5fc906200b506565b90565b906200b60a6200b3aa565b506200b63a6200b6346200b62b6200b625601f869062001afb565b62007519565b93602062001557565b62001781565b906200b6465f62004940565b90825b806200b66a6200b6636200b65d8862000e56565b62000880565b9162000880565b10156200b6dd576200b6ad6200b6a660056200b69e6200b6966200b6908a879062004a08565b620049f9565b601462001f87565b5001620017ae565b1562000802565b6200b6c4575b6200b6be9062004962565b6200b649565b916200b6d46200b6be916200604b565b9290506200b6b3565b5091906200b6eb906200b4b5565b906200b6f75f62004940565b905b806200b71a6200b7136200b70d8862000e56565b62000880565b9162000880565b10156200b7bf576200b74f6200b7486200b7406200b73a88859062004a08565b620049f9565b601462001f87565b5062007527565b6200b7686200b76160058301620017ae565b1562000802565b6200b780575b506200b77a9062004962565b6200b6f9565b6200b77a91926200b7af6200b7b792866200b79c84926200b5f1565b6200b7a883836200b4e2565b526200b4e2565b51506200604b565b91906200b76e565b50509150565b6200b7cf620066f2565b506200b7dc601462001f7a565b90565b6200b7f4906200b7ee6200ccd7565b6200b7f6565b565b6200b80b906200b8056200cd49565b6200b95b565b6200b8156200cdcc565b565b5f7f44656c65676174696f6e2064697361626c656400000000000000000000000000910152565b6200b84d601360209262002f14565b6200b858816200b817565b0190565b6200b8739060208101905f8183039101526200b83e565b90565b156200b87e57565b6200b8886200079a565b62461bcd60e51b8152806200b8a0600482016200b85c565b0390fd5b5f7f4e6f7420696e2077686974656c69737400000000000000000000000000000000910152565b6200b8da601060209262002f14565b6200b8e5816200b8a4565b0190565b6200b9009060208101905f8183039101526200b8cb565b90565b156200b90b57565b6200b9156200079a565b62461bcd60e51b8152806200b92d600482016200b8e9565b0390fd5b6200b93c9062000a53565b90565b6200b94a906200b931565b90565b6200b9589062000a75565b90565b6200b9726200b96c5f839062002c9d565b6200871f565b6200b9a26200b9846007830162001fff565b6200b99a6200b9935f62003156565b9162000933565b14156200461b565b6200b9c46200b9be6200b9b860128590620037bb565b620017ae565b6200b876565b6200b9ce6200df8a565b906200b9dd6008820162001781565b906200ba00826200b9f96200b9f28662000880565b9162000880565b1062008b1d565b6200ba176200ba0e6200e031565b93839062005028565b3493346200ba306200ba298462000880565b9162000880565b116200be45575b906200ba66916200ba546200ba4d879262000880565b9162000880565b10159081156200be24575b5062008baa565b6200ba946200ba8e6200ba7c600f87906200398c565b6200ba875f62005ca2565b90620039a4565b620017ae565b6200baab6200baa4600162000802565b9162000802565b146200bde7575b346200bac96200bac28562000880565b9162000880565b116200bd98575b6200bc179060086200bc0f6200bb086200bb026200baf1600e8a9062001734565b6200bafb6200cd06565b906200174c565b62004cd4565b946200bb14886200973e565b6200bb226001870162001781565b6200bb386200bb315f62004940565b9162000880565b14806200bd6c575b6200bd1f575b6200bbb76200bb586004880162001781565b6200bb6e6200bb675f62004940565b9162000880565b14966200bb96896200bb8f60048401916200bb898362001781565b62005053565b906200478d565b6200bbb05f8a9201916200bbaa8362001781565b62005053565b906200478d565b6200bc076200bbde6200bbcb600562001781565b6200bbd7600162005418565b9062005053565b6200bc016200bbf060258c906200233c565b6200bbfa6200cd06565b9062001557565b6200478d565b869062005053565b91016200478d565b6200bca2575b6200bc276200cd06565b9190916200bc4d6200bc3a600562001781565b6200bc46600162005418565b9062005053565b6200bc846200bc7d7fa70f2e218f6964d77a9ee113f3915f3b1dfbbfe3944077b6aad54417c6c8a92a9362001549565b9362001726565b936200bc9d6200bc936200079a565b92839283620026f6565b0390a3565b6200bd0060016200bce36200bcdb60226200bcd46200bcc2600562001781565b6200bccd8662005418565b9062005053565b90620035d0565b8590620035e8565b016200bcf96200bcf38262001781565b6200604b565b906200478d565b6200bd186200bd10602362004df1565b83906200d0d7565b506200bc1d565b6200bd386200bd2e5f62004940565b600288016200478d565b6200bd666200bd4a60138a906200228b565b6200bd5f6200bd598262001781565b6200604b565b906200478d565b6200bb46565b506200bd7b6004870162001781565b6200bd916200bd8a5f62004940565b9162000880565b146200bb40565b5f8080806200bdba6200bdb46200bdae6200cd06565b6200b93f565b6200b94d565b6200bdc734899062005028565b908282156200bddd575bf16200bad057620098ec565b506108fc6200bdd1565b6200be1e6200be186200be126200be01600f88906200398c565b6200be0b6200cd06565b90620039a4565b620017ae565b6200b903565b6200bab2565b90506200be3d6200be36869262000880565b9162000880565b145f6200ba5f565b9350806200ba6691949091506200ba37565b6200be62906200b7df565b565b6200be79906200be736200ccd7565b6200be7c565b90565b506200be936200be8d601762004df1565b6200d0fd565b90565b6200beaa6200bea462005b8d565b6200be64565b90565b91906200beb962005b8d565b506200bec5836200101a565b906200bed15f62004940565b5b806200bef36200beec6200bee6856200101a565b62000880565b9162000880565b10156200bf57576200bf276200bf206200bf196200bf1385859062006027565b620045ad565b876200f040565b1562000802565b6200bf3e575b6200bf389062004962565b6200bed2565b916200bf4e6200bf38916200604b565b9290506200bf2d565b50906200bf649062006c86565b906200bf705f62004940565b5b806200bf926200bf8b6200bf85886200101a565b62000880565b9162000880565b10156200bfda576200bfd4906200bfce6200bfb96200bfb388849062006027565b620045ad565b6200bfc8869184909262006027565b620043c7565b62004962565b6200bf71565b50926200bfe7816200101a565b906200bff35f62004940565b5b806200c0156200c00e6200c008896200101a565b62000880565b9162000880565b10156200c095576200c0336200c02d87839062006027565b620045ad565b6200c04b6200c0448483906200f040565b1562000802565b6200c063575b506200c05d9062004962565b6200bff4565b6200c05d91936200c0876200c08d926200c081889184909262006027565b620043c7565b6200604b565b92906200c051565b50505090915090565b906200c0bf916200c0b96200c0b382620066c0565b6200d12d565b6200c0c1565b565b906200c0cd916200d2f5565b50565b906200c0dc916200c09e565b565b606090565b5f90565b602090818080808080808080808080806200c101620043f7565b9e8f6200c10d6200c0de565b8152016200c11a6200c0de565b8152016200c1276200c0de565b8152016200c1346200c0de565b8152016200c1416200c0de565b8152016200c14e6200c0de565b8152016200c15b6200c0e3565b8152016200c1686200b3fd565b8152016200c17562006b5d565b8152016200c1826200b3f9565b8152016200c18f62006b5d565b8152016200c19c62006b5d565b8152016200c1a96200c0e3565b8152016200c1b66200b3f9565b81525050565b6200c1c66200c0e7565b90565b6200c1e46200c1ea916200c1dc6200c1bc565b505f62002c9d565b6200459f565b90565b906200c203916200c1fd6200ccd7565b6200c205565b565b906200c225916200c21f6200c21962003178565b6200d12d565b6200c227565b565b906200c233916200d482565b565b906200c241916200c1ed565b565b906200c24e6200434e565b506200c28060806200c2796200c2736200c26b600e879062001734565b85906200174c565b6200680e565b01620049f9565b6200c2966200c28f5f62004940565b9162000880565b146200c2e4576200c2d86200c2d26200c2cc6200c2df936200c2c66200c2bd600562001781565b9660256200233c565b62001557565b62001781565b62000880565b9162000880565b101590565b50505f90565b506200c2f56200ccd7565b565b6200c302906200c2ea565b565b906200c31a916200c3146200ccd7565b6200c31d565b90565b906200c33691506200c330601962004df1565b6200d1d9565b90565b6200c34e906200c3486200434e565b6200c304565b90565b90565b6200c36d6200c3676200c373926200c351565b62000883565b62000880565b90565b6200c380620066f2565b506200c3bd6200c39f60076200c3985f859062002c9d565b0162001fff565b6200c3b56200c3ae5f62003156565b9162000933565b14156200461b565b6200c3c9600662001781565b6200c3df6200c3d85f62004940565b9162000880565b1480156200c474575b6200c465576200c44f6200c462916200c4486200c4356200c422600a6200c41b6200c4138262001781565b955f62002c9d565b0162001781565b6200c42e60646200c354565b9062004faf565b6200c441600662001781565b9062005000565b9062004faf565b6200c45b60646200c354565b9062005000565b90565b506200c4715f62004940565b90565b506200c48f600a6200c4885f849062002c9d565b0162001781565b6200c4a56200c49e5f62004940565b9162000880565b146200c3e8565b6200c4b662005b8d565b506200c4cd6200c4c7601562004df1565b6200d0fd565b906200c4e46200c4de601762004df1565b6200d0fd565b916200c4fb6200c4f5601b62004df1565b6200d0fd565b6200c506826200101a565b916200c5125f62004940565b5b806200c5346200c52d6200c527896200101a565b62000880565b9162000880565b10156200c5a3576200c5736200c56c6200c55a6200c55489859062006027565b620045ad565b6200c566601562004df1565b6200d1d9565b1562000802565b6200c58a575b6200c5849062004962565b6200c513565b926200c59a6200c584916200604b565b9390506200c579565b509290936200c5b25f62004940565b5b806200c5d46200c5cd6200c5c7896200101a565b62000880565b9162000880565b10156200c679576200c5f26200c5ec87839062006027565b620045ad565b6200c6156200c60e6200c606601562004df1565b83906200d1d9565b1562000802565b90816200c64e575b506200c635575b6200c62f9062004962565b6200c5b3565b926200c6456200c62f916200604b565b9390506200c624565b6200c67291506200c66b906200c665601762004df1565b6200d1d9565b1562000802565b5f6200c61d565b50916200c68a909493919462006c86565b916200c6965f62004940565b946200c6a25f62004940565b955b866200c6c56200c6be6200c6b8876200101a565b62000880565b9162000880565b10156200c719576200c70b6200c712916200c7056200c6f06200c6ea888c9062006027565b620045ad565b6200c6ff899184909262006027565b620043c7565b6200604b565b9662004962565b956200c6a4565b9250939094506200c72a5f62004940565b5b806200c74c6200c7456200c73f896200101a565b62000880565b9162000880565b10156200c808576200c76a6200c76487839062006027565b620045ad565b6200c78d6200c7866200c77e601562004df1565b83906200d1d9565b1562000802565b806200c7de575b6200c7ac575b506200c7a69062004962565b6200c72b565b6200c7a691936200c7d06200c7d6926200c7ca889184909262006027565b620043c7565b6200604b565b92906200c79a565b506200c8026200c7fb6200c7f3601b62004df1565b83906200d1d9565b1562000802565b6200c794565b5093506200c8165f62004940565b5b806200c8386200c8316200c82b886200101a565b62000880565b9162000880565b10156200c8f4576200c8566200c85086839062006027565b620045ad565b6200c8796200c8726200c86a601562004df1565b83906200d1d9565b1562000802565b806200c8ca575b6200c898575b506200c8929062004962565b6200c817565b6200c89291926200c8bc6200c8c2926200c8b6879184909262006027565b620043c7565b6200604b565b91906200c886565b506200c8ee6200c8e76200c8df601762004df1565b83906200d1d9565b1562000802565b6200c880565b50509150565b91906200c96a6200c970916200c90f620066f2565b506200c91a620066f2565b506200c9256200434e565b506200c9646200c95b60806200c9546200c94e6200c946600e8b9062001734565b86906200174c565b6200680e565b01620049f9565b9560256200233c565b62001557565b62001781565b90826200c9886200c9815f62004940565b9162000880565b11806200c993575b90565b506200c9a0600562001781565b6200c9b66200c9af8462000880565b9162000880565b10156200c990565b906200c9d4916200c9ce6200ccd7565b6200c9d7565b90565b906200c9ed916200c9e76200cd49565b6200ca87565b906200c9f86200cdcc565b565b5f7f4e6f207265776172647320746f20636c61696d00000000000000000000000000910152565b6200ca30601360209262002f14565b6200ca3b816200c9fa565b0190565b6200ca569060208101905f8183039101526200ca21565b90565b156200ca6157565b6200ca6b6200079a565b62461bcd60e51b8152806200ca83600482016200ca3f565b0390fd5b506200cab56200caaf6200ca9e600e849062001734565b6200caa86200cd06565b906200174c565b62004cd4565b906200cac1816200973e565b6200cb316200cad36003840162001781565b926200caf6846200caef6200cae85f62004940565b9162000880565b116200ca59565b6200cb0f6200cb055f62004940565b600383016200478d565b6200cb2a6007859201916200cb248362001781565b62005053565b906200478d565b6200cb3b6200cd06565b9082916200cb8e6200cb796200cb727fdfe866d7c08bef238dd5e4f60399e266a24c579cb669f3a39d012c99778ab1b49362001549565b9362001726565b936200cb846200079a565b91829182620008dd565b0390a36200cb9b6200cd06565b600182916200cbef6200cbda6200cbd37f93f882567b72a6dd1bd65998211f195dedf4d3727c8673f7c49289b3f9d7deb49362001549565b936200752a565b936200cbe56200079a565b91829182620008dd565b0390a390565b6200cc0a906200cc04620066f2565b6200c9be565b90565b6200cc5b916200cc4f6200cc55926200cc25620066f2565b506200cc30620066f2565b506200cc3b6200434e565b506200cc46620066f2565b50600e62001734565b6200174c565b6200680e565b6200cc6960a08201620049f9565b906200cc876101006200cc7f60c08401620049f9565b9201620051fa565b926200cca06200cc98600562001781565b839062005053565b929193929193929190565b6200ccb56200434e565b506200ccd36200cccc6301ffc9a760e01b620007ac565b91620007ac565b1490565b6200cce1620085d7565b6200cce857565b5f63d93c066560e01b8152806200cd0260048201620009b9565b0390fd5b6200cd10620096f3565b503390565b90565b6200cd316200cd2b6200cd37926200cd15565b62000883565b62000880565b90565b6200cd4660026200cd18565b90565b6200cd536200f0d3565b6200cd605f820162001781565b6200cd7f6200cd786200cd726200cd3a565b62000880565b9162000880565b146200cd9f576200cd9d905f6200cd956200cd3a565b91016200478d565b565b5f633ee5aeb560e01b8152806200cdb960048201620009b9565b0390fd5b6200cdc9600162005418565b90565b6200cded6200cdda6200f0d3565b5f6200cde56200cdbd565b91016200478d565b565b90565b6200ce0e5f6200ce14926200ce06620066f2565b50016200cdef565b6200f0f7565b90565b6200ce216200434e565b506200ce416200ce3a6200ce3462002667565b62000880565b9162000880565b116200ce4c57600190565b5f90565b5f90565b5f7f7374616b696e672e77697468647261775f6566666563746976655f65706f6368910152565b6200ce87602062003415565b906200ce96602083016200ce54565b565b6200cea26200ce7b565b90565b6200ceb05f62003415565b90565b6200cebd6200cea5565b90565b60207f7468616e20300000000000000000000000000000000000000000000000000000917f57697468647261772077696e646f77206d7573742062652067726561746572205f8201520152565b6200cf1c602660409262002f14565b6200cf27816200cec0565b0190565b6200cf429060208101905f8183039101526200cf0d565b90565b156200cf4d57565b6200cf576200079a565b62461bcd60e51b8152806200cf6f600482016200cf2b565b0390fd5b6200cf7d6200ce50565b506200cf926200cf8c6200ce98565b6200f117565b6200cf9c620066f2565b506200cfb3816200cfac6200ceb3565b906200f1b5565b5f146200cff557506200cff26200cfc962003519565b5b6200cfec816200cfe56200cfde5f62004940565b9162000880565b116200cf45565b6200f32c565b90565b6200d0046200cff2916200f273565b6200cfca565b5f7f7374616b696e672e6d696e5f7374616b696e675f706f6f6c5f76616c75650000910152565b6200d03d601e62003415565b906200d04c602083016200d00a565b565b6200d0586200d031565b90565b6200d065620066f2565b506200d07a6200d0746200d04e565b6200f117565b6200d090816200d0896200ceb3565b906200f1b5565b6200d0a3576200d0a0906200f273565b90565b506200d0ae62001f16565b90565b906200d0ce5f6200d0d4936200d0c66200434e565b50016200cdef565b6200f40e565b90565b906200d0f45f6200d0fa936200d0ec6200434e565b50016200cdef565b6200f57e565b90565b6200d1195f6200d11f926200d11162005b8d565b50016200cdef565b6200f6ba565b6200d12962005b8d565b5090565b6200d143906200d13c6200cd06565b906200f6fc565b565b906200d1506200d1ff565b916200d17a6200d16082620066c0565b9360016200d1735f8693018590620066a8565b01620051d4565b916200d1bd6200d1b66200d1af7fbd79b86ffe0ab8e8776151514217cd7cacd52c909f66475c3af44e129f0b00ff9562001726565b9262001726565b9262001726565b926200d1c86200079a565b806200d1d481620009b9565b0390a4565b906200d1f65f6200d1fc936200d1ee6200434e565b50016200cdef565b6200f73e565b90565b7f02dd7bc7dec4dceedda775e58dd541e08a116c6c53815c0bd028192f7b62680090565b6200d22d6200434e565b506200d2386200d1ff565b6200d2506200d2498385906200a9e9565b1562000802565b5f146200d2ee576200d281906200d27b5f6200d27281600194018690620066a8565b018590620039a4565b620050a7565b906200d28c6200cd06565b906200d2cf6200d2c86200d2c17f2f8788117e7eff1d82e926ec794901d17c78024a50270940304540a733656f0d9562001726565b9262001549565b9262001549565b926200d2da6200079a565b806200d2e681620009b9565b0390a4600190565b5050505f90565b6200d2ff6200434e565b506200d30a6200d1ff565b6200d3178284906200a9e9565b5f146200d3b4576200d347906200d3415f6200d338818094018690620066a8565b018590620039a4565b620050a7565b906200d3526200cd06565b906200d3956200d38e6200d3877ff6391f5c32d9c69d2a47ea670b442974b53935d1edc7fd64eb21e047a839171b9562001726565b9262001549565b9262001549565b926200d3a06200079a565b806200d3ac81620009b9565b0390a4600190565b5050505f90565b5f7f506f6f6c49642046656573206e6f74206d617463680000000000000000000000910152565b6200d3f1601560209262002f14565b6200d3fc816200d3bb565b0190565b6200d4179060208101905f8183039101526200d3e2565b90565b156200d42257565b6200d42c6200079a565b62461bcd60e51b8152806200d444600482016200d400565b0390fd5b6200d4716200d47f9492936200d46660608401955f850190620008ce565b6020830190620008ce565b604081840391015262001055565b90565b91906200d4ba6200d493846200101a565b6200d4b36200d4ac6200d4a68562000e56565b62000880565b9162000880565b146200d41a565b6200d4c46200f77d565b926200d4dd6200d4d5601e62001781565b859062005053565b6200d4f46200d4ed429262000880565b9162000880565b106200d6b4576200d5149293506200d50e42601e6200478d565b6200f824565b6200d5376200d524600562001781565b6200d530600162005418565b9062005053565b906200d54e6200d548602362004df1565b6200cdf2565b906200d55a5f62004940565b5b806200d5726200d56b8562000880565b9162000880565b10156200d5df576200d5d9906200d5d36200d59a6200d592602362004df1565b83906200df13565b5f6200d5cc6200d5b76200d5b1601085906200228b565b62001781565b926200d5c660228b90620035d0565b620035e8565b016200478d565b62004962565b6200d55b565b509150506200d5f96200d5f3602362004df1565b6200fb9a565b6200d6036200fbb3565b6200d60d6200fd7c565b6200d6176200ffb2565b6200d621620100e8565b6200d62b620100f4565b6200d6416200d63b601562004df1565b6200d0fd565b6200d64d600562001781565b439042926200d65d600662001781565b90936200d6af6200d69a6200d6937f8ecc25fa656e452e1f3a45812345976f04e5b79e27c8c87dd67fcb3655b324409562001a32565b9562001a32565b956200d6a56200079a565b938493846200d448565b0390a3565b836200d6c1601e62001781565b6200d6de425f938493632b479c5760e21b855260048501620013e0565b0390fd5b6200d6ec62010136565b6200d6f66200d6f8565b565b6200d7106200d7066200deef565b5f809101620050a7565b6200d71a6200cd06565b6200d7547f5db9ee0a495bf2e6ff9c91a7834c1ba4fdd244a5e8aa4e537bd38aeae4b073aa916200d74a6200079a565b918291826200275e565b0390a1565b6200d7636200d6e2565b565b6200d7709062000a75565b90565b6200d7af6200d7b7946200d7a46060949897956200d799608086019a5f870190620008ce565b6020850190620020ad565b6040830190620008ce565b0190620008ce565b565b60207f72207472616e7366657200000000000000000000000000000000000000000000917f496e73756666696369656e7420636f6e74726163742062616c616e636520666f5f8201520152565b6200d815602a60409262002f14565b6200d820816200d7b9565b0190565b6200d83b9060208101905f8183039101526200d806565b90565b5f7f5472616e73666572206661696c65640000000000000000000000000000000000910152565b6200d874600f60209262002f14565b6200d87f816200d83e565b0190565b6200d89a9060208101905f8183039101526200d865565b90565b90806200d8c06200d8b96200d8b2306200d765565b3162000880565b9162000880565b116200d9a8576200d8fb5f8084846200d8d86200079a565b90816200d8e58162008bee565b03925af16200d8f362008c1c565b501562000802565b6200d904575050565b6200d91060026200cd18565b906200d91d600562001781565b9043929390936200d97f6200d932306200d765565b316200d96a6200d9637faa0d7279a3f97476712000fb693bb02573d44b975c60e0237962d2f13523c95a9662001a32565b9662001a32565b966200d9756200079a565b948594856200d773565b0390a36200d98c6200079a565b62461bcd60e51b8152806200d9a4600482016200d883565b0390fd5b6200d9b4600162005418565b906200d9c1600562001781565b9043929390936200da236200d9d6306200d765565b316200da0e6200da077faa0d7279a3f97476712000fb693bb02573d44b975c60e0237962d2f13523c95a9662001a32565b9662001a32565b966200da196200079a565b948594856200d773565b0390a36200da306200079a565b62461bcd60e51b8152806200da48600482016200d824565b0390fd5b6200da646200da5c601762004df1565b82906200d1d9565b6200da7c6200da74601b62004df1565b83906200d1d9565b6200da946200da8c601562004df1565b84906200d1d9565b6200daae60086200daa75f879062002c9d565b0162001781565b6200dacd6200dac66200dac06200d05b565b62000880565b9162000880565b10916200db0c6200daed60066200dae65f899062002c9d565b0162002df6565b6200db036200dafc5f620099b1565b9162002f61565b14941562000802565b90816200dba2575b5090816200db8e575b5090816200db85575b5090816200db7c575b506200db39575b50565b6200db516200db49601962004df1565b82906200d1d9565b6200db5d575b6200db36565b6200db74906200db6e601962004df1565b6200d0b1565b505f6200db57565b90505f6200db2f565b90505f6200db26565b6200db9b91501562000802565b5f6200db1d565b6200dbaf91501562000802565b5f6200db14565b6200dbc0620101c3565b90565b6200dbcd620101db565b565b6200dbd96200dbc3565b565b6200dbe5620101db565b565b6200dbf16200dbdb565b565b6200dbfd620101db565b565b6200dc096200dbf3565b565b6200dc15620101db565b6200dc1f6200dc21565b565b6200dc2b6201024e565b565b6200dc376200dc0b565b565b6200dc436200e19e565b6200dc4e306200d765565b6200dc646200dc5d8362001388565b9162001388565b149081156200dc94575b506200dc7657565b5f63703e46dd60e11b8152806200dc9060048201620009b9565b0390fd5b90506200dcb66200dcaf6200dca95f62005ca2565b62001388565b9162001388565b145f6200dc6e565b506200dcd36200dccd62003178565b6200d12d565b565b6200dce0906200dcbe565b565b6200dced9062000a53565b90565b6200dcfb906200dce2565b90565b6200dd099062000a75565b90565b5f80fd5b60e01b90565b905051906200dd258262000936565b565b906020828203126200dd43576200dd40915f016200dd16565b90565b620007a4565b91906200dd7f60206200dd666200dd60866200dcf0565b6200dcfe565b6352d1902d906200dd766200079a565b9384926200dd10565b825281806200dd9160048201620009b9565b03915afa80915f926200de32575b50155f146200ddd75750509060016200ddb657505b565b6200ddd3905f918291634c9c8ce360e01b8352600483016200275e565b0390fd5b92836200ddf86200ddf16200ddeb620084ba565b62000933565b9162000933565b036200de11576200de0b9293506201025a565b6200ddb4565b6200de2e845f918291632a87526960e21b83526004830162000d61565b0390fd5b6200de5991925060203d81116200de61575b6200de50818362001d56565b8101906200dd27565b905f6200dd9f565b503d6200de44565b6200de736200e19e565b6200de7e306200d765565b6200de946200de8d8362001388565b9162001388565b141590816200dec4575b506200dea657565b5f63703e46dd60e11b8152806200dec060048201620009b9565b0390fd5b90506200dee66200dedf6200ded95f62005ca2565b62001388565b9162001388565b14155f6200de9e565b7fcd5ed15c6e187e77e9aee88184c21f4f2182ab5827cb3b7e07fbedcd63f0330090565b906200df305f6200df36936200df286200609e565b50016200cdef565b620102f7565b90565b5f7f7374616b696e672e6d61785f7374616b696e675f706f6f6c5f76616c75650000910152565b6200df6c601e62003415565b906200df7b602083016200df39565b565b6200df876200df60565b90565b6200df94620066f2565b506200dfa96200dfa36200df7d565b6200f117565b6200dfbf816200dfb86200ceb3565b906200f1b5565b6200dfd2576200dfcf906200f273565b90565b506200dfdd620008a8565b90565b5f7f7374616b696e672e6d696e5f64656c656761746f725f7374616b650000000000910152565b6200e013601b62003415565b906200e022602083016200dfe0565b565b6200e02e6200e007565b90565b6200e03b620066f2565b506200e0506200e04a6200e024565b6200f117565b6200e066816200e05f6200ceb3565b906200f1b5565b6200e079576200e076906200f273565b90565b506200e08462000b9c565b90565b906200e0bc6200e0b36200e0ad6200e0c2936200e0a7600e879062001734565b6200174c565b62004cd4565b9260106200228b565b62001781565b906200e0d16002820162001781565b826200e0e86200e0e18362000880565b9162000880565b11806200e172575b6200e0fb575b505050565b826200e1616200e1406200e12f6200e11a6002956200e1699862005028565b6200e1286001880162001781565b9062004faf565b6200e139620033b3565b9062005000565b6200e15a60038601916200e1548362001781565b62005053565b906200478d565b91016200478d565b5f80806200e0f6565b506200e1816001830162001781565b6200e1976200e1905f62004940565b9162000880565b116200e0f0565b6200e1a8620096f3565b506200e1c95f6200e1c26200e1bc620084ba565b6201031e565b0162001fd8565b90565b906200e1e5916200e1df81839062010321565b6200e087565b565b90565b906200e1f682620098ab565b8110156200e20957600160209102010190565b62000ca1565b60ff60f81b1690565b6200e22490516200e20f565b90565b600360fc1b90565b600f60fb1b90565b6200e2466200e24d9162000880565b9162000880565b9081156200e259570690565b62004fec565b5f7f496e76616c69642068657820737472696e67206c656e67746800000000000000910152565b6200e295601960209262002f14565b6200e2a0816200e25f565b0190565b6200e2bb9060208101905f8183039101526200e286565b90565b156200e2c657565b6200e2d06200079a565b62461bcd60e51b8152806200e2e8600482016200e2a4565b0390fd5b369037565b906200e31c6200e3018362008bfc565b926020806200e311869362001d9c565b92019103906200e2ec565b565b90565b6200e33a6200e3346200e340926200e31e565b62000883565b62002f61565b90565b6200e3526200e3599162002f61565b9162002f61565b02906200e3668262002f61565b9182036200e37057565b62004f9b565b6200e3856200e38c9162002f61565b9162002f61565b019060ff82116200e39957565b62004f9b565b60f81b90565b6200e3be6200e3b86200e3c49262002f61565b6200e39f565b6200e20f565b90565b6200e3dd906200e3d662008c17565b506200e1e7565b906200e3e982620098ab565b6200e4006200e3f960026200cd18565b9162000880565b1015806200e602575b806200e5c3575b6200e596575b6200e4596200e43c6200e42984620098ab565b6200e43560026200cd18565b906200e237565b6200e4526200e44b5f62004940565b9162000880565b146200e2be565b6200e4856200e47f6200e46c84620098ab565b6200e47860026200cd18565b9062005000565b6200e2f1565b6200e4905f62004940565b5b806200e4b26200e4ab6200e4a585620098ab565b62000880565b9162000880565b10156200e58f576200e589906200e5716200e56b6200e5156200e5026200e4fc6200e4f68a6200e4ef60026200e4e98a916200cd18565b62004faf565b906200e1ea565b6200e218565b62010631565b6200e50e60106200e321565b906200e343565b6200e5646200e55e6200e5588a6200e5516200e53e60026200e5388b916200cd18565b62004faf565b6200e54a600162005418565b9062005053565b906200e1ea565b6200e218565b62010631565b906200e376565b6200e3a5565b6200e582849183905f1a926200e1ea565b5362004962565b6200e491565b5090915090565b90806200e5bc916200e5b56200e5ae600293620098ab565b926200cd18565b90620103d0565b906200e416565b506200e5e66200e5e0836200e5d9600162005418565b906200e1ea565b6200e218565b6200e5fb6200e5f46200e22f565b916200e20f565b146200e410565b506200e6246200e61e836200e6175f62004940565b906200e1ea565b6200e218565b6200e6396200e6326200e227565b916200e20f565b146200e409565b6200e64a6200ccd7565b6200e6546200e656565b565b6200e66f6200e6646200deef565b5f60019101620050a7565b6200e6796200cd06565b6200e6b37f62e78cea01bee320cd4e420270b5ea74000d11b0c9f74754ebdbfc544b05a258916200e6a96200079a565b918291826200275e565b0390a1565b6200e6c26200e640565b565b5f7f4e6f2070656e64696e67207374616b6520746f2063616e63656c000000000000910152565b6200e6fa601a60209262002f14565b6200e705816200e6c4565b0190565b6200e7209060208101905f8183039101526200e6eb565b90565b156200e72b57565b6200e7356200079a565b62461bcd60e51b8152806200e74d600482016200e709565b0390fd5b5f7f4e6f2070656e64696e672061637469766174696f6e20666f756e640000000000910152565b6200e787601b60209262002f14565b6200e792816200e751565b0190565b6200e7ad9060208101905f8183039101526200e778565b90565b156200e7b857565b6200e7c26200079a565b62461bcd60e51b8152806200e7da600482016200e796565b0390fd5b5f7f5374616b6520616c726561647920616374697661746564000000000000000000910152565b6200e814601760209262002f14565b6200e81f816200e7de565b0190565b6200e83a9060208101905f8183039101526200e805565b90565b156200e84557565b6200e84f6200079a565b62461bcd60e51b8152806200e867600482016200e823565b0390fd5b5f7f496e76616c69642064656c656761746f7220636f756e74000000000000000000910152565b6200e8a1601760209262002f14565b6200e8ac816200e86b565b0190565b6200e8c79060208101905f8183039101526200e892565b90565b156200e8d257565b6200e8dc6200079a565b62461bcd60e51b8152806200e8f4600482016200e8b0565b0390fd5b5f7f496e76616c69642076616c696461746f7220746f74616c207374616b65000000910152565b6200e92e601d60209262002f14565b6200e939816200e8f8565b0190565b6200e9549060208101905f8183039101526200e91f565b90565b156200e95f57565b6200e9696200079a565b62461bcd60e51b8152806200e981600482016200e93d565b0390fd5b906200e990620066f2565b506200e99b620066f2565b506200e9c96200e9c36200e9b2600e859062001734565b6200e9bc6200cd06565b906200174c565b62004cd4565b6200ebbf6200e9e46200e9de5f869062002c9d565b6200871f565b6200eb5060016200e9f86004860162001781565b946200ea1b866200ea146200ea0d5f62004940565b9162000880565b116200e723565b6200ea486200ea426200ea3160258b906200233c565b6200ea3b6200cd06565b9062001557565b62001781565b6200ea6a816200ea636200ea5c5f62004940565b9162000880565b116200e7b0565b6200ea976200ea7a600562001781565b6200ea906200ea898462000880565b9162000880565b106200e83d565b886200eabe846200eab76200eaaf60228690620035d0565b8490620035e8565b0162001781565b6200ead46200eacd5f62004940565b9162000880565b116200ecca575b50506200eaf66200eaec5f62004940565b600483016200478d565b6200eb1b866200eb145f8401916200eb0e8362001781565b62005028565b906200478d565b6200eb495f6200eb436200eb3260258c906200233c565b6200eb3c6200cd06565b9062001557565b620092c2565b0162001781565b6200eb666200eb5f5f62004940565b9162000880565b146200ec5d575b6200eb9d6200eb7f6008830162001781565b6200eb956200eb8e8662000880565b9162000880565b10156200e957565b6200ebb86008849201916200ebb28362001781565b62005028565b906200478d565b6200ebd56200ebcd6200cd06565b82906200d89d565b6200ebe1600562001781565b926200ebec6200cd06565b82916200ebfa600562001781565b916200ec566200ec416200ec3a6200ec337f20efe2a79b48a5f3c262f196021b47696ef55c40f7ce07d2c94a298466de57ff9462001549565b9462001726565b9462001a32565b946200ec4c6200079a565b91829182620008dd565b0390a49190565b6200ec966200ec796200ec73601388906200228b565b62001781565b6200ec8f6200ec885f62004940565b9162000880565b116200e8ca565b6200ecc46200eca8601387906200228b565b6200ecbd6200ecb78262001781565b620050cd565b906200478d565b6200eb6d565b6200ed236200ed1b6200ed2a936200ed13876200ecf681966200ecf060228690620035d0565b620035e8565b016200ed0c6200ed068262001781565b620050cd565b906200478d565b6022620035d0565b8b90620035e8565b0162001781565b6200ed406200ed395f62004940565b9162000880565b146200ed4f575b5f886200eadb565b6200ed676200ed5f602362004df1565b89906200d0b1565b506200ed47565b60207f63746976655f65706f6368000000000000000000000000000000000000000000917f7374616b696e672e64656c65676174696f6e5f77697468647261775f656666655f8201520152565b6200edc7602b62003415565b906200edd6602083016200ed6e565b565b6200ede26200edbb565b90565b909291926200edfe6200edf882620024c4565b62001d83565b938185526020850190828401116200ee1d576200ee1b9262002f1d565b565b62001d34565b9080601f830112156200ee44578160206200ee41935191016200ede5565b90565b62000db7565b906020828203126200ee7f575f82015167ffffffffffffffff81116200ee79576200ee7692016200ee23565b90565b620007a8565b620007a4565b60207f62652067726561746572207468616e2030000000000000000000000000000000917f44656c65676174696f6e2077697468647261772077696e646f77206d757374205f8201520152565b6200eee1603160409262002f14565b6200eeec816200ee85565b0190565b6200ef079060208101905f8183039101526200eed2565b90565b156200ef1257565b6200ef1c6200079a565b62461bcd60e51b8152806200ef34600482016200eef0565b0390fd5b6200ef42620066f2565b506200ef945f6200ef526200edd8565b6200ef686200ef6260076200a4c3565b62000a83565b6200ef8863b44bd51d6200ef7b6200079a565b958694859384936200dd10565b8352600483016200349b565b03915afa9081156200f03a575f916200f013575b506200efb3620066f2565b506200efca816200efc36200ceb3565b906200f1b5565b5f146200f00257506200efdc62003519565b5b6200efff816200eff86200eff15f62004940565b9162000880565b116200ef0a565b90565b6200f00d906200f273565b6200efdd565b6200f03391503d805f833e6200f02a818362001d56565b8101906200ee4a565b5f6200efa8565b620098ec565b906200f04b6200434e565b506200f0575f62004940565b5b806200f0796200f0726200f06c866200101a565b62000880565b9162000880565b10156200f0cc576200f0976200f09184839062006027565b620045ad565b6200f0ad6200f0a68462000933565b9162000933565b146200f0c4576200f0be9062004962565b6200f058565b505050600190565b5050505f90565b7f9b779b17422d0df92223018b32b4d1fa46e071723d6817e2486d003becc55f0090565b5f6200f10f916200f107620066f2565b500162000cb5565b90565b606090565b5f6200f16a916200f1276200f112565b506200f13e6200f13860076200a4c3565b62000a83565b6200f15e63b44bd51d6200f1516200079a565b958694859384936200dd10565b8352600483016200349b565b03915afa9081156200f1a9575f916200f182575b5090565b6200f1a291503d805f833e6200f199818362001d56565b8101906200ee4a565b5f6200f17e565b620098ec565b60200190565b906200f1c06200434e565b506200f1d66200f1d0836200e1e7565b620098ab565b6200f2006200f1f96200f1f36200f1ed856200e1e7565b620098ab565b62000880565b9162000880565b1491826200f20e575b505090565b6200f26a9192506200f2466200f2286200f263926200e1e7565b6200f23e6200f23782620098ab565b916200f1af565b20936200e1e7565b6200f25c6200f25582620098ab565b916200f1af565b2062000933565b9162000933565b145f806200f209565b6200f2ac906200f282620066f2565b50806200f2a56200f29e6200f2985f946200e1e7565b620098ab565b9262004940565b9062010799565b90565b90565b6200f2cb6200f2c56200f2d1926200f2af565b62000883565b62002f61565b90565b6200f2df906200f2b2565b9052565b9160206200f3089294936200f30060408201965f8301906200f2d4565b0190620008ce565b565b6200f3236200f31d6200f3299262000880565b62000883565b62002f61565b90565b6200f3366200ce50565b50806200f34f6200f34860ff620050ed565b9162000880565b116200f363576200f360906200f30a565b90565b60086200f3815f9283926306dfcc6560e41b8452600484016200f2e3565b0390fd5b90565b634e487b7160e01b5f52603160045260245ffd5b5490565b5f5260205f2090565b6200f3b4816200f39c565b8210156200f3d1576200f3c96001916200f3a0565b910201905f90565b62000ca1565b6200f3e2816200f39c565b80156200f4085760019003906200f4056200f3fe83836200f3a9565b90620060a2565b55565b6200f388565b6200f4186200434e565b506200f4336200f42d6001830184906200228b565b62001781565b90816200f44b6200f4445f62004940565b9162000880565b14155f146200f53c576200f4e19260016200f4db92846200f4795f966200f4728562005418565b9062005028565b6200f49c6200f48a88850162000cb5565b6200f4958662005418565b9062005028565b816200f4b36200f4ac8362000880565b9162000880565b036200f4e6575b5050506200f4d46200f4ce8683016200f385565b6200f3d7565b016200228b565b620092c2565b600190565b6200f533926200f5236200f50c6200f5056200f52d948c890162000cc2565b9062000d0f565b936200f51c85918c890162000cc2565b9062006076565b918585016200228b565b6200478d565b5f80806200f4ba565b5050505f90565b90815491680100000000000000008310156200f57857826200f56f9160016200f576950181556200f3a9565b9062006076565b565b62001d42565b6200f5886200434e565b506200f5a16200f59a8284906200f73e565b1562000802565b5f146200f5ec576200f5e16200f5e7926200f5ca6200f5c25f85016200f385565b82906200f543565b60016200f5d95f850162000cb5565b93016200228b565b6200478d565b600190565b50505f90565b60209181520190565b6200f607905462001fe7565b90565b60010190565b906200f6336200f62c6200f6248462000cb5565b80936200f5f2565b9262000cb9565b905f5b8181106200f6445750505090565b9091926200f66a6200f6636001926200f65d876200f5fb565b6200103c565b946200f60a565b91019190916200f636565b906200f681916200f610565b90565b906200f6aa6200f6a2926200f6986200079a565b938480926200f675565b038362001d56565b565b6200f6b7906200f684565b90565b5f6200f6d2916200f6ca62005b8d565b50016200f6ac565b90565b9160206200f6fa9294936200f6f260408201965f830190620020ad565b019062000d52565b565b906200f7156200f70e8383906200a9e9565b1562000802565b6200f71e575050565b6200f73a5f92839263e2517d3f60e01b8452600484016200f6d5565b0390fd5b6200f7629160016200f75c926200f7546200434e565b50016200228b565b62001781565b6200f7786200f7715f62004940565b9162000880565b141590565b6200f787620066f2565b506200f7aa6200f7966201086d565b6200f7a36103e862002645565b9062005000565b806200f7c16200f7ba5f62004940565b9162000880565b146200f7cb575b90565b506200f7d8600162005418565b6200f7c8565b6200f81a6200f822946200f80f6060949897956200f804608086019a5f870190620008ce565b6020850190620008ce565b6040830190620008ce565b0190620008ce565b565b9190916200f83c6200f83562010adc565b1562000802565b6200fb95576200f863906200f85c6200f856601562004df1565b6200d0fd565b906200bead565b916200f86f8362010bb2565b919091926200f87e5f62004940565b5b806200f8a06200f8996200f893896200101a565b62000880565b9162000880565b10156200fb5d576200f9f5906200f8c36200f8bd88839062006027565b620045ad565b6200f8ce8662000e56565b6200f8e46200f8dd5f62004940565b9162000880565b115f146200fb4c576200f9036200f8fd87849062004a08565b620049f9565b5b6200f90f5f62004940565b836200f9306200f9296200f9238a62000e56565b62000880565b9162000880565b106200fb2e575b6200f94482829062005053565b926200f95f60096200f9585f849062002c9d565b0162001fd8565b90846200f9776200f9705f62004940565b9162000880565b116200f9fb575b90916200f98c600562001781565b936200f9ec439192966200f9d76200f9d06200f9c97fe41ebfc5ed31c6e4ffc394f684f0cc7e458316c2b1e59e3e8abdadadc04fc8389762001726565b9762001549565b9762001a32565b976200f9e26200079a565b948594856200f7de565b0390a462004962565b6200f87f565b6200fab76200fa386200fa27876200fa206200fa1a601187906200228b565b62001781565b9062004faf565b6200fa3162003a48565b9062005000565b6200fa4587829062005028565b6200fa5f600a6200fa585f879062002c9d565b0162001781565b6200fa756200fa6e5f62004940565b9162000880565b116200fabd575b506200fab060036200fa9d6200fa95600e879062001734565b87906200174c565b01916200faaa8362001781565b62005053565b906200478d565b6200f97e565b6200fafc6200fadb6200fb27926200fad4620033b3565b9062004faf565b6200faf5600a6200faee5f899062002c9d565b0162001781565b9062005000565b6200fb206200fb0e601087906200228b565b916200fb1a8362001781565b62005053565b906200478d565b5f6200fa7c565b506200fb466200fb4087859062004a08565b620049f9565b6200f937565b6200fb575f62004940565b6200f904565b5093505050806200fb796200fb725f62004940565b9162000880565b116200fb83575b50565b6200fb8e9062010d69565b5f6200fb80565b509050565b6200fbab5f6200fbb192016200cdef565b62010dee565b565b6200fbbd6200d05b565b6200fbdd6200fbd76200fbd1601762004df1565b6200cdf2565b62006c86565b6200fbe85f62004940565b6200fbfe6200fbf8601762004df1565b6200cdf2565b926200fc0a5f62004940565b5b806200fc226200fc1b8762000880565b9162000880565b10156200fcbd576200fc416200fc39601762004df1565b82906200df13565b6200fc5b60086200fc545f849062002c9d565b0162001781565b6200fc716200fc6a8562000880565b9162000880565b10156200fc8b575b506200fc859062004962565b6200fc0b565b6200fc8591936200fcaf6200fcb5926200fca9889184909262006027565b620043c7565b6200604b565b92906200fc79565b50509150916200fccd5f62004940565b5b806200fce56200fcde8562000880565b9162000880565b10156200fd76576200fd70906200fd6a6200fd0c6200fd0687849062006027565b620045ad565b6200fd246200fd1c601562004df1565b82906200d0d7565b506200fd4b6200fd3560016200752a565b60066200fd445f859062002c9d565b016200545f565b6200fd636200fd5b601762004df1565b82906200d0b1565b5062010fd3565b62004962565b6200fcce565b50915050565b6200fd866200d05b565b906200fd9d6200fd97601b62004df1565b6200cdf2565b906200fda98262006c86565b926200fdb55f62004940565b916200fdc15f62004940565b925b836200fdda6200fdd38762000880565b9162000880565b10156200fe3a576200fe2c6200fe33916200fe266200fe066200fdfe601b62004df1565b88906200df13565b6200fe11816201109c565b6200fe208a9184909262006027565b620043c7565b6200604b565b9362004962565b926200fdc3565b93509091506200fe4a5f62004940565b5b806200fe626200fe5b8662000880565b9162000880565b10156200ffab576200fecf906200fe856200fe7f87839062006027565b620045ad565b5f6200fea060066200fe995f859062002c9d565b0162002df6565b6200feb66200feaf5f620099b1565b9162002f61565b145f146200fef4575060015b6200fed5575b5062004962565b6200fe4b565b6200feec906200fee6601b62004df1565b6200d0b1565b505f6200fec8565b6200ff0e60086200ff075f859062002c9d565b0162001781565b6200ff246200ff1d8862000880565b9162000880565b105f146200ff36575060015b6200fec2565b6200ff7f60016200ff786200ff726200ff5e60096200ff575f899062002c9d565b0162001fd8565b6200ff6c600e889062001734565b6200174c565b62004cd4565b0162001781565b6200ff956200ff8e5f62004940565b9162000880565b116200ffa2575b6200ff30565b5060016200ff9c565b5092505050565b6200ffc86200ffc2601962004df1565b6200cdf2565b6200ffd38162006c86565b6200ffde5f62004940565b6200ffe95f62004940565b5b80620100016200fffa8662000880565b9162000880565b101562010075576201002062010018601962004df1565b82906200df13565b6201002b8162011290565b62010043575b506201003d9062004962565b6200ffea565b6201003d9192620100676201006d9262010061879184909262006027565b620043c7565b6200604b565b919062010031565b50915091620100845f62004940565b5b806201009c620100958562000880565b9162000880565b1015620100e257620100dc90620100d5620100c3620100bd87849062006027565b620045ad565b620100cf601962004df1565b6200d0b1565b5062004962565b62010085565b50915050565b620100f262011557565b565b620100fe62011914565b6201010862011adf565b6201011262011c06565b620101346201012c62010126600562001781565b6200604b565b60056200478d565b565b6201014b62010144620085d7565b1562000802565b6201015257565b5f638dfc202b60e01b8152806201016c60048201620009b9565b0390fd5b90565b6201018c62010186620101929262010170565b62003151565b62000933565b90565b620101c07ff0c57e16840df040f15088dc2f81fe391c3923bec73e23a9662efc9c229c6a0062010173565b90565b620101cd6200609e565b50620101d862010195565b90565b620101f0620101e962011e05565b1562000802565b620101f757565b5f631afcd79f60e31b8152806201021160048201620009b9565b0390fd5b6201021f620101db565b620102296201022b565b565b6201024c620102396200f0d3565b5f620102446200cdbd565b91016200478d565b565b6201025862010215565b565b90620102668262011e29565b81620102937fbc7cd75a20ee27fd9adebab32041f755214dbc6bffa90cc0225b39da2e5c2d3b9162001549565b906201029e6200079a565b80620102aa81620009b9565b0390a2620102b881620098ab565b620102ce620102c75f62004940565b9162000880565b115f14620102e557620102e19162011ec8565b505b565b5050620102f162011e8b565b620102e3565b6201031b915f62010314926201030c6200609e565b500162000cc2565b9062000d0f565b90565b90565b906201035360046201034c620103466201033e600e879062001734565b85906200174c565b62004cd4565b0162001781565b62010369620103625f62004940565b9162000880565b14620103cc57620103936201038d62010385602585906200233c565b839062001557565b62001781565b620103b5620103ae620103a7600562001781565b9262000880565b9162000880565b10620103c857620103c69162011efd565b565b5050565b5050565b620103da62008c17565b50620103f2620103ec84849062005028565b6200e2f1565b93825b806201040c620104058762000880565b9162000880565b1015620104595762010453906201042f620104298583906200e1ea565b6200e218565b6201044c88916201044284899062005028565b905f1a926200e1ea565b5362004962565b620103f5565b50939250505090565b60f81c90565b620104776201047d9162010462565b6200543a565b90565b90565b6201049c62010496620104a29262010480565b62000883565b62002f61565b90565b90565b620104c1620104bb620104c792620104a5565b62000883565b62002f61565b90565b90565b620104e6620104e0620104ec92620104ca565b62000883565b62002f61565b90565b90565b6201050b620105056201051192620104ef565b62000883565b62002f61565b90565b90565b620105306201052a620105369262010514565b62000883565b62002f61565b90565b90565b620105556201054f6201055b9262010539565b62000883565b62002f61565b90565b5f7f496e76616c696420686578206368617261637465720000000000000000000000910152565b62010594601560209262002f14565b6201059f816201055e565b0190565b620105ba9060208101905f81830391015262010585565b90565b90565b620105d9620105d3620105df92620105bd565b62000883565b62002f61565b90565b620105f1620105f89162002f61565b9162002f61565b90039060ff82116201060657565b62004f9b565b90565b62010628620106226201062e926201060c565b62000883565b62002f61565b90565b6201064790620106406200ce50565b5062010468565b806201065f62010658603062010483565b9162002f61565b10158062010778575b5f146201068a57620106879062010680603062010483565b90620105e2565b90565b80620106a26201069b6061620104cd565b9162002f61565b10158062010757575b5f14620106cd57620106ca90620106c360576201060f565b90620105e2565b90565b80620106e5620106de604162010517565b9162002f61565b10158062010736575b5f1462010710576201070d90620107066037620105c0565b90620105e2565b90565b6201071a6200079a565b62461bcd60e51b8152806201073260048201620105a3565b0390fd5b50806201074f6201074860466201053c565b9162002f61565b1115620106ee565b508062010770620107696066620104f2565b9162002f61565b1115620106ab565b5080620107916201078a6039620104a8565b9162002f61565b111562010668565b90620107c192620107b892620107ae620066f2565b5091909162012172565b91901562000802565b620107c95790565b5f634a7139bf60e11b815280620107e360048201620009b9565b0390fd5b5f7f636861696e2e65706f63685f6475726174696f6e000000000000000000000000910152565b6201081a601462003415565b906201082960208301620107e7565b565b620108356201080e565b90565b90565b620108546201084e6201085a9262010838565b62000883565b62000880565b90565b6201086a6138406201083b565b90565b62010877620066f2565b506201088c620108866201082b565b6200f117565b620108a2816201089b6200ceb3565b906200f1b5565b6201092157620108b2906200f273565b80620108c9620108c25f62004940565b9162000880565b14801562010900575b620108da5790565b50620108fd620108e96201085d565b620108f66103e862002645565b9062004faf565b90565b50806201091a620109136103e862002645565b9162000880565b10620108d2565b5062010944620109306201085d565b6201093d6103e862002645565b9062004faf565b90565b5f7f636861696e2e656e61626c655f706f735f7374616b696e670000000000000000910152565b6201097a601862003415565b90620109896020830162010947565b565b620109956201096e565b90565b5f7f7472756500000000000000000000000000000000000000000000000000000000910152565b620109cb600462003415565b90620109da6020830162010998565b565b620109e6620109bf565b90565b5f7f5472756500000000000000000000000000000000000000000000000000000000910152565b62010a1c600462003415565b9062010a2b60208301620109e9565b565b62010a3762010a10565b90565b5f7f66616c7365000000000000000000000000000000000000000000000000000000910152565b62010a6d600562003415565b9062010a7c6020830162010a3a565b565b62010a8862010a61565b90565b5f7f46616c7365000000000000000000000000000000000000000000000000000000910152565b62010abe600562003415565b9062010acd6020830162010a8b565b565b62010ad962010ab2565b90565b62010ae66200434e565b5062010afb62010af56201098b565b6200f117565b62010b118162010b0a620109dc565b906200f1b5565b801562010b95575b801562010b78575b62010b725762010b3c8162010b3562010a7e565b906200f1b5565b90811562010b54575b5062010b5057600190565b5f90565b62010b6b915062010b6462010acf565b906200f1b5565b5f62010b45565b50600190565b5062010b8f8162010b886200ceb3565b906200f1b5565b62010b21565b5062010bac8162010ba562010a2d565b906200f1b5565b62010b19565b9062010bbd620048ea565b5062010bc8620066f2565b62010bd26201221a565b908162010bea62010be35f62004940565b9162000880565b14801562010d3f575b62010d175762010c0d62010c07856200101a565b62004913565b62010c185f62004940565b5b8062010c3a62010c3362010c2d896200101a565b62000880565b9162000880565b101562010d0e5762010c5862010c5287839062006027565b620045ad565b62010c638162006690565b62010c7b575b5062010c759062004962565b62010c19565b600a62010c8d62010c94925f62002c9d565b0162001781565b8062010cab62010ca45f62004940565b9162000880565b1162010cb8575b62010c69565b62010c75919362010ce562010cd262010d06938862004faf565b62010cde600662001781565b9062005000565b62010cff8162010cf9879189909262004a08565b620043d7565b9062005053565b929062010cb2565b50915092509190565b5050905062010d3062010d2a5f62004940565b62004913565b9062010d3c5f62004940565b90565b5062010d4c600662001781565b62010d6262010d5b5f62004940565b9162000880565b1462010bf3565b62010d8c62010d848262010d7e600962001781565b62005053565b60096200478d565b62010d98600562001781565b62010da4600962001781565b62010dd07f2d6d69aebc514c522a70a5b2469ab0d6f1c20e8ceacce346e73217fef0d9e9329262001a32565b9262010de962010ddf6200079a565b92839283620026f6565b0390a2565b62010df9816200f0f7565b9162010e055f62004940565b5b8062010e1d62010e168662000880565b9162000880565b101562010e695762010e639062010e5d5f62010e576001870162010e5062010e49848a01879062000cc2565b9062000d0f565b906200228b565b620092c2565b62004962565b62010e06565b5091505f62010e91910162010e8a62010e835f926200f385565b9162004940565b90620122f2565b565b62010eac62010ea662010eb29262000880565b62000883565b62007be7565b90565b905f929180549062010ed362010ecb8362002cc9565b809462002f14565b916001811690815f1462010f31575060011462010ef0575b505050565b62010eff919293945062002d00565b915f925b81841062010f1857505001905f808062010eeb565b6001816020929593955484860152019101929062010f03565b92949550505060ff19168252151560200201905f808062010eeb565b62010f589062007be7565b9052565b9162010fd19597969462010fae60a09562010f9f62010fbd9462010f9062010fc99760c08a01908a82035f8c015262010eb5565b9088820360208a015262010eb5565b90868203604088015262010eb5565b90848203606086015262010eb5565b96608083019062010f4d565b019062002f67565b565b805f62010fe281849062002c9d565b01600162010ff25f859062002c9d565b0190620110976003620110075f879062002c9d565b01946005620110185f839062002c9d565b01906201105560066201104e62011046620110404362011039600162005418565b9062005053565b62010e93565b935f62002c9d565b0162002df6565b91620110827fbca92f81a0080cf37645774d96f6e167705040523c99ab14becf042928ab57a89762001726565b976201108d6200079a565b9687968762010f5c565b0390a2565b620110e56001620110de620110d8620110c46009620110bd5f889062002c9d565b0162001fd8565b620110d2600e879062001734565b6200174c565b62004cd4565b0162001781565b620110fb620110f45f62004940565b9162000880565b11620111066200d05b565b620111366201112f620111286008620111215f889062002c9d565b0162001781565b9262000880565b9162000880565b109081156201127c575b50806201125d575b62011151575b50565b6201116962011161601562004df1565b82906200d0b1565b506201118f620111795f620099b1565b6006620111885f859062002c9d565b016200545f565b805f6201119e81849062002c9d565b016001620111ae5f859062002c9d565b0190620112536003620111c35f879062002c9d565b01946005620111d45f839062002c9d565b01906201121160066201120a62011202620111fc43620111f5600162005418565b9062005053565b62010e93565b935f62002c9d565b0162002df6565b916201123e7fbca92f81a0080cf37645774d96f6e167705040523c99ab14becf042928ab57a89762001726565b97620112496200079a565b9687968762010f5c565b0390a25f6201114e565b50620112766201126e601562004df1565b82906200d1d9565b62011148565b6201128991501562000802565b5f62011140565b6201129a6200434e565b50620112b3620112ab601562004df1565b82906200d1d9565b620112bd57505f90565b805f620112cc81849062002c9d565b016001620112dc5f859062002c9d565b0190620113816003620112f15f879062002c9d565b01946005620113025f839062002c9d565b01906201133f600662011338620113306201132a4362011323600162005418565b9062005053565b62010e93565b935f62002c9d565b0162002df6565b916201136c7fbca92f81a0080cf37645774d96f6e167705040523c99ab14becf042928ab57a89762001726565b97620113776200079a565b9687968762010f5c565b0390a2600190565b9080820362011397575b5050565b6201147560078084620113be5f6201147c9701620113b75f880162001fd8565b90620051a0565b620113db60018201620113d46001880162001fff565b90620051d4565b620113f860028201620113f16002880162001781565b906200478d565b62011415600382016201140e6003880162001781565b906200478d565b62011432600482016201142b6004880162001781565b906200478d565b6201144f600582016201144860058801620017ae565b90620050a7565b6201146c60068201620114656006880162001781565b906200478d565b01920162001781565b906200478d565b5f8062011393565b91906201149857620114969162011389565b565b6200516d565b5f600762011503928280820155620114ba8360018301620060a2565b620114c98360028301620092c2565b620114d88360038301620092c2565b620114e78360048301620092c2565b826005820155620114fc8360068301620092c2565b01620092c2565b565b905f036201151a5762011518906201149e565b565b6200516d565b6201152b816200513b565b8015620115515760019003906201154e6201154783836200513f565b9062011505565b55565b6200f388565b620115625f62004940565b5b80620115856201157e62011578601462001f7a565b62000880565b9162000880565b1015620116e257620115a86005620115a06014849062001f87565b5001620017ae565b620115c157620115b8906200604b565b905b9062011563565b90620115e5620115d2601462001f7a565b620115de600162005418565b9062005028565b82620115fc620115f58362000880565b9162000880565b0362011620575b506201161a6201161460146200510f565b62011520565b620115ba565b5f620116d5620116db92620116526201163c6014839062001f87565b506201164b6014899062001f87565b9062011484565b620116cd620116876201168162011679866201167160148c9062001f87565b500162001fd8565b601f62001afb565b6200534b565b620116b9620116a36201169d6021869062001a54565b62001781565b91620116b28a9184906200535b565b90620053b2565b620116c76021899062001a54565b6200478d565b602162001a54565b620092c2565b5f62011603565b50565b67ffffffffffffffff8111620116fe5760208091020190565b62001d42565b906201171a6201171483620116e5565b62001d83565b918252565b5f5b8281106201172e57505050565b6020906201173b6200c0de565b818401520162011721565b9062011771620117568362011704565b92602080620117668693620116e5565b92019103906201171f565b565b5f7f636861696e2e65706f63685f73746172745f626c6f636b000000000000000000910152565b620117a6601762003415565b90620117b56020830162011773565b565b620117c16201179a565b90565b5190565b90620117d482620117c4565b811015620117e6576020809102010190565b62000ca1565b5f7f636861696e2e65706f63685f73746172745f74696d657374616d700000000000910152565b6201181f601b62003415565b906201182e60208301620117ec565b565b6201183a62011813565b90565b5f9103126201184857565b620007a4565b60209181520190565b60200190565b90620118699162003c80565b90565b60200190565b906201188a6201188283620117c4565b80926201184e565b90816201189d6020830284019462011857565b925f915b838310620118b157505050505090565b90919293946020620118d7620118d0838560019503875289516201185d565b976201186c565b9301930191939290620118a1565b909162011902620119119360408401908482035f86015262011872565b91602081840391015262011872565b90565b6201192a6201192460026200cd18565b62011746565b620119406201193a60026200cd18565b62011746565b90620119b96201194f620117b7565b6201198b6201195e4362012390565b916201198485915f906201197d620119768362004940565b85620117c8565b5262004940565b90620117c8565b5150620119b284915f90620119ab620119a48362004940565b85620117c8565b5262004940565b90620117c8565b515062011a35620119c962011830565b62011a06620119d84262012390565b91620119ff8591600190620119f8620119f18362005418565b85620117c8565b5262005418565b90620117c8565b515062011a2e849160019062011a2762011a208362005418565b85620117c8565b5262005418565b90620117c8565b515062011a4d62011a4760076200a4c3565b62000a83565b916356c3ea8b919092803b1562011ad95762011a805f809462011a8c62011a736200079a565b978896879586946200dd10565b845260048401620118e5565b03925af1801562011ad35762011aa0575b50565b62011ac4905f3d811162011acb575b62011abb818362001d56565b8101906201183d565b5f62011a9d565b503d62011aaf565b620098ec565b6200dd0c565b62011af662011aee5f62004940565b60066200478d565b62011b0c62011b06601562004df1565b6200cdf2565b62011b175f62004940565b5b8062011b2f62011b288462000880565b9162000880565b101562011bcc5762011bc69062011bc062011bb862011ba6600862011b9f62011b6562011b5d601562004df1565b87906200df13565b62011b9862011b828462011b7b5f859062002c9d565b0162001781565b600a62011b915f859062002c9d565b016200478d565b5f62002c9d565b0162001781565b62011bb2600662001781565b62005053565b60066200478d565b62004962565b62011b18565b5050565b90565b62011bec62011be662011bf29262011bd0565b62000883565b62000880565b90565b62011c03620186a062011bd3565b90565b62011c1b62011c1462010adc565b1562000802565b62011df65762011c384262011c31600b62001781565b9062005028565b62011c5762011c5062011c4a62003e82565b62000880565b9162000880565b1062011df45762011c69600a62001781565b62011c8862011c8162011c7b62000c23565b62000880565b9162000880565b1462011df25762011c9a600a62001781565b62011cdc62011cd462011cc362011cb2600a62001781565b62011cbc620038f0565b9062004faf565b62011ccd62011bf5565b9062005000565b600a6200478d565b62011ce8600a62001781565b62011d0762011d0062011cfa62000c23565b62000880565b9162000880565b1062011dd6575b62011d1b42600b6200478d565b62011d3362011d2b600962001781565b600c6200478d565b62011d3f600a62001781565b62011d5562011d4e8362000880565b9162000880565b0362011d5f575b50565b62011d6c42600b6200478d565b62011d8462011d7c600962001781565b600c6200478d565b62011d90600a62001781565b429162011dcc7f0953e632823699b2b35816763baf1be2cb0bfdb3b7aa0da282ddc79cd1c831339362011dc26200079a565b93849384620013e0565b0390a15f62011d5c565b62011dec62011de462000c23565b600a6200478d565b62011d0e565b565b565b62011e0342600b6200478d565b565b62011e0f6200434e565b5062011e265f62011e1f6200dbb6565b0162007ba4565b90565b803b62011e4162011e3a5f62004940565b9162000880565b1462011e6a5762011e68905f62011e6162011e5b620084ba565b6201031e565b01620051a0565b565b62011e87905f918291634c9c8ce360e01b8352600483016200275e565b0390fd5b3462011ea262011e9b5f62004940565b9162000880565b1162011eaa57565b5f63b398979f60e01b81528062011ec460048201620009b9565b0390fd5b5f8062011efa9362011ed962008c17565b508390602081019051915af49062011ef062008c1c565b9091909162012453565b90565b62011f2162011f1b62011f13600e849062001734565b84906200174c565b62004cd4565b9162011f306004840162001781565b62011f4662011f3f5f62004940565b9162000880565b146201216d5762011f7062011f6a62011f62602585906200233c565b839062001557565b62001781565b9062011f7d600562001781565b62011f9362011f8c8462000880565b9162000880565b106201216757620120bd5f93620120c3936201207087600262011fbd6004620120c99b0162001781565b62011fca8689906200e087565b62011ff08162011fe9600186019162011fe38362001781565b62005053565b906200478d565b6201200962011fff8b62004940565b600485016200478d565b6201202f8a620120286201202060228990620035d0565b8990620035e8565b0162001781565b6201204762012041601089906200228b565b62001781565b91826201205f620120588462000880565b9162000880565b116201210e575b505091016200478d565b620120976001620120906201208860228590620035d0565b8590620035e8565b0162001781565b620120ad620120a68862004940565b9162000880565b11620120cb575b5060256200233c565b62001557565b620092c2565b565b6001620120ea620120e262012107936022620035d0565b8490620035e8565b0162012100620120fa8262001781565b620050cd565b906200478d565b5f620120b4565b6201212d6201213e91620121276201215f948662005028565b62004faf565b62012137620033b3565b9062005000565b620121586003860191620121528362001781565b62005053565b906200478d565b5f8062012066565b50505050565b505050565b916201217d6200434e565b5062012188620066f2565b5080620121b4620121ad620121a7620121a1876200e1e7565b620098ab565b62000880565b9162000880565b118015620121e9575b620121d657620121d0929190916201251f565b91909190565b5050505f90620121e65f62004940565b90565b508162012201620121fa8362000880565b9162000880565b11620121bd565b620122176301e1338062003e60565b90565b62012224620066f2565b5062012231600c62001781565b62012247620122405f62004940565b9162000880565b148015620122c8575b620122ba57620122b7620122a6620122956201228462012271600c62001781565b6201227d600a62001781565b9062004faf565b6201228e62011bf5565b9062005000565b6201229f6200f77d565b9062004faf565b620122b062012208565b9062005000565b90565b620122c55f62004940565b90565b50620122d5600a62001781565b620122eb620122e45f62004940565b9162000880565b1462012250565b55565b9062012302910162000880565b90565b9062012330620123158362003415565b92602080620123258693620024c4565b92019103906200e2ec565b565b600162012340910362000880565b90565b90565b6201235f62012359620123659262012343565b62000883565b62000880565b90565b620123776201237e9162000880565b9162000880565b9081156201238a570490565b62004fec565b6201239a6200f112565b50620123bd620123aa8262012752565b620123b6600162005418565b90620122f5565b90620123c98262012305565b91620123d4620066f2565b5060200182015b6001156201244b57620123f2620124219162012332565b916f181899199a1a9b1b9c1cb0b131b232b360811b600a82061a83536201241a600a62012346565b9062012368565b8062012438620124315f62004940565b9162000880565b14620124455790620123db565b50505b90565b505062012448565b906201246b906201246362008c17565b501562000802565b5f1462012479575062012a15565b6201248482620098ab565b6201249a620124935f62004940565b9162000880565b1480620124cc575b620124ab575090565b620124c8905f918291639996b31560e01b8352600483016200275e565b0390fd5b50803b620124e5620124de5f62004940565b9162000880565b14620124a2565b620124f7906200e20f565b90565b90565b62012516620125106201251c92620124fa565b62000883565b62002f61565b90565b62012540906201252e6200434e565b5062012539620066f2565b506200e1e7565b6201254b5f62004940565b5b82620125636201255c8662000880565b9162000880565b101562012600576201258b620125856201257f84869062012a64565b620124ec565b62012b63565b9081620125a46201259d6009620124fd565b9162002f61565b11620125eb57620125e491620125d6620125cf620125dd93620125c8600a62012346565b9062004faf565b91620050ed565b9062005053565b9262004962565b916201254c565b50505050505f90620125fd5f62004940565b90565b939250505060019190565b90565b62012627620126216201262d926201260b565b62000883565b62000880565b90565b90565b6201264c62012646620126529262012630565b62000883565b62000880565b90565b90565b620126716201266b620126779262012655565b62000883565b62000880565b90565b90565b62012696620126906201269c926201267a565b62000883565b62000880565b90565b90565b620126bb620126b5620126c1926201269f565b62000883565b62000880565b90565b620126dd620126d7620126e3926200e31e565b62000883565b62000880565b90565b90565b62012702620126fc6201270892620126e6565b62000883565b62000880565b90565b620127246201271e6201272a926200f2af565b62000883565b62000880565b90565b90565b62012749620127436201274f926201272d565b62000883565b62000880565b90565b6201275c620066f2565b50620127685f62004940565b90806201279b620127947a184f03e93ff9f4daa797ed6e38ed64bf6a1f0100000000000000006201260e565b9162000880565b1015620129c4575b80620127c8620127c16d04ee2d6d415b85acef810000000062012658565b9162000880565b101562012980575b80620127ee620127e7662386f26fc10000620126a2565b9162000880565b101562012943575b80620128116201280a6305f5e100620126e9565b9162000880565b101562012909575b80620128326201282b61271062003a26565b9162000880565b1015620128d1575b80620128526201284b60646200c354565b9162000880565b10156201289a575b620128716201286a600a62012346565b9162000880565b10156201287c575b90565b62012894906201288d600162005418565b90620122f5565b62012879565b620128b6620128ca91620128af60646200c354565b9062012368565b91620128c360026200cd18565b90620122f5565b906201285a565b620128ee6201290291620128e761271062003a26565b9062012368565b91620128fb600462012730565b90620122f5565b906201283a565b620129286201293c91620129216305f5e100620126e9565b9062012368565b916201293560086201270b565b90620122f5565b9062012819565b6201296562012979916201295e662386f26fc10000620126a2565b9062012368565b91620129726010620126c4565b90620122f5565b90620127f6565b620129a9620129bd91620129a26d04ee2d6d415b85acef810000000062012658565b9062012368565b91620129b660206201267d565b90620122f5565b90620127d0565b620129fa62012a0e91620129f37a184f03e93ff9f4daa797ed6e38ed64bf6a1f0100000000000000006201260e565b9062012368565b9162012a07604062012633565b90620122f5565b90620127a3565b62012a2081620098ab565b62012a3662012a2f5f62004940565b9162000880565b115f1462012a4657805190602001fd5b5f63d6bda27560e01b81528062012a6060048201620009b9565b0390fd5b9062012a6f6200609e565b50602001015190565b90565b62012a9462012a8e62012a9a9262012a78565b62000883565b62002f61565b90565b90565b62012ab962012ab362012abf9262012a9d565b62000883565b62002f61565b90565b90565b62012ade62012ad862012ae49262012ac2565b62000883565b62002f61565b90565b90565b62012b0362012afd62012b099262012ae7565b62000883565b62002f61565b90565b62012b2562012b1f62012b2b9262012630565b62000883565b62002f61565b90565b90565b62012b4a62012b4462012b509262012b2e565b62000883565b62002f61565b90565b9062012b60910362002f61565b90565b62012b799062012b726200ce50565b5062010468565b8062012b9162012b8a602f62012a7b565b9162002f61565b118062012c8d575b5f1462012bbc5762012bb89062012bb1603062010483565b9062012b53565b5b90565b8062012bd462012bcd606062012ac5565b9162002f61565b118062012c6d575b5f1462012c025762012bfb9062012bf460576201060f565b9062012b53565b5b62012bb9565b8062012c1a62012c13604062012b0c565b9162002f61565b118062012c4d575b5f1462012c475762012c419062012c3a6037620105c0565b9062012b53565b62012bfc565b5060ff90565b508062012c6662012c5f604762012b31565b9162002f61565b1062012c22565b508062012c8662012c7f606762012aea565b9162002f61565b1062012bdc565b508062012ca662012c9f603a62012aa0565b9162002f61565b1062012b9956fea264697066735822122014f0dde983838affc495f5f66663dc7957b43d7a138357ec0e0b2c08c58cde8b64736f6c63430008210033",
    "linkReferences": {}
  },
  "methodIdentifiers": {
    "COMMISSION_SCALE()": "d142205f",
    "DEFAULT_ADMIN_ROLE()": "a217fddf",
    "DEFAULT_COMMISSION_RATE()": "b8db983e",
    "DEFAULT_WITHDRAW_WINDOW()": "ae631b7c",
    "INFLATION_ADJUSTMENT_INTERVAL()": "d6b5f87f",
    "INFLATION_ADJUSTMENT_RATE()": "c7c39bcb",
    "INITIAL_INFLATION_RATE()": "0e8601fc",
    "INITIAL_TOTAL_SUPPLY()": "c04fcad8",
    "MAX_COMMISSION_RATE()": "207239c0",
    "MAX_POOL_STAKE()": "02778a83",
    "MAX_QUEUE_LENGTH()": "6e73ba5b",
    "MIN_DELEGATOR_STAKE()": "0f952573",
    "MIN_INFLATION_RATE()": "0fbccaae",
    "MIN_POOL_STAKE()": "568735b0",
    "PRECISION()": "aaf5eb68",
    "UPGRADE_INTERFACE_VERSION()": "ad3cb1cc",
    "acceptOwnership(bytes32)": "1b4f6c46",
    "accumulatedRewardPerShares(bytes32)": "62e9bc1c",
    "activePoolIds(uint256)": "1f9c324e",
    "addDelegatorToWhitelist(bytes32,address)": "95d6e00f",
    "addStake(bytes32)": "66da754b",
    "advanceEpoch()": "3cf80e6c",
    "advanceEpoch(bytes32[],uint256[])": "d93b1a4f",
    "cfg()": "0457dad2",
    "claimReward(bytes32)": "f5414023",
    "claimStake(bytes32)": "4007c5ad",
    "commissionRates(bytes32)": "aef30a18",
    "compoundRewards(bytes32)": "62ed5f4e",
    "currentEpoch()": "76671808",
    "currentInflationRate()": "a563c3d5",
    "delegate(bytes32)": "c3254c23",
    "delegationEnabledMapping(bytes32)": "c0ef4e13",
    "delegatorCounts(bytes32)": "8482a439",
    "delegators(bytes32,address)": "3cd57a06",
    "exitValidator(bytes32)": "3ebb52ec",
    "getActiveValidatorCount()": "37deea70",
    "getActiveValidators()": "9de70258",
    "getAllValidators()": "f3513a37",
    "getBlockchainInfo()": "600fc734",
    "getCommissionRate(bytes32)": "a15050cc",
    "getDelegator(bytes32,address)": "3a6d6bae",
    "getDelegatorPendingWithdraw(bytes32,address)": "fc2e6398",
    "getDelegatorReward(bytes32,address)": "2cc0b49c",
    "getHistoricalRPS(uint256,bytes32)": "70ad2790",
    "getHistoricalRPSBatch(uint256,bytes32[])": "1576f03b",
    "getImplAddress()": "7311ad81",
    "getPendingAddValidators()": "cc8964df",
    "getPendingExitValidators()": "6d6f0d84",
    "getPendingStakeInfo(bytes32,address)": "f40bd6f4",
    "getPendingUndelegationCount()": "c2fb291a",
    "getPendingUpdateValidators()": "1a30c776",
    "getRoleAdmin(bytes32)": "248a9ca3",
    "getTotalDelegatorCount()": "5e8f90c9",
    "getUserPendingUndelegations(address)": "a5bd8279",
    "getUserTotalInfo(address)": "25667b3b",
    "getUserValidators(address)": "4e3266e3",
    "getValidator(bytes32)": "d5f20ff6",
    "getValidatorApr(bytes32)": "f03f0031",
    "getValidatorCounts()": "8f493ae0",
    "grantRole(bytes32,address)": "2f2ff15d",
    "hasPendingActivation(bytes32,address)": "db59539c",
    "hasRole(bytes32,address)": "91d14854",
    "historicalRPS(uint256,bytes32)": "b1f66e13",
    "initialize(address,address)": "485cc955",
    "isValidatorActive(bytes32)": "2324e5e1",
    "isValidatorPendingAdd(bytes32)": "66b54522",
    "isValidatorPendingExit(bytes32)": "9b4aae66",
    "isValidatorPendingUpdate(bytes32)": "e61da203",
    "lastInflationAdjustmentTime()": "e749a90a",
    "lastInflationTotalSupplySnapshot()": "d53a0f9c",
    "migrateV1ToV2()": "21b3917e",
    "nominateOwner(bytes32,address)": "86edecdc",
    "pause()": "8456cb59",
    "paused()": "5c975abb",
    "pendingActivationEpoch(bytes32,address)": "63a33a97",
    "pendingAddPoolIds(uint256)": "104b1a29",
    "pendingExitPoolIds(uint256)": "893dfe68",
    "pendingUndelegations(uint256)": "58333db7",
    "pendingUpdatePoolIds(uint256)": "483bb601",
    "pendingWithdrawStakes(address)": "375d87ee",
    "proxiableUUID()": "52d1902d",
    "registerValidator(string,string,string,string,string,string)": "7404f1e1",
    "removeDelegatorFromWhitelist(bytes32,address)": "5bdd5d0b",
    "renounceRole(bytes32,address)": "36568abe",
    "revokeRole(bytes32,address)": "d547741f",
    "setCommissionRate(bytes32,uint256)": "031e7f5d",
    "setDelegationEnabled(bytes32,bool)": "674602e9",
    "setRoleAdmin(bytes32,bytes32)": "1e4e0091",
    "settleReward(bytes32)": "73512734",
    "slashValidator(bytes32)": "e265bca1",
    "supportsInterface(bytes4)": "01ffc9a7",
    "totalStake()": "8b0e9f3f",
    "totalSupply()": "18160ddd",
    "undelegate(bytes32)": "9b0dc6ce",
    "undelegationReverseIndex(uint256)": "419b87bf",
    "unionArrays(bytes32[],bytes32[])": "d3c26581",
    "unpause()": "3f4ba83a",
    "updateChainConfigAddress(address)": "7ba04992",
    "updateValidator(bytes32,string,string)": "6b2f9def",
    "upgradeToAndCall(address,bytes)": "4f1ef286",
    "userUndelegationHead(address)": "bb81cbf3",
    "userUndelegationIndices(address,uint256)": "43191b6c",
    "v1ToV2Migrated()": "fab7de7f",
    "validatorWhitelists(bytes32,address)": "ceb29963",
    "validators(bytes32)": "9bdafcb3",
    "withdrawStake(bytes32,uint256)": "19dc5716"
  },
  "id": 70
}